:1000000019C04EC332C031C030C02FC02EC02DC069
:100010002CC02BC02AC029C028C082C326C025C03E
:1000200024C023C0ECC221C020C01FC01EC01DC000
:100030001CC01BC011241FBECFEFD4E0DEBFCDBF5C
:1000400011E0A0E0B1E0E0E2F3E102C005900D9222
:10005000AE3EB107D9F712E0AEEEB1E001C01D929D
:10006000A039B107E1F7F5D359C997C3DF92EF92F1
:10007000FF920F931F93CF93DF9300E010E08FE187
:10008000E82EF12C1EC0802F6C2F02D29E01225030
:1000900030402430310510F48D2D09C0C130D10518
:1000A00019F0C630D10511F480E001C080E131D1F2
:1000B0002196C830D10539F70F5F1F4F0630110563
:1000C00061F0C701002E02C0959587950A94E2F76A
:1000D000D82ED094C0E0D0E0D6CFDF91CF911F9141
:1000E0000F91FF90EF90DF900895BF92CF92DF9233
:1000F000EF92FF920F931F93CF93DF938C0183E2D4
:100100000932180710F008E213E2E0900001F090C5
:100110000101C801B701CCD8B62EC62EDD24C0E03F
:10012000D0E003C085E0F5D02196CC15DD05D0F3F5
:1001300088E0B81691F0CE9CC001CF9C900DDE9C5B
:10014000900D1124081B190BC70165E070E0B0D8B1
:10015000C801AED8862F8F5FDCD0C0E0D0E002C0EF
:1001600080E0D7D02196CE018C0D9D1D8830910561
:10017000B8F3DF91CF911F910F91FF90EF90DF9037
:10018000CF90BF90089581E08DBB83E0809369009C
:100190001092680010926D0010926C0010926B002B
:1001A000089584B1876084B9089527E030E090E035
:1001B000299842E04A95F1F700C0289865B1AC0152
:1001C000022E02C0559547950A94E2F74170462BDE
:1001D00045B942E04A95F1F700C0299A42E04A95B4
:1001E000F1F700C0215030404FEF2F3F340701F7A7
:1001F00008958295880F807E842B6295607F682B9E
:10020000862F8F73D2DF8AE18A95F1F700C02A9892
:100210002A9A2A980895482F4F704093F40110921B
:10022000F5018091F60160E0E4DF81E08093F50163
:100230008091F60161E04091F401DBDF1092F5015D
:100240008091F60160E04091F401D3DF08951092AF
:10025000F5011092F6011092F40180E060E040E0B8
:10026000C8DF8FE39CE90197F1F700C0000083E04D
:10027000D2DF8FE097E20197F1F700C0000083E042
:10028000CADF8BED90E00197F1F700C0000083E03A
:10029000C2DF95E89A95F1F7000082E0BCDF85E8BF
:1002A0008A95F1F7000082E0B6DF88E0B4DF8FECDA
:1002B00097E00197F1F700C0000080E0ACDF8CE030
:1002C000AADF8FEC97E00197F1F700C0000080E013
:1002D000A2DF86E0A0DF8FEC97E00197F1F700C086
:1002E000000080E098DF81E096DF8FE99FE00197D2
:1002F000F1F700C0000080E08EDF82E08CDF8FE944
:100300009FE00197F1F700C0000081E08093F601C3
:100310000895CF93C82F82958F707DDF8C2F8F70BB
:100320007ADF85E88A95F1F70000CF910895109261
:10033000F601982F91709295990F990F907C906883
:10034000869524E1829F802D1124860F892BE1DF81
:1003500081E08093F6010895CF93DF93EC0101C013
:10036000D8DF89918823E1F7DF91CF9108954F92EB
:100370005F926F927F928F929F92AF92BF92CF9235
:10038000DF92EF92FF920F931F93CF93DF93EC01D5
:1003900020E030E00CC0CE01880F991FF3E0CC0FB5
:1003A000DD1FFA95E1F7C80FD91F2F5F3F4F2417C4
:1003B000350789F7AA24BB24882499243901660EBD
:1003C000771E23010894410851083BC0C701B601BC
:1003D0002AE030E040E050E04CD76B017C0106C0E1
:1003E000850191E0C92ED12CE12CF12C0F5F1F4F1C
:1003F0000615170558F3BE0180E090E0A7019601AD
:100400006BD72115310531F08114910419F481E085
:10041000882E912C2C9DC0012D9D900D3C9D900D02
:100420001124C81BD90B8114910419F4A414B50428
:1004300019F4822F805D01C080E26BDF0894A11C5B
:10044000B11C4A145B0460F6DF91CF911F910F91AC
:10045000FF90EF90DF90CF90BF90AF909F908F90E4
:100460007F906F905F904F9008951092F60180E01A
:10047000D2DE81E0D0DE8FEC97E00197F1F700C08B
:10048000000081E08093F60180E060E050DF089595
:100490001092F6016064880F880F880F862B39DF71
:1004A00081E08093F601089583E080930902109221
:1004B0000A0286E080930B0285E080930C02089587
:1004C0001092800083E0809381001092820081E08E
:1004D00080936F0010928500109284008FEF9FEF41
:1004E0009093890080938800089581E884BD85E019
:1004F00085BD10926E0016BC80E887BD0895FC0192
:1005000020E030E002C02F5F3F4F81918823D9F770
:10051000C9010895AF92BF92CF92DF92EF92FF92FE
:100520000F931F93CF93DF939CE6E92E92E0F92E71
:10053000CC24DD2439C0F701EC0FFD1F80819181AF
:10054000A281B381A80160E070E084179507A60737
:10055000B70710F48C0159012F5F3F4F24962930C3
:10056000310549F7F501D7012D913C91EE0FFF1FA1
:10057000EE0FFF1FE459FD4F80819181A281B3816D
:10058000E70189939993A993B9937E01C901A0E0EA
:10059000B0E080839183A283B3830894C11CD11CF3
:1005A000D9E0CD16D10431F09601C0E0D0E00FEFD4
:1005B0001FEFC1CFDF91CF911F910F91FF90EF906F
:1005C000DF90CF90BF90AF9008951F93CF93DF93AC
:1005D0004CDFC9E0D2E010E0812F60E0A8DEE991B5
:1005E000F0E0EE0FFF1FE950FE4F80819181B4DEF5
:1005F0001F5F143089F7DF91CF911F9108951F92EB
:100600000F920FB60F9211240F931F932F933F93C6
:100610004F935F936F937F938F939F93AF93BF930A
:10062000CF93DF93EF93FF93D9D0282F30E0A9E049
:10063000B2E0C0E0D0E0ED91F0E0EC51FE4F8081FF
:1006400090E02817390799F400E010E0CC0FDD1F87
:10065000CC0FDD1FCD5DDD4FC1D0FE01E00FF11FDE
:1006600080830F5F1F4F04301105B1F704C021963E
:10067000C430D10501F7FF91EF91DF91CF91BF9188
:10068000AF919F918F917F916F915F914F913F912A
:100690002F911F910F910F900FBE0F901F901895E3
:1006A0001F920F920FB60F9211244F935F936F9387
:1006B0007F938F939F93EF93FF938091EE0190919F
:1006C000EF014091840050918500FC01EE0FFF1F67
:1006D000EE0FFF1FED5CFD4F60E070E04083518343
:1006E000628373838830910529F41092EF01109290
:1006F000EE0105C001969093EF018093EE011092F8
:10070000850010928400FF91EF919F918F917F91CE
:100710006F915F914F910F900FBE0F901F901895A2
:100720001F920F920FB60F9211244F935F936F9306
:100730007F938F939F93EF93FF938091EE0190911E
:10074000EF01FC01EE0FFF1FEE0FFF1FED5CFD4FF1
:100750004FEF5FEFBA014083518362837383883028
:10076000910529F41092EF011092EE0105C0019657
:100770009093EF018093EE01109285001092840017
:10078000FF91EF919F918F917F916F915F914F9129
:100790000F900FBE0F901F9018951F920F920FB6DB
:1007A0000F921124F89480E060E0C1DD82E091E0D6
:1007B000D3DDFFCF9093C5008093C40080E9809380
:1007C000C10086E28093C2001092C000089590910B
:1007D000C00095FFFCCF8093C60008958091C600AD
:1007E00008958091C00087FFFCCF2091C0008091C8
:1007F000C00090E08470907030E020713070822BE7
:10080000932B009719F48091C60008958091C6003B
:100810008FEF089580E095E02091C00027FF15C07C
:100820002091C0008091C00090E08470907030E012
:1008300020713070822B932B009719F48091C600A1
:1008400008958091C6008FEF0895019729F78FEFE3
:100850000895CF93DF93CDB7DEB7EE970FB6F89438
:10086000DEBF0FBECDBF9DDCF2DC2ADE89E190E069
:10087000A1DF89DCFBDB569A38DE16DEDE019E96B0
:10088000E5EBF1E08EE001900D928150E1F7DE01A1
:100890009096E3ECF1E08EE001900D928150E1F74B
:1008A000DE015996E1EDF1E087E001900D92815073
:1008B000E1F7DE015296E8EDF1E087E001900D925C
:1008C0008150E1F789E391E09093F8018093F7017B
:1008D0002FE331E03093FA012093F90145E451E030
:1008E0005093FC014093FB014BE451E05093FE0117
:1008F0004093FD0142E551E0509300024093FF0117
:1009000048E551E050930202409301024EE551E068
:10091000509304024093030246E651E050935F0275
:1009200040935E0249E651E05093610240936002B9
:100930004CE651E050936302409362024FE651E06F
:10094000509365024093640242E751E0509367027E
:100950004093660245E751E0509369024093680274
:1009600048E751E050936B0240936A029093120261
:100970008093110230931402209313028BE791E0CD
:10098000909316028093150285E891E090931802E7
:100990008093170280E991E090931A0280931902E4
:1009A0008BE991E090931C0280931B0285EA91E011
:1009B00090931E0280931D0279E1A72EB12CAC0EFC
:1009C000BD1EE2E18E2E912C8C0E9D1E00E010E0EB
:1009D000FBE0EF2E26C04F5F242F30E028173907A9
:1009E000D4F3F801EE0FFF1FE950FE4F8081918193
:1009F00086DDF801E95AFD4F8083EBE0F0E0EC0F73
:100A0000FD1FE00FF11F9E2D9C1921E0CF1409F46A
:100A100020E0921B981B90830F5F1F4F073011053A
:100A200061F0D501CD905D01F401F1904F018C2D65
:100A300090E08F19910940E0CFCF81E090E09E8354
:100A40008D8380E190E098878F8380E091E09A87A2
:100A500089878FE798E3A1E081509040A040E1F7BB
:100A600000C0000081E060E062DC04E211E090E0A0
:100A7000D8018D918D019EAF4CDCEFE3FCE93197FD
:100A8000F1F700C000009EAD9F5F903189F782E0D2
:100A900060E04DDC0FE011E090E0D8018D918D0118
:100AA0009EAF37DCEFE3FCE93197F1F700C00000BF
:100AB0009EAD9F5F903189F78FEF92E5A7E081505F
:100AC0009040A040E1F700C0000000E0802F60E00F
:100AD0002EDC10E180E21DDCAFE3BCE91197F1F7F9
:100AE00000C000001150B1F70F5F043079F778941F
:100AF0005AE0252E312CFE013596FDAFECAF8091EA
:100B0000E301882389F061DD2091ED0130E0C90126
:100B1000837090709595879520FF02C068E001C0B2
:100B200067E005DC1092E30119E0412E12E0512E3E
:100B300003E2602E02E0702E88249924F82CD20162
:100B4000AD902D0180E090E0D301A80FB91F119660
:100B50002C911197322F3154363018F020532A300F
:100B600038F401968330910579F7EE24E39401C0BF
:100B7000EE24BB248501095A1D4F8F2DF801608199
:100B8000D6DBCC2403C080E2C4DBC394D8016C91D3
:100B90008C2D90E09101261B3109281739079CF70D
:100BA0008F2DC5DB00E0BBE0CB2ED12CCC0EDD1EA3
:100BB000CA0CDB1C03C080E2ACDB0F5F202F30E0EF
:100BC000F601808190E0019728173907A4F3F1E03E
:100BD000EF1609F0A4C07401EE0CFF1CEE0CFF1C14
:100BE00084E292E0E80EF91EDE011296BE01655F16
:100BF0007F4F00E010E0F70121917F01822F90E00C
:100C0000807F90708033910511F42F7005C080347F
:100C10009105B9F42F70275F2C938D9190E0FB0123
:100C200032912291BF01829FA001839F500D929F1C
:100C3000500D1124040F151F8CAD9DADE817F90759
:100C4000D1F6B80180E090E0FFD120E030E043E150
:100C500055E466D16B017C018501000F111FA1E0F5
:100C6000B0E0AC0FBD1F0A0F1B1FF80165A576A5EC
:100C700080E090E0E9D19B01AC01C701B60196D2BA
:100C80006B017C01D8015F966D917C9190978827CC
:100C900077FD8095982FDAD19B01AC01C701B60191
:100CA000D7D0F62FE72F382F292F462F572F682F11
:100CB000792F6A017B018F2F9E2FA32FB22FBC01AA
:100CC000CD0120E030E0A90127D187FF04C0F7FA69
:100CD000F094F7F8F094E2E1F0E0EC0FFD1FEA0D7C
:100CE000FB1D0081C701B60183D1DC01CB01E9E125
:100CF000F0E0EC0FFD1FEA0DFB1D408150E0401BB2
:100D00005109602F70E033DBEFE1FEE43197F1F73A
:100D100000C0000014C08DE2FCDA0F5F08C000E0E4
:100D2000E9E1EE2EF12CEC0EFD1EEA0CFB1CD701C6
:100D30008C9190E0202F30E02817390764F3089455
:100D4000811C911CE4E0F0E06E0E7F1EF4E08F1633
:100D5000910409F0F3CE63E372E02CE632E049E05F
:100D6000FB0181919191A191B191BF01F901819311
:100D70009193A193B1939F01415091F7CBDB809167
:100D80008C0290918D02A0918E02B0918F028F3FC4
:100D9000FFEF9F07F0E0AF07F0E0BF0720F080E033
:100DA00090E0DC011AC060917C0270917D0280911C
:100DB0007E0290917F0260930D0270930E028093E9
:100DC0000F029093100240D19B01AC0160E074E2ED
:100DD00084EF97E4A5D0DC01CB01809305029093CA
:100DE0000602A0930702B093080260910502709179
:100DF0000602809107029091080220E030E040E76F
:100E000052E4D4D1F5D0DC01CB0180931F02909342
:100E10002002A0932102B093220281E087BD80E0EE
:100E20006CE085DA80911F029091200265E070E00D
:100E300040E050E09CDA81EB91E08EDA83E06CE0F8
:100E400076DA80911F02909120024FD958CE5058E7
:100E5000BB27AA270ED070C161D130F066D120F037
:100E600031F49F3F11F41EF456C10EF4E095E7FBF8
:100E70004CC1E92F72D180F3BA1762077307840758
:100E8000950718F071F49EF58AC10EF4E0950B2ECB
:100E9000BA2FA02D0B01B90190010C01CA01A001CC
:100EA0001124FF27591B99F0593F50F4503E68F127
:100EB0001A16F040A22F232F342F4427585FF3CF68
:100EC000469537952795A795F0405395C9F77EF439
:100ED0001F16BA0B620B730B840BBAF09150A1F082
:100EE000FF0FBB1F661F771F881FC2F70EC0BA0F08
:100EF000621F731F841F48F4879577956795B79590
:100F0000F7959E3F08F0B3CF9395880F08F0992787
:100F1000EE0F979587950895D4D008F481E0089551
:100F20000CD00AC102D140F0F9D030F021F45F3F7B
:100F300019F0EBC0511134C1EEC00FD198F39923D1
:100F4000C9F35523B1F3951B550BBB27AA2762178D
:100F50007307840738F09F5F5F4F220F331F441FD2
:100F6000AA1FA9F333D00E2E3AF0E0E830D091500A
:100F70005040E695001CCAF729D0FE2F27D0660FF7
:100F8000771F881FBB1F261737074807AB07B0E836
:100F900009F0BB0B802DBF01FF2793585F4F2AF04C
:100FA0009E3F510568F0B1C0FBC05F3FECF3983E37
:100FB000DCF3869577956795B795F7959F5FC9F7A9
:100FC000880F911D9695879597F90895E1E0660F32
:100FD000771F881FBB1F621773078407BA0720F0AB
:100FE000621B730B840BBA0BEE1F88F7E095089514
:100FF000BCD088F09F5790F0B92F9927B751A0F037
:10100000D1F0660F771F881F991F1AF0BA95C9F79C
:1010100012C0B13081F0C3D0B1E00895C0C0672FD5
:10102000782F8827B85F39F0B93FCCF3869577954C
:101030006795B395D9F73EF4909580957095619535
:101040007F4F8F4F9F4F0895E89409C097FB3EF460
:1010500090958095709561957F4F8F4F9F4F992305
:10106000A9F0F92F96E9BB279395F6958795779583
:101070006795B795F111F8CFFAF4BB0F11F460FF43
:101080001BC06F5F7F4F8F4F9F4F16C0882311F09B
:1010900096E911C0772321F09EE8872F762F05C0AF
:1010A000662371F096E8862F70E060E02AF09A954A
:1010B000660F771F881FDAF7880F9695879597F93F
:1010C0000895990F0008550FAA0BE0E8FEEF1616D9
:1010D0001706E807F907C0F012161306E407F5072C
:1010E00098F0621B730B840B950B39F40A2661F0A0
:1010F000232B242B252B21F408950A2609F4A14043
:10110000A6958FEF811D811D089597F99F6780E84F
:1011100070E060E008959FEF80EC089500240A9449
:101120001616170618060906089500240A941216C2
:101130001306140605060895092E0394000C11F4F5
:10114000882352F0BB0F40F4BF2B11F460FF04C0A2
:101150006F5F7F4F8F4F9F4F089557FD9058440FFB
:10116000551F59F05F3F71F04795880F97FB991F06
:1011700061F09F3F79F087950895121613061406C3
:10118000551FF2CF4695F1DF08C016161706180650
:10119000991FF1CF86957105610508940895E8942B
:1011A000BB2766277727CB0197F908950BD0C4CFCB
:1011B000B5DF28F0BADF18F0952309F0A6CFABCF42
:1011C0001124EECFCADFA0F3959FD1F3950F50E025
:1011D000551F629FF001729FBB27F00DB11D639FE9
:1011E000AA27F00DB11DAA1F649F6627B00DA11D8F
:1011F000661F829F2227B00DA11D621F739FB00D35
:10120000A11D621F839FA00D611D221F749F3327A4
:10121000A00D611D231F849F600D211D822F762F3D
:101220006A2F11249F5750408AF0E1F088234AF03A
:10123000EE0FFF1FBB1F661F771F881F9150504086
:10124000A9F79E3F510570F060CFAACF5F3FECF346
:10125000983EDCF3869577956795B795F795E79572
:101260009F5FC1F7FE2B880F911D9695879597F983
:101270000895629FD001739FF001829FE00DF11DE0
:10128000649FE00DF11D929FF00D839FF00D749F00
:10129000F00D659FF00D9927729FB00DE11DF91FAC
:1012A000639FB00DE11DF91FBD01CF011124089509
:1012B000AA1BBB1B51E107C0AA1FBB1FA617B7077C
:1012C00010F0A61BB70B881F991F5A95A9F7809598
:1012D0009095BC01CD010895A1E21A2EAA1BBB1B5B
:1012E000FD010DC0AA1FBB1FEE1FFF1FA217B307F2
:1012F000E407F50720F0A21BB30BE40BF50B661F08
:10130000771F881F991F1A9469F7609570958095CB
:1013100090959B01AC01BD01CF010895F894FFCFDA
:101320006504424144495352204552524F520020D5
:10133000202020205265766973696F6E203220204C
:1013400020202000202020202020204D2E462E4D21
:101350002E2020202020202000426F6F7374005424
:101360006163686F004F696C2E50004675656C2E86
:1013700050004578546D70004F696C2E54005761D1
:101380007465722E54004253005443004F5000467F
:1013900050004554004F54005754004F696C207062
:1013A00072657373004675656C20707265737300A7
:1013B0004578742E2054656D702E004F696C205452
:1013C000656D702E0057617465722054656D702EC6
:1013D0000072706D00030028230A00060084036475
:1013E000006400FFFF000000000000C8003200148D
:1013F000000304030304030301040201040303FFC5
:0E140000FF0000010102030405070FFFFF04B7
:00000001FF
