:1000000019C02AC532C031C030C02FC02EC02DC08B
:100010002CC02BC02AC029C028C065C526C025C059
:1000200024C023C0C8C421C020C01FC01EC01DC022
:100030001CC01BC011241FBECFEFD4E0DEBFCDBF5C
:1000400011E0A0E0B1E0E6EEF9E102C005900D920A
:10005000AC3BB107D9F713E0ACEBB1E001C01D92A6
:10006000AE31B107E1F7D8D5BCCC7AC5DF92EF92BB
:10007000FF920F931F93CF93DF9300E010E08FE187
:10008000E82EF12C1EC0802F6C2FBDD29E01225075
:1000900030402430310510F48D2D09C0C130D10518
:1000A00019F0C630D10511F480E001C080E18DD196
:1000B0002196C830D10539F70F5F1F4F0630110563
:1000C00061F0C701002E02C0959587950A94E2F76A
:1000D000D82ED094C0E0D0E0D6CFDF91CF911F9141
:1000E0000F91FF90EF90DF9008954F925F927F9273
:1000F0008F929F92AF92BF92CF92DF92EF92FF9238
:100100000F931F93CF93DF93BC018FE16134780786
:1001100010F060E47FE180E090E00DDBE0DA80E069
:1001200090E009DB4B015C01C0900001D09001011F
:10013000E0900201F0900301A701960163DACFDAA3
:10014000762E062F10E0C0E0D0E0280103C085E045
:100150003CD12196C415D505D0F388E07816D9F0A6
:10016000B801882777FD8095982FE7DA9B01AC01CD
:10017000C701B60192DB9B01AC01C501B401D9D91D
:10018000A70196013FDA20E030E040EA50E485DB49
:10019000A6DA862F1AD1C0E0D0E002C080E015D1E7
:1001A0002196CE01840D951D88309105B8F3DF911D
:1001B000CF911F910F91FF90EF90DF90CF90BF9064
:1001C000AF909F908F907F905F904F90089581E0C7
:1001D0008DBB83E0809369001092680010926D00DF
:1001E00010926C0010926B0008958A30910528F4EB
:1001F0001092BF011092BE011DC023E28932920706
:1002000018F088E090E012C00A97BC0180E090E00E
:1002100092DA20E030E040E051E43FDB20E038E7D4
:100220004CE056E4EFD956DADC01CB019093BF01E4
:100230008093BE018FEF90E00090BE0102C0880F56
:10024000991F0A94E2F7809518D2089584B18760C7
:1002500084B9089527E030E090E0299845E04A9578
:10026000F1F70000289865B1AC01022E02C0559547
:1002700047950A94E2F74170462B45B945E04A9507
:10028000F1F70000299A45E04A95F1F70000215066
:1002900030404FEF2F3F340701F708958295880FC4
:1002A000807E842B6295607F682B862F8F73D2DFD0
:1002B00085E38A95F1F700002A982A9A2A980895EA
:1002C000482F4F704093C0011092C1018091C2012C
:1002D00060E0E4DF81E08093C1018091C20161E0D0
:1002E0004091C001DBDF1092C1018091C20160E04A
:1002F0004091C001D3DF08951092C1011092C20154
:100300001092C00180E060E040E0C8DF8FEF99EF1D
:10031000A0E081509040A040E1F700C0000083E0E1
:10032000CFDFAFE1BEE41197F1F700C0000083E03A
:10033000C7DF87EB91E00197F1F700C0000083E091
:10034000BFDFA7ECB0E01197F1F700C0000082E03A
:10035000B7DF87EC90E00197F1F700C0000082E082
:10036000AFDF88E0ADDFAFE9BFE01197F1F700C084
:10037000000080E0A5DF8CE0A3DF8FE99FE001971C
:10038000F1F700C0000080E09BDF86E099DFAFE975
:10039000BFE01197F1F700C0000080E091DF81E03D
:1003A0008FDF8FE39FE10197F1F700C0000080E04D
:1003B00087DF82E085DFAFE3BFE11197F1F700C08F
:1003C000000081E08093C2010895CF93C82F8295E9
:1003D0008F7076DF8C2F8F7073DF87EC90E0019742
:1003E000F1F700C00000CF9108951092C201982F3C
:1003F00091709295990F990F907C9068869524E161
:10040000829F802D1124860F892BDFDF81E080936E
:10041000C2010895CF93DF93EC0101C0D6DF89912B
:100420008823E1F7DF91CF9108952F923F924F9269
:100430005F926F927F928F929F92AF92BF92CF9274
:10044000DF92EF92FF920F931F93CF93DF93CDB77D
:10045000DEB728970FB6F894DEBF0FBECDBF6B0195
:100460007C011A01290180E090E04C010EC0C70117
:10047000B60120E030E040E251E40FDAC62ED72E7C
:10048000E82EF92E0894811C911C8414950479F7A8
:100490000130110571F4C701B60120E030E0A90177
:1004A000ADD887FF1AC08DE290DFF7FAF094F7F825
:1004B000F09400E010E0662477249201220D331DB1
:1004C0003A832983215030403C832B83C10101971B
:1004D0009E838D8378866F8264C08BE276DFE9CF5E
:1004E0000215130529F44114510411F08EE26DDF59
:1004F000380181E0882E912CA12CB12CC501B401CA
:1005000005C02AE030E040E050E02ADA0894611C9F
:10051000711CE981FA816E167F0698F34B015C012C
:100520000AD99B01AC01C701B6016CD8D8D8DC014F
:10053000CB013C012F8138852115310579F481E00B
:1005400090E098878F836114710461F4ED81FE81DE
:100550000E171F0739F018861F8204C021E030E013
:1005600038872F83B30180E090E0A5019401F8D98A
:10057000E2D89B01AC01C701B601DBD76B01E82EC5
:10058000F92EEF81F885309729F42B813C810217F1
:10059000130719F4862D805D01C080E216DF0F5F1E
:1005A0001F4F8B819C818017910708F099CF289667
:1005B0000FB6F894DEBF0FBECDBFDF91CF911F9174
:1005C0000F91FF90EF90DF90CF90BF90AF909F90F2
:1005D0008F907F906F905F904F903F902F900895F5
:1005E0001092C20180E06CDE81E06ADE8FE99FE05C
:1005F0000197F1F700C0000081E08093C20180E024
:1006000060E0F3DE08951092C2016064880F880FE5
:10061000880F862BDADE81E08093C201089584B1D1
:10062000886384B9089527E030E090E02C9845E095
:100630004A95F1F700002B9865B1AC01022E02C07B
:10064000559547950A94E2F74170507073E0440F56
:10065000551F7A95E1F7642B65B945E04A95F1F7A6
:1006600000002C9A45E04A95F1F7000021503040F7
:100670004FEF2F3F3407D1F60895D5DF85E38A95F4
:10068000F1F700002D982D9A2D98089586E080931B
:10069000D50185E08093D60183E08093D701109245
:1006A000D801089586E060E0AEDF80E08EDE86E06F
:1006B00061E0A9DF80E089DE86E062E0A4DF80E01F
:1006C00084DE86E063E09FDF80E07FDE86E064E03A
:1006D0009ADF81E17ADE86E065E095DF85E175DE0F
:1006E00086E066E090DF85E170DE86E067E08BDF24
:1006F0008AE06BDE87E060E086DF80E066DE87E030
:1007000061E081DF80E061DE87E062E07CDF8CE138
:100710005CDE87E063E077DF84E157DE87E064E05A
:1007200072DF84E152DE87E065E06DDF82E14DDE5D
:1007300087E066E068DF8FE148DE87E067E063DF3F
:1007400081E143DE089588E240DE87E23EDE85EA0D
:100750003CDE86E03ADE85EA38DE80E636DE89E297
:1007600034DE089588E231DE80E62FDE85EA2DDE74
:1007700086E02BDE85EA29DE87E227DE89E225DEB8
:10078000089588E222DE8FED20DE87E01EDE8FED09
:100790001CDE89E21ADE089581EA84BD82E085BD0F
:1007A00010926E0016BC80E887BD85B590E087701A
:1007B000907083309105B1F0843091053CF4813024
:1007C0009105F9F082309105E1F407C0843091057C
:1007D00071F085309105A9F40FC088E090E0A0E0A9
:1007E000B0E013C080E490E0A0E0B0E00EC080E094
:1007F00091E0A0E0B0E009C080E094E0A0E0B0E0CB
:1008000004C081E090E0A0E0B0E08093E10190932B
:10081000E201A093E301B093E401089510928000F7
:1008200083E0809381001092820081E080936F00CA
:1008300010928500109284008FEF9FEF90938900B3
:10084000809388008091810090E087709070833061
:100850009105B1F0843091053CF481309105F9F0B7
:1008600082309105E1F407C08430910571F0853044
:100870009105A9F40FC088E090E0A0E0B0E013C0BB
:1008800080E490E0A0E0B0E00EC080E091E0A0E065
:10089000B0E009C080E094E0A0E0B0E004C081E0F6
:1008A00090E0A0E0B0E08093F3019093F401A09376
:1008B000F501B093F6010895FC0120E030E002C09C
:1008C0002F5F3F4F81918823D9F7C9010895AF92D7
:1008D000BF92CF92DF92EF92FF920F931F93CF932D
:1008E000DF939EE9E92E92E0F92ECC24DD2439C075
:1008F000F701EC0FFD1F80819181A281B381A801D6
:1009000060E070E084179507A607B70710F48C0124
:1009100059012F5F3F4F24962032310549F7F501E9
:10092000D7012D913C91EE0FFF1FEE0FFF1FE256F6
:10093000FD4F80819181A281B381E70189939993D1
:10094000A993B9937E01C901A0E0B0E080839183AF
:10095000A283B3830894C11CD11CD0E2CD16D1046C
:1009600031F09601C0E0D0E00FEF1FEFC1CFDF9173
:10097000CF911F910F91FF90EF90DF90CF90BF909C
:10098000AF9008951F93CF93DF93C5EDD1E010E0B2
:10099000812F60E02ADDE991F0E0EE0FFF1FED53BB
:1009A000FE4F8081918136DD1F5F143089F7DF9122
:1009B000CF911F9108951F920F920FB60F9211249D
:1009C0000F931F932F933F934F935F936F937F9357
:1009D0008F939F93AF93BF93CF93DF93EF93FF9347
:1009E000E3D0282F30E0A5EDB1E0C0E0D0E0ED91FC
:1009F000F0E0EF54FE4F808190E02817390799F41A
:100A000000E010E0CC0FDD1FCC0FDD1FC750DE4F24
:100A1000E4D0FE01E00FF11F80830F5F1F4F043011
:100A20001105B1F704C02196C430D10501F7FF913B
:100A3000EF91DF91CF91BF91AF919F918F917F9176
:100A40006F915F914F913F912F911F910F910F9057
:100A50000FBE0F901F9018951F920F920FB60F9216
:100A600011244F935F936F937F938F939F93EF9393
:100A7000FF9380918400909185008531910530F13C
:100A80008091BC019091BD014091840050918500FE
:100A9000FC01EE0FFF1FEE0FFF1FE75FFD4F60E051
:100AA00070E040835183628373838F31910529F411
:100AB0001092BD011092BC0105C001969093BD013A
:100AC0008093BC011092850010928400FF91EF91F9
:100AD0009F918F917F916F915F914F910F900FBE7A
:100AE0000F901F9018951F920F920FB60F9211241E
:100AF0004F935F936F937F938F939F93EF93FF93A6
:100B00008091BC019091BD01FC01EE0FFF1FEE0F23
:100B1000FF1FE75FFD4F4FEF5FEFBA014083518347
:100B2000628373838F31910529F41092BD01109275
:100B3000BC0105C001969093BD018093BC01109249
:100B4000850010928400FF91EF919F918F917F918A
:100B50006F915F914F910F900FBE0F901F9018955E
:100B60001F920F920FB60F921124F89480E060E06C
:100B70003CDC84E091E04EDCFFCF9093C500809395
:100B8000C40080E98093C10086E28093C200109285
:100B9000C00008959091C00095FFFCCF8093C600DF
:100BA00008958091C60008958091C00087FFFCCF12
:100BB0002091C0008091C00090E08470907030E07F
:100BC00020713070822B932B009719F48091C6000E
:100BD00008958091C6008FEF089580E095E0209100
:100BE000C00027FF15C02091C0008091C00090E098
:100BF0008470907030E020713070822B932B0097BE
:100C000019F48091C60008958091C6008FEF089571
:100C1000019729F78FEF0895CF93DF93CDB7DEB714
:100C2000C156D0400FB6F894DEBF0FBECDBF0EDB6D
:100C3000F6DC62DBF3DD569AAFDD83E390E09DDF07
:100C4000C6DA14DA2FDD22DDDE01D996E6E8F1E01E
:100C50008EE001900D928150E1F7DE019B96E4E970
:100C6000F1E08EE001900D928150E1F7DE01949663
:100C7000E2EAF1E087E001900D928150E1F7DE01B8
:100C80005D96E9EAF1E087E001900D928150E1F78D
:100C900081E08E8B1F8A188E198E1A8E1B8E1C8EE9
:100CA00080E591E09093C4018093C30186E591E0D3
:100CB0009093C6018093C5018CE591E09093C801A3
:100CC0008093C70182E691E09093CA018093C901A5
:100CD00089E691E09093CC018093CB018FE691E07F
:100CE0009093CE018093CD0185E791E09093D00160
:100CF0008093CF0144E2A42EB12CAC0EBD1E5DE169
:100D0000852E912C8C0E9D1E00E010E06BE0F62EDF
:100D10002EC04F5F242F30E028173907D4F3F80195
:100D2000EE0FFF1FED53FE4F80819181C5DDF8016D
:100D3000E757FD4F8083AFE0B0E0AC0FBD1FA00FC1
:100D4000B11F9F2D9E1921E0EC1409F420E0921BA5
:100D5000981BE6E1F0E0EC0FFD1FE00FF11F808132
:100D6000981B9C930F5F1F4F0730110561F0D50151
:100D7000ED905D01F401C1904F018E2D90E08C1932
:100D8000910940E0C7CF81E090E09A87898780E1B0
:100D900090E09C878B8780E091E09E878D8700E0C4
:100DA00010E021E0E22EF12CC701002E02C0880FD6
:100DB000991F0A94E2F761DC2FEF30E742E02150FF
:100DC00030404040E1F700C000000F5F1F4F093086
:100DD000110551F78FEF90E7A2E081509040A040BD
:100DE000E1F700C0000081E060E0FFDA0BE311E012
:100DF00090E0D8018D918D01A2969FAFA297E5DA80
:100E00002FEF39EF40E0215030404040E1F700C083
:100E10000000A2969FADA2979F5F943151F782E0A8
:100E200060E0E3DA06E211E090E0D8018D918D01F7
:100E3000A2969FAFA297C9DA2FEF39EF40E0215079
:100E400030404040E1F700C00000A2969FADA2975D
:100E50009F5F943151F783E060E0C7DA01E111E070
:100E600090E0D8018D918D01A2969FAFA297ADDA47
:100E70002FEF39EF40E0215030404040E1F700C013
:100E80000000A2969FADA2979F5F943151F700E0BA
:100E900010E09FEFE92EF12CC701002E02C0880F51
:100EA000991F0A94E2F78095E8DB8FEF96E7A1E0BF
:100EB00081509040A040E1F700C000000F5F1F4F3D
:100EC0000930110549F72FEF34E34CE02150304051
:100ED0004040E1F700C0000000E010E08FEFE82E96
:100EE000F12CC701002E02C0959587950A94E2F770
:100EF000C4DB8FEF96E7A1E081509040A040E1F77E
:100F000000C000000F5F1F4F0930110551F72FEF90
:100F100030E742E0215030404040E1F700C000009F
:100F20008FEFABDB8FE799EAA3E081509040A040C0
:100F3000E1F700C0000080E0A0DB2FE739EA43E0E2
:100F4000215030404040E1F700C000008FEF95DBBA
:100F50008FE799EAA3E081509040A040E1F700C0FC
:100F6000000080E08ADB2FE739EA43E0215030407F
:100F70004040E1F700C0000000E0802F60E035DA7B
:100F800014E180E222DA8FE59AEE0197F1F700C0D2
:100F900000001150B1F70F5F043079F77894809119
:100FA000B001882389F0EEDC2091BA0130E0C9015C
:100FB000837090709595879520FF02C068E001C00E
:100FC00067E013DA1092B001A5EDB1E06B96BFAF08
:100FD000AEAF6B97FE0135966F96FFAFEEAF6F9792
:100FE0009E01295B3F4F6D963FAF2EAF6D9719EF76
:100FF000612E11E0712E29014F01A196BFAFAEAF56
:10100000A197AA24BB2433243394AE01475F5F4FDA
:1010100069965FAF4EAF6997A196AEADBFADA19790
:101020000D91A196BFAFAEAFA19780E090E0F30124
:10103000E80FF91F2181322F3154363018F0205338
:101040002A3038F4F401308201968330910579F723
:1010500002C0D4011C92F40181914F01813009F04A
:101060006EC0F501EE0FFF1FEE0FFF1FE650FE4FA3
:10107000DE011296BE01615F7F4FEE24FF246F01F7
:10108000F60181916F01282F30E0207F30702033EE
:10109000310511F48F7005C020343105C9F48F700B
:1010A000875F8C938D9190E0FB0132912291BF017B
:1010B000829FA001839F500D929F500D1124E40E3A
:1010C000F51E69962EAD3FAD6997E217F307C1F69D
:1010D00010E0B70180E090E02ED320E030E043E163
:1010E00055E490D26B017C01000F111F41E050E0EC
:1010F0004C0F5D1F040F151FD801D8966D917C9180
:10110000D99780E090E017D39B01AC01C701B601ED
:10111000C4D36B017C01F80162A573A5882777FD14
:101120008095982F0AD39B01AC01C701B60102D26A
:10113000DC01CB01F20180839183A283B383089405
:10114000A11CB11C24E030E0420E531E620E731E3F
:1011500034E0A316B10409F05FCFE9E0F2E00EE954
:1011600012E0980140E0BF01FB0181919191A191B2
:10117000B191BF01F90181939193A193B1939F0123
:101180004F5F403289F7A3DBE091BC01F091BD01D4
:10119000EE0FFF1FEE0FFF1FE75FFD4FC080D180F6
:1011A000E280F380FFEFCF16FFEFDF06F0E0EF06FF
:1011B000F0E0FF0620F080E090E0DC0117C0209115
:1011C000F3013091F4014091F5015091F60160E096
:1011D00074E284EF90E0E3D3CA01B901A70196015C
:1011E000DED3CA01B901A7D2DC01CB018093D101C2
:1011F0009093D201A093D301B093D401C090D101B8
:10120000D090D201E090D301F090D401C701B60193
:101210002091DD013091DE014091DF015091E0012C
:1012200088D125E535E545E051E4E8D187FF09C0DF
:10123000C092DD01D092DE01E092DF01F092E00188
:1012400049C040911A0350911B0360911C03709197
:101250001D0320E0F80181919191A191B191843613
:101260009105A105B10538F4480F591F6A1F7B1F6E
:101270002F5F2F3181F74093D9015093DA016093AA
:10128000DB017093DC012091F3013091F401409176
:10129000F5015091F60160E074E284EF90E07FD3B5
:1012A000C090D901D090DA01E090DB01F090DC0130
:1012B000CA01B901A701960172D3CA01B9013BD293
:1012C000DC01CB018093DD019093DE01A093DF016F
:1012D000B093E0016091DD017091DE018091DF014A
:1012E0009091E00120E030E040E752E4D6D220E0E7
:1012F00030E040E05FE3D1D2F2D1DC01CB01BC01B0
:101300009093F8018093F70123E189389207A0F4C4
:1013100080E090E010D220E030E44CE955E472D156
:1013200020E030E04FE753E4B8D220E030E040E97D
:1013300052E400D1D4D101C06FEF67BDEE24AAE022
:101340006A2E712C6B96AEADBFAD6B97CD906B9640
:10135000BFAFAEAF6B97DD24860107571D4F8E2DB3
:10136000F801608142D8FF2403C080E22ED8F394B4
:10137000D8016C918F2D90E09301261B310928171D
:1013800039079CF78E2D31D8FF240FE010E00C0FA9
:101390001D1F0C0D1D1D03C080E217D8F394F8012A
:1013A0008081F816C8F36F96AEADBFAD6F978D9183
:1013B0006F96BFAFAEAF6F97813021F5EDE1F0E0F2
:1013C000EC0FFD1FEC0DFD1D40816D96EEADFFADE8
:1013D0006D976081718182819381E4E2F0E0EC0F8E
:1013E000FD1FEC0DFD1D208130E0241B3109E6E1DD
:1013F000F0E0EC0FFD1FEC0DFD1D008150E010E052
:1014000014D836C0882329F033C080E2DED71F5FAE
:1014100015C010E0E4E2AE2EB12CAC0EBD1EAC0C3B
:10142000BD1CFDE18F2E912C8C0E9D1E8C0C9D1CE5
:1014300026E130E02C0F3D1FC20ED31ED5010C91CA
:10144000212F30E081E090E0F4014081041711F495
:1014500080E090E0D6014C91840F911D2817390748
:10146000A4F210E003C08AE2B0D71F5F1017D9F7CB
:10147000E3946D96EEADFFAD6D9734966D96FFAF2C
:10148000EEAF6D97F4E0EF1609F05CCF80E06CE012
:10149000ACD76091F7017091F80180E090E04BD1FA
:1014A00045E050E020E030E000E010E0BED78DE7FE
:1014B00091E0B0D781E06CE098D78091F7019091EE
:1014C000F8012BE0883B920710F43DD90AC033E1C4
:1014D0008838930710F446D904C053D981E891E0C5
:1014E00099D782E06CE081D784E891E093D760E0FF
:1014F00070E080EA91E447E050E020E030E000E076
:1015000010E093D783E06CE070D78091F701909161
:10151000F801EBD58091F7019091F80166D68FEF35
:1015200092E5A7E081509040A040E1F700C00000A4
:1015300036CD5058BB27AA270ED075C166D130F0E2
:101540006BD120F031F49F3F11F41EF45BC10EF417
:10155000E095E7FB51C1E92F77D180F3BA17620715
:1015600073078407950718F071F49EF58FC10EF488
:10157000E0950B2EBA2FA02D0B01B90190010C01A3
:10158000CA01A0011124FF27591B99F0593F50F4BB
:10159000503E68F11A16F040A22F232F342F442713
:1015A000585FF3CF469537952795A795F04053950B
:1015B000C9F77EF41F16BA0B620B730B840BBAF0DB
:1015C0009150A1F0FF0FBB1F661F771F881FC2F746
:1015D0000EC0BA0F621F731F841F48F4879577955A
:1015E0006795B795F7959E3F08F0B3CF9395880F11
:1015F00008F09927EE0F979587950895D9D008F4AC
:1016000081E008950CD00FC107D140F0FED030F03A
:1016100021F45F3F19F0F0C0511139C1F3C014D16A
:1016200098F39923C9F35523B1F3951B550BBB27A9
:10163000AA2762177307840738F09F5F5F4F220F56
:10164000331F441FAA1FA9F333D00E2E3AF0E0E84F
:1016500030D091505040E695001CCAF729D0FE2F9B
:1016600027D0660F771F881FBB1F2617370748072D
:10167000AB07B0E809F0BB0B802DBF01FF279358E3
:101680005F4F2AF09E3F510568F0B6C000C15F3F32
:10169000ECF3983EDCF3869577956795B795F795CB
:1016A0009F5FC9F7880F911D9695879597F90895C3
:1016B000E1E0660F771F881FBB1F6217730784075F
:1016C000BA0720F0621B730B840BBA0BEE1F88F76E
:1016D000E095089504D06894B111D9C00895BCD0A4
:1016E00088F09F5790F0B92F9927B751A0F0D1F00B
:1016F000660F771F881F991F1AF0BA95C9F712C095
:10170000B13081F0C3D0B1E00895C0C0672F782F09
:101710008827B85F39F0B93FCCF386957795679500
:10172000B395D9F73EF490958095709561957F4F6C
:101730008F4F9F4F0895E89409C097FB3EF4909512
:101740008095709561957F4F8F4F9F4F9923A9F09A
:10175000F92F96E9BB279395F69587957795679529
:10176000B795F111F8CFFAF4BB0F11F460FF1BC06D
:101770006F5F7F4F8F4F9F4F16C0882311F096E900
:1017800011C0772321F09EE8872F762F05C06623AE
:1017900071F096E8862F70E060E02AF09A95660F67
:1017A000771F881FDAF7880F9695879597F9089520
:1017B000990F0008550FAA0BE0E8FEEF1616170662
:1017C000E807F907C0F012161306E407F50798F0CA
:1017D000621B730B840B950B39F40A2661F0232BE3
:1017E000242B252B21F408950A2609F4A140A6955F
:1017F0008FEF811D811D089597F99F6780E870E044
:1018000060E008959FEF80EC089500240A94161676
:10181000170618060906089500240A9412161306DE
:10182000140605060895092E0394000C11F488236C
:1018300052F0BB0F40F4BF2B11F460FF04C06F5F88
:101840007F4F8F4F9F4F089557FD9058440F551F5E
:1018500059F05F3F71F04795880F97FB991F61F032
:101860009F3F79F087950895121613061406551FA9
:10187000F2CF4695F1DF08C0161617061806991F15
:10188000F1CF86957105610508940895E894BB270A
:1018900066277727CB0197F908950BD0C4CFB5DF22
:1018A00028F0BADF18F0952309F0A6CFABCF1124AA
:1018B000EECFCADFA0F3959FD1F3950F50E0551FEF
:1018C000629FF001729FBB27F00DB11D639FAA2795
:1018D000F00DB11DAA1F649F6627B00DA11D661FE4
:1018E000829F2227B00DA11D621F739FB00DA11D05
:1018F000621F839FA00D611D221F749F3327A00DBF
:10190000611D231F849F600D211D822F762F6A2F5A
:1019100011249F5750408AF0E1F088234AF0EE0FDF
:10192000FF1FBB1F661F771F881F91505040A9F7EC
:101930009E3F510570F060CFAACF5F3FECF3983E19
:10194000DCF3869577956795B795F795E7959F5F53
:10195000C1F7FE2B880F911D9695879597F90895ED
:10196000629FD001739FF001829FE00DF11D649F83
:10197000E00DF11D929FF00D839FF00D749FF00D0F
:10198000659FF00D9927729FB00DE11DF91F639FB0
:10199000B00DE11DF91FBD01CF0111240895A1E291
:1019A0001A2EAA1BBB1BFD010DC0AA1FBB1FEE1FD9
:1019B000FF1FA217B307E407F50720F0A21BB30B24
:1019C000E40BF50B661F771F881F991F1A9469F7A0
:1019D00060957095809590959B01AC01BD01CF01FC
:0619E0000895F894FFCF0A
:1019E60000007A44424144495352204552524F52D4
:1019F6000020204669726D776172652020526576F7
:101A06002E332020200020772F204675656C5075D8
:101A16006D702044726976657220004D756C74692C
:101A26002D46756E6374696F6E204D657465720020
:101A3600424F4F535400544143484F004F494C2E98
:101A460050004655454C2E50004558542E54004FD4
:101A5600494C2E540057415445522E540052504D75
:101A6600002020004C00030028230A0006008403FF
:101A760064006400FFFF000000000000C8003200A0
:101A86001400030403030403030104020104030313
:0C1A9600010102030405070FFFFF04001C
:00000001FF
