:1000000019C024C132C031C030C02FC02EC02DC095
:100010002CC02BC02AC029C028C05FC126C0CAC6B8
:1000200099C623C036C621C020C01FC01EC01DC037
:100030001CC01BC011241FBECFEFD4E0DEBFCDBF5C
:1000400011E0A0E0B1E0ECE4FCE102C005900D920B
:10005000AA3BB107D9F713E0AAEBB1E001C01D92AA
:10006000A034B107E1F785D7EFCD4FC5DF92EF920E
:10007000FF920F931F93CF93DF9300E010E08FE187
:10008000E82EF12C1EC0802F6C2F00D59E0122502F
:1000900030402430310510F48D2D09C0C130D10518
:1000A00019F0C630D10511F480E001C080E1D2D34F
:1000B0002196C830D10539F70F5F1F4F0630110563
:1000C00061F0C701002E02C0959587950A94E2F76A
:1000D000D82ED094C0E0D0E0D6CFDF91CF911F9141
:1000E0000F91FF90EF90DF9008954F925F927F9273
:1000F0008F929F92AF92BF92CF92DF92EF92FF9238
:100100000F931F93CF93DF93BC018FE16134780786
:1001100010F060E47FE180E090E040DC13DC80E000
:1001200090E03CDC4B015C01C0900001D0900101EB
:10013000E0900201F0900301A701960196DB02DC3A
:10014000762E062F10E0C0E0D0E0280103C085E045
:1001500081D32196C415D505D0F388E07816D9F05F
:10016000B801882777FD8095982F1ADC9B01AC0198
:10017000C701B601C5DC9B01AC01C501B4010CDBB4
:10018000A701960172DB20E030E040EA50E4B8DCE1
:10019000D9DB862F5FD3C0E0D0E002C080E05AD325
:1001A0002196CE01840D951D88309105B8F3DF911D
:1001B000CF911F910F91FF90EF90DF90CF90BF9064
:1001C000AF909F908F907F905F904F90089581E0C7
:1001D0008DBB83E0809369001092680010926D00DF
:1001E00010926C0010926B0008958A30910528F4EB
:1001F0001092BF011092BE011DC023E28932920706
:1002000018F088E090E012C00A97BC0180E090E00E
:10021000C5DB20E030E040E051E472DC20E038E76C
:100220004CE056E422DB89DBDC01CB019093BF017B
:100230008093BE018FEF90E00090BE0102C0880F56
:10024000991F0A94E2F780954FD408951F920F9258
:100250000FB60F9211244F935F936F937F938F93F9
:100260009F93EF93FF9380918400909185008B3F43
:10027000910530F18091BA019091BB0140918400C9
:1002800050918500FC01EE0FFF1FEE0FFF1FE8529B
:10029000FE4F60E070E040835183628373838F314F
:1002A000910529F41092BB011092BA0105C0019684
:1002B0009093BB018093BA01109285001092840044
:1002C000FF91EF919F918F917F916F915F914F91EE
:1002D0000F900FBE0F901F9018951F920F920FB6A0
:1002E0000F9211244F935F936F937F938F939F93FC
:1002F000EF93FF938091BA019091BB01FC01EE0F47
:10030000FF1FEE0FFF1FE852FE4F4FEF5FEFBA01E6
:1003100040835183628373838F31910529F4109256
:10032000BB011092BA0105C001969093BB01809366
:10033000BA011092850010928400FF91EF919F9175
:100340008F917F916F915F914F910F900FBE0F90A2
:100350001F901895AF92BF92CF92DF92EF92FF92CB
:100360000F931F93CF93DF9300E612E0CC24DD249C
:10037000AA24BB2438C0F801EC0FFD1F80819181B5
:10038000A281B381A70160E070E084179507A607FA
:10039000B70710F47C0159012F5F3F4F249620329C
:1003A000310549F7D8018D919C911197F501EE0F18
:1003B000FF1FEE0FFF1FE05AFD4F40815181628108
:1003C00073814D935D936D937D938D01A0E0B0E0BB
:1003D00080839183A283B3830894C11CD11CB0E2B3
:1003E000CB16D10439F09601C0E0D0E0EE24EA94B7
:1003F000FE2CC1CFDF91CF911F910F91FF90EF9015
:10040000DF90CF90BF90AF900895DC01CB01809337
:10041000D4019093D501A093D601B093D701209336
:10042000C8013093C9014093CA015093CB0108958C
:10043000CF92DF92EF92FF92E8EDF1E0A0E6B2E01A
:1004400041915191619171914D935D936D937D9324
:1004500082E0E835F807A1F77DDFE091BA01F0917D
:10046000BB01EE0FFF1FEE0FFF1FE852FE4FC080D3
:10047000D180E280F3808FEFC8168FEFD80680E03E
:10048000E80680E0F80620F080E090E0DC011BC088
:100490006091D4017091D5018091D6019091D701DE
:1004A0002091C8013091C9014091CA015091CB01FE
:1004B000A9DBCA01B901A7019601A4DBCA01B901F0
:1004C0006DDADC01CB018093C0019093C101A09350
:1004D000C201B093C301C090C001D090C101E090AF
:1004E000C201F090C301C701B6012091CC01309147
:1004F000CD014091CE015091CF014ED925E535E592
:1005000045E051E4AED987FF09C0C092CC01D0923A
:10051000CD01E092CE01F092CF0153C080916002F4
:1005200090916102A0916202B091630280935C029B
:1005300090935D02A0935E02B0935F028091DC0213
:100540009091DD02A091DE02B091DF02809358020B
:1005500090935902A0935A02B0935B02C090A002FC
:10056000D090A102E090A202F090A302C092C40138
:10057000D092C501E092C601F092C7016091D4010A
:100580007091D5018091D6019091D7012091C80139
:100590003091C9014091CA015091CB0133DBCA01AE
:1005A000B901A70196012EDBCA01B901F7D9DC0117
:1005B000CB018093CC019093CD01A093CE01B09359
:1005C000CF016091CC017091CD018091CE019091CD
:1005D000CF0120E030E040E752E492DA20E030E062
:1005E00040E05FE38DDAAED96093D0017093D10122
:1005F0008093D2019093D301FF90EF90DF90CF9042
:10060000089586E060E042D280E024D186E061E097
:100610003DD280E01FD186E062E038D280E01AD17E
:1006200086E063E033D280E015D186E064E02ED22C
:1006300081E110D186E065E029D285E10BD186E029
:1006400066E024D285E106D186E067E01FD28AE029
:1006500001D187E060E01AD280E0FCD087E061E061
:1006600015D280E0F7D087E062E010D28CE1F2D0C2
:1006700087E063E00BD284E1EDD087E064E006D24E
:1006800084E1E8D087E065E001D282E1E3D087E051
:1006900066E0FCD18FE1DED087E067E0F7D181E151
:1006A000D9D0089588E2D6D087E2D4D085EAD2D0D6
:1006B00086E0D0D085EACED080E6CCD089E2CAD020
:1006C000089588E2C7D080E6C5D085EAC3D086E029
:1006D000C1D085EABFD087E2BDD089E2BBD0089502
:1006E00088E2B8D08FEDB6D087E0B4D08FEDB2D02D
:1006F00089E2B0D0089584B1876084B9089527E075
:1007000030E090E02998289865B1AC01022E02C033
:10071000559547950A94E2F74170462B45B9299AB9
:10072000215030404FEF2F3F340761F708958295F5
:10073000880F807E842B6295607F682B862F8F7355
:10074000DEDF2A982A9A2A980895482F4F704093FE
:10075000E0021092E1028091E20260E0E8DF81E0D5
:100760008093E1028091E20261E04091E002DFDFEC
:100770001092E1028091E20260E04091E002D7DF56
:1007800008951092E1021092E2021092E00280E0DD
:1007900060E040E0CCDF8FEF99EFA0E08150904027
:1007A000A040E1F700C0000083E0CFDFAFE1BEE48E
:1007B0001197F1F700C0000083E0C7DF87EB91E0FD
:1007C0000197F1F700C0000083E0BFDFA7ECB0E0C5
:1007D0001197F1F700C0000082E0B7DF87EC90E0EE
:1007E0000197F1F700C0000082E0AFDF88E0ADDFE5
:1007F000AFE9BFE01197F1F700C0000080E0A5DF8E
:100800008CE0A3DF8FE99FE00197F1F700C00000C3
:1008100080E09BDF86E099DFAFE9BFE01197F1F759
:1008200000C0000080E091DF81E08FDF8FE39FE177
:100830000197F1F700C0000080E087DF82E085DFEC
:10084000AFE3BFE11197F1F700C0000081E08093B2
:10085000E2020895CF93C82F82958F7076DF8C2F98
:100860008F7073DF87EC90E00197F1F700C0000014
:10087000CF9108951092E202982F91709295990F5E
:10088000990F907C9068869524E1829F802D112499
:10089000860F892BDFDF81E08093E2020895CF93FA
:1008A000DF93EC0101C0D6DF89918823E1F7DF9166
:1008B000CF9108952F923F924F925F926F927F92C5
:1008C0008F929F92AF92BF92CF92DF92EF92FF9260
:1008D0000F931F93CF93DF93CDB7DEB728970FB653
:1008E000F894DEBF0FBECDBF6B017C011A01290158
:1008F00080E090E04C010EC0C701B60120E030E07E
:1009000040E251E4FDD8C62ED72EE82EF92E0894E9
:10091000811C911C8414950479F70130110571F440
:10092000C701B60120E030E0A9019BD787FF1AC0BC
:100930008DE290DFF7FAF094F7F8F09400E010E021
:10094000662477249201220D331D3A832983215096
:1009500030403C832B83C10101979E838D83788631
:100960006F8264C08BE276DFE9CF0215130529F4AC
:100970004114510411F08EE26DDF380181E0882EC0
:10098000912CA12CB12CC501B40105C02AE030E0A6
:1009900040E050E018D90894611C711CE981FA818B
:1009A0006E167F0698F34B015C01F8D79B01AC01F2
:1009B000C701B6015AD7C6D7DC01CB013C012F8154
:1009C00038852115310579F481E090E098878F838F
:1009D0006114710461F4ED81FE810E171F0739F077
:1009E00018861F8204C021E030E038872F83B301CE
:1009F00080E090E0A5019401E6D8D0D79B01AC013E
:100A0000C701B601C9D66B01E82EF92EEF81F88532
:100A1000309729F42B813C810217130719F4862D96
:100A2000805D01C080E216DF0F5F1F4F8B819C81CC
:100A30008017910708F099CF28960FB6F894DEBF7B
:100A40000FBECDBFDF91CF911F910F91FF90EF901F
:100A5000DF90CF90BF90AF909F908F907F906F90DE
:100A60005F904F903F902F9008951092E20280E0A7
:100A70006CDE81E06ADE85E38A95F1F7000081E0B3
:100A80008093E20280E060E0F5DE08951092E202D9
:100A90006064880F880F880F862BDCDE81E08093EE
:100AA000E202089584B1886384B9089527E030E0B4
:100AB00090E02C982B9865B1AC01022E02C05595A0
:100AC00047950A94E2F74170507073E0440F551F48
:100AD0007A95E1F7642B65B92C9A215030404FEF9D
:100AE0002F3F340731F70895E1DF2D982D9A2D9887
:100AF000089586E08093F10285E08093F20283E01E
:100B00008093F3021092F40208951F920F920FB691
:100B10000F921124F89480E060E0ACDE84E091E074
:100B2000BEDEFFCF81E884BD84E085BD85E0809393
:100B30006E0016BC80E887BD80E288BD85B590E078
:100B40008770907083309105B1F0843091053CF44A
:100B500081309105F9F082309105E1F407C08430CD
:100B6000910571F085309105A9F40FC088E090E0FF
:100B7000A0E0B0E013C080E490E0A0E0B0E00EC0E0
:100B800080E091E0A0E0B0E009C080E094E0A0E067
:100B9000B0E004C081E090E0A0E0B0E08093F50216
:100BA0009093F602A093F702B093F8020895109282
:100BB000800083E0809381001092820081E0809326
:100BC0006F0010928500109284008FEF9FEF90933A
:100BD0008900809388008091810090E087709070F8
:100BE00083309105B1F0843091053CF4813091055A
:100BF000F9F082309105E1F407C08430910571F07D
:100C000085309105A9F40FC088E090E0A0E0B0E045
:100C100013C080E490E0A0E0B0E00EC080E091E07E
:100C2000A0E0B0E009C080E094E0A0E0B0E004C043
:100C300081E090E0A0E0B0E0809307039093080388
:100C4000A0930903B0930A030895FC0120E030E06B
:100C500002C02F5F3F4F81918823D9F7C9010895C2
:100C60001F93CF93DF93C1EFD2E010E0812F60E0BC
:100C700001DEE991F0E0EE0FFF1FED51FD4F8081A5
:100C800091810DDE1F5F143089F7DF91CF911F91A5
:100C900008951F920F920FB60F921124EF92FF92B8
:100CA0000F931F932F933F934F935F936F937F9374
:100CB0008F939F93AF93BF93CF93DF93EF93FF9364
:100CC00020D1E82EFF24A1EFB2E0C0E0D0E0ED910A
:100CD000F0E0E155FE4F808190E0E816F906F9F466
:100CE00000E010E0CC0FDD1FCC0FDD1FC55FDC4F37
:100CF00021D1FE01E00FF11F80830F5F1F4F0430F1
:100D00001105B1F7E091F202F0E0E155FE4F80816C
:100D100090E0E816F90639F4A6D096D004C02196E2
:100D2000C430D105A1F6FF91EF91DF91CF91BF9132
:100D3000AF919F918F917F916F915F914F913F9173
:100D40002F911F910F91FF90EF900F900FBE0F907A
:100D50001F9018951F920F920FB60F9211242F9388
:100D60003F934F935F936F937F938F939F93AF9333
:100D7000BF93EF93FF9380913003909131030196DD
:100D800090933103809330038091D0019091D101F1
:100D90002CDAFF91EF91BF91AF919F918F917F914D
:100DA0006F915F914F913F912F910F900FBE0F90D8
:100DB0001F9018951F920F920FB60F9211242F9328
:100DC0003F934F935F936F937F938F939F93AF93D3
:100DD000BF93EF93FF9380E087DEFF91EF91BF9188
:100DE000AF919F918F917F916F915F914F913F91C3
:100DF0002F910F900FBE0F901F901895CF92DF92FA
:100E0000EF92FF92CF93DF93EC0180E090E0C6D5A4
:100E10006B017C01BE0180E090E0C0D59B01AC017C
:100E2000C701B60122D5DC01CB0180933C0390932E
:100E30003D03A0933E03B0933F03DF91CF91FF901A
:100E4000EF90DF90CF90089580918400909185007D
:100E5000A0E0B0E08093340390933503A093360371
:100E6000B093370308950F931F938091840090915E
:100E70008500A0E0B0E08093380390933903A093FD
:100E80003A03B0933B030091340310913503209152
:100E9000360330913703AC01BD01401B510B620B8F
:100EA000730B081719072A073B0720F440505040DE
:100EB0006F4F7F4FCB01BA0171D520913C03309128
:100EC0003D0340913E0350913F031AD63BD51F91FD
:100ED0000F9108959093C5008093C40080E980939A
:100EE000C10086E28093C2001092C00008959091E4
:100EF000C00095FFFCCF8093C60008958091C60086
:100F000008958091C00087FFFCCF2091C0008091A0
:100F1000C00090E08470907030E020713070822BBF
:100F2000932B009719F48091C60008958091C60014
:100F30008FEF089580E095E02091C00027FF15C055
:100F40002091C0008091C00090E08470907030E0EB
:100F500020713070822B932B009719F48091C6007A
:100F600008958091C6008FEF0895019729F78FEFBC
:100F70000895CF93DF93CDB7DEB7C156D0400FB6FB
:100F8000F894DEBF0FBECDBFB6DB8CDDFADBCADD69
:100F9000569A0DDE83E390E09DDF19D96091070337
:100FA0007091080380E094E229DF209107033091DB
:100FB00008034091090350910A0360E074E284EF52
:100FC00090E023DA53D81DDB94DD6091F502709137
:100FD000F6028091F7029091F802E0D49B01AC01F7
:100FE00060E074E284E79BE440D420E030E046E136
:100FF00053E486D520E030E04AE754E436D420E0DC
:1010000030E040E85BE37CD59DD4DC01CB019093DC
:10101000330380933203DE01D996E4E8F1E08EE0F9
:1010200001900D928150E1F7DE019B96E2E9F1E03B
:101030008EE001900D928150E1F7DE019496E0EA96
:10104000F1E087E001900D928150E1F7DE015D96BD
:10105000E7EAF1E087E001900D928150E1F781E04D
:101060008E8B1F8A188E198E1A8E1B8E1C8E80E511
:1010700091E09093E4028093E30286E591E09093FF
:10108000E6028093E5028CE591E09093E80280937C
:10109000E70282E691E09093EA028093E90289E612
:1010A00091E09093EC028093EB028FE691E09093B5
:1010B000EE028093ED0285E791E09093F002809339
:1010C000EF0244E2A42EB12CAC0EBD1E5DE1852ED4
:1010D000912C8C0E9D1E00E010E06BE0F62E2EC0D1
:1010E0004F5F242F30E028173907D4F3F801EE0FB3
:1010F000FF1FED51FD4F80819181A7DDF801E55E75
:10110000FC4F8083AFE0B0E0AC0FBD1FA00FB11F5C
:101110009F2D9E1921E0EC1409F420E0921B981BEE
:10112000E6E1F0E0EC0FFD1FE00FF11F8081981B5E
:101130009C930F5F1F4F0730110561F0D501ED90B3
:101140005D01F401C1904F018E2D90E08C19910941
:1011500040E0C7CF81E090E09A87898780E190E006
:101160009C878B8780E091E09E878D8700E010E070
:1011700021E0E22EF12CC701002E02C0880F991F3A
:101180000A94E2F7B1DC2FEF3DEE42E0215030400F
:101190004040E1F700C000000F5F1F4F093011050C
:1011A00051F78FEF90E7A2E081509040A040E1F727
:1011B00000C0000081E060E05DDB0BE311E090E047
:1011C000D8018D918D01A2969FAFA29743DB2FEF9F
:1011D00039EF40E0215030404040E1F700C00000CE
:1011E000A2969FADA2979F5F943151F782E060E095
:1011F00041DB06E211E090E0D8018D918D01A296CD
:101200009FAFA29727DB2FEF39EF40E0215030400E
:101210004040E1F700C00000A2969FADA2979F5FFB
:10122000943151F783E060E025DB01E111E090E0CB
:10123000D8018D918D01A2969FAFA2970BDB2FEF66
:1012400039EF40E0215030404040E1F700C000005D
:10125000A2969FADA2979F5F943151F700E010E0F6
:101260009FEFE92EF12CC701002E02C0880F991FB5
:101270000A94E2F7809538DC8FEF96E7A1E0815081
:101280009040A040E1F700C000000F5F1F4F093001
:10129000110549F72FEF34E34CE021503040404036
:1012A000E1F700C0000000E010E08FEFE82EF12C25
:1012B000C701002E02C0959587950A94E2F714DCC9
:1012C0008FEF96E7A1E081509040A040E1F700C089
:1012D00000000F5F1F4F0930110551F72FEF30E766
:1012E00042E0215030404040E1F700C000008FEF65
:1012F000FBDB8FE799EAA3E081509040A040E1F743
:1013000000C0000080E0F0DB2FE739EA43E0215025
:1013100030404040E1F700C000008FEFE5DB8FE791
:1013200099EAA3E081509040A040E1F700C000009E
:1013300080E0DADB2FE739EA43E0215030404040DB
:10134000E1F700C0000000E0802F60E093DA14E1D4
:1013500080E280DA8FE59AEE0197F1F700C0000095
:101360001150B1F70F5F043079F778948091AE0196
:10137000882389F075DC2091B80130E0C9018370C1
:1013800090709595879520FF02C068E001C067E0E6
:1013900071DA1092AE01A1EFB2E06B96BFAFAEAFC3
:1013A0006B97FE0135966F96FFAFEEAF6F979E017C
:1013B000295B3F4F6D963FAF2EAF6D971BE0612EBF
:1013C00013E0712E29014F01A196BFAFAEAFA197D7
:1013D000AA24BB2433243394AE01475F5F4F699640
:1013E0005FAF4EAF6997A196AEADBFADA1970D911E
:1013F000A196BFAFAEAFA19780E090E0F301E80FF8
:10140000F91F2181322F3154363018F020532A3001
:1014100038F4F401308201968330910579F702C0E7
:10142000D4011C92F40181914F01813009F06EC00A
:10143000F501EE0FFF1FEE0FFF1FE45FFC4FDE0113
:101440001296BE01615F7F4FEE24FF246F01F6010B
:1014500081916F01282F30E0207F307020333105DB
:1014600011F48F7005C020343105C9F48F70875F87
:101470008C938D9190E0FB0132912291BF01829F6C
:10148000A001839F500D929F500D1124E40EF51E74
:1014900069962EAD3FAD6997E217F307C1F610E0EC
:1014A000B70180E090E07AD220E030E043E155E4FB
:1014B000DCD16B017C01000F111F41E050E04C0FAB
:1014C0005D1F040F151FD801D8966D917C91D99797
:1014D00080E090E063D29B01AC01C701B60110D35C
:1014E0006B017C01F80162A573A5882777FD8095C3
:1014F000982F56D29B01AC01C701B6014ED1DC0139
:10150000CB01F20180839183A283B3830894A11C51
:10151000B11C24E030E0420E531E620E731E34E014
:10152000A316B10409F05FCF83D76093D001709305
:10153000D1018093D2019093D301693843E17407BC
:1015400040E0840740E0940790F428D220E030E4A3
:101550004CE955E48AD120E030E04FE753E4D0D2A3
:1015600020E030E040E952E418D1ECD101C06FEF47
:1015700067BD2091BC013091BD01B90160957095A6
:1015800040913203509133034617570748F4809136
:10159000300390913103821B930B4817590770F069
:1015A0006417750708F0D6C080913003909131031D
:1015B000860F971F4817590708F0CCC08091300359
:1015C000909131039093BD018093BC01EE244AE0D9
:1015D000642E712C6B96AEADBFAD6B97CD906B96B4
:1015E000BFAFAEAF6B97DD248601055E1C4F8E2D1D
:1015F000F80160813FD9FF2403C080E22BD9F39426
:10160000D8016C918F2D90E09301261B310928178A
:1016100039079CF78E2D2ED9FF240FE010E00C0F18
:101620001D1F0C0D1D1D03C080E214D9F394F80199
:101630008081F816C8F36F96AEADBFAD6F978D91F0
:101640006F96BFAFAEAF6F97813021F5EDE1F0E05F
:10165000EC0FFD1FEC0DFD1D40816D96EEADFFAD55
:101660006D976081718182819381E4E2F0E0EC0FFB
:10167000FD1FEC0DFD1D208130E0241B3109E6E14A
:10168000F0E0EC0FFD1FEC0DFD1D008150E010E0BF
:1016900011D936C0882329F033C080E2DBD81F5F20
:1016A00015C010E024E2A22EB12CAC0EBD1EAC0C75
:1016B000BD1C3DE1832E912C8C0E9D1E8C0C9D1C1F
:1016C00026E130E02C0F3D1FC20ED31ED5010C9138
:1016D000212F30E081E090E0F4014081041711F403
:1016E00080E090E0D6014C91840F911D28173907B6
:1016F000A4F210E003C08AE2ADD81F5F1017D9F73B
:10170000E3946D96EEADFFAD6D9734966D96FFAF99
:10171000EEAF6D97F4E0EF1609F05CCF82E06DE07C
:10172000A9D88091D0019091D1012BE0883B9207FC
:1017300010F4B8D70AC033E18838930710F4C1D742
:1017400004C0CED78DE791E0AAD882E06CE092D8B1
:101750008FEF04C082E06CE08DD880E27BD880E01F
:101760006CE088D86091D0017091D10180E090E068
:1017700015D145E050E020E030E000E010E09AD8DC
:1017800080E891E08CD883E06CE074D88091D0013F
:101790009091D101AAD4EACD5058BB27AA270ED0E8
:1017A00075C166D130F06BD120F031F49F3F11F458
:1017B0001EF45BC10EF4E095E7FB51C1E92F77D130
:1017C00080F3BA17620773078407950718F071F45E
:1017D0009EF58FC10EF4E0950B2EBA2FA02D0B01B4
:1017E000B90190010C01CA01A0011124FF27591B66
:1017F00099F0593F50F4503E68F11A16F040A22F6C
:10180000232F342F4427585FF3CF469537952795DC
:10181000A795F0405395C9F77EF41F16BA0B620BDB
:10182000730B840BBAF09150A1F0FF0FBB1F661F22
:10183000771F881FC2F70EC0BA0F621F731F841F65
:1018400048F4879577956795B795F7959E3F08F08B
:10185000B3CF9395880F08F09927EE0F979587954A
:101860000895D9D008F481E008950CD00FC107D1B4
:1018700040F0FED030F021F45F3F19F0F0C051117C
:1018800039C1F3C014D198F39923C9F35523B1F3A7
:10189000951B550BBB27AA2762177307840738F0DF
:1018A0009F5F5F4F220F331F441FAA1FA9F333D03E
:1018B0000E2E3AF0E0E830D091505040E695001CF2
:1018C000CAF729D0FE2F27D0660F771F881FBB1FAE
:1018D000261737074807AB07B0E809F0BB0B802D88
:1018E000BF01FF2793585F4F2AF09E3F510568F0D4
:1018F000B6C000C15F3FECF3983EDCF38695779568
:101900006795B795F7959F5FC9F7880F911D9695D5
:10191000879597F90895E1E0660F771F881FBB1F31
:10192000621773078407BA0720F0621B730B840BDE
:10193000BA0BEE1F88F7E095089504D06894B111B2
:10194000D9C00895BCD088F09F5790F0B92F99273F
:10195000B751A0F0D1F0660F771F881F991F1AF0BA
:10196000BA95C9F712C0B13081F0C3D0B1E0089583
:10197000C0C0672F782F8827B85F39F0B93FCCF304
:10198000869577956795B395D9F73EF490958095B0
:10199000709561957F4F8F4F9F4F0895E89409C0D0
:1019A00097FB3EF490958095709561957F4F8F4F92
:1019B0009F4F9923A9F0F92F96E9BB279395F695A8
:1019C000879577956795B795F111F8CFFAF4BB0F26
:1019D00011F460FF1BC06F5F7F4F8F4F9F4F16C08A
:1019E000882311F096E911C0772321F09EE8872F14
:1019F000762F05C0662371F096E8862F70E060E0D0
:101A00002AF09A95660F771F881FDAF7880F969548
:101A1000879597F90895990F0008550FAA0BE0E8EC
:101A2000FEEF16161706E807F907C0F012161306A0
:101A3000E407F50798F0621B730B840B950B39F4E0
:101A40000A2661F0232B242B252B21F408950A2646
:101A500009F4A140A6958FEF811D811D089597F986
:101A60009F6780E870E060E008959FEF80EC089544
:101A700000240A941616170618060906089500246D
:101A80000A9412161306140605060895092E0394E7
:101A9000000C11F4882352F0BB0F40F4BF2B11F45B
:101AA00060FF04C06F5F7F4F8F4F9F4F089557FDBA
:101AB0009058440F551F59F05F3F71F04795880FBC
:101AC00097FB991F61F09F3F79F087950895121653
:101AD00013061406551FF2CF4695F1DF08C01616FF
:101AE00017061806991FF1CF8695710561050894B0
:101AF0000895E894BB2766277727CB0197F90895C7
:101B00000BD0C4CFB5DF28F0BADF18F0952309F069
:101B1000A6CFABCF1124EECFCADFA0F3959FD1F3B0
:101B2000950F50E0551F629FF001729FBB27F00D8B
:101B3000B11D639FAA27F00DB11DAA1F649F6627E0
:101B4000B00DA11D661F829F2227B00DA11D621F2F
:101B5000739FB00DA11D621F839FA00D611D221FE9
:101B6000749F3327A00D611D231F849F600D211DCD
:101B7000822F762F6A2F11249F5750408AF0E1F070
:101B800088234AF0EE0FFF1FBB1F661F771F881FB9
:101B900091505040A9F79E3F510570F060CFAACFF9
:101BA0005F3FECF3983EDCF3869577956795B795A4
:101BB000F795E7959F5FC1F7FE2B880F911D9695CE
:101BC000879597F90895629FD001739FF001829FD6
:101BD000E00DF11D649FE00DF11D929FF00D839FBC
:101BE000F00D749FF00D659FF00D9927729FB00D59
:101BF000E11DF91F639FB00DE11DF91FBD01CF016C
:101C000011240895A1E21A2EAA1BBB1BFD010DC0D1
:101C1000AA1FBB1FEE1FFF1FA217B307E407F5079C
:101C200020F0A21BB30BE40BF50B661F771F881F78
:101C3000991F1A9469F760957095809590959B010E
:0C1C4000AC01BD01CF010895F894FFCF66
:101C4C0000007A44424144495352204552524F526B
:101C5C00002020204669726D77617265205265768E
:101C6C002E352020200020772F204675656C50756E
:101C7C006D702044726976657220004D756C7469C4
:101C8C002D46756E6374696F6E204D6574657200B8
:101C9C00424F4F535400544143484F004F494C2E30
:101CAC0050004655454C2E50004558542E54004F6C
:101CBC00494C2E540057415445522E5400202000BC
:101CCC0052504D00030028230A00060084036400D0
:101CDC006400FFFF000000000000C8003200140088
:101CEC0003040303040303010402010403030101BD
:0A1CFC0002030405070FFFFF0400B8
:00000001FF
