:1000000019C0E0C111C831C030C02FC02EC0DDC73B
:100010002CC0A6C72AC029C028C01BC226C025C024
:1000200024C023C02DC721C020C01FC01EC01DC0BA
:100030001CC01BC011241FBECFEFD4E0DEBFCDBF5C
:1000400011E0A0E0B1E0EAE7FEE102C005900D9208
:10005000A43DB107D9F712E0A4EDB1E001C01D92B3
:10006000A339B107E1F7C7D806CF18C680E280935D
:100070007C0087EE80937A0010927B000895DF92D7
:10008000EF92FF920F931F93CF93DF9300E010E066
:100090008FE1E82EF12C1EC0802F6C2FC0D59E0161
:1000A000225030402430310510F48D2D09C0C1306C
:1000B000D10519F0C630D10511F480E001C080E10E
:1000C00092D42196C830D10539F70F5F1F4F063003
:1000D000110561F0C701002E02C0959587950A941D
:1000E000E2F7D82ED094C0E0D0E0D6CFDF91CF9108
:1000F0001F910F91FF90EF90DF9008959F92AF9224
:10010000BF92CF92DF92EF92FF920F931F93CF9304
:10011000DF93BC018FE16134780710F060E47FE188
:1001200080E090E04EDD21DD80E090E04ADD6B0173
:100130007C0120E030E04AE754E4AFDC16DD962E87
:10014000062F10E0C0E0D0E0580103C085E04BD49A
:100150002196CA15DB05D0F388E09816E9F0B801BE
:10016000882777FD8095982F2EDD20E030E04AE744
:1001700054E4DDDD9B01AC01C701B60125DC20E0C4
:1001800030E04AE754E489DC20E030E040EA50E423
:10019000CEDDEBDC862F27D4C0E0D0E002C080E0CB
:1001A00022D42196CE018A0D9B1D88309105B8F38B
:1001B000DF91CF911F910F91FF90EF90DF90CF9043
:1001C000BF90AF909F90089583E08DBB5B9A8FE0C6
:1001D000809369001092680010926D0010926C007C
:1001E00010926B0008958F929F92AF92BF92CF9220
:1001F000DF92EF92FF920F931F93CF93DF934B0108
:100200005C01C801B70121E0C216D10409F442C063
:100210002DEC3CEC4CEC5DEB86DD1816DCF182EB52
:1002200088168CE0980680E0A80680E0B80690F575
:1002300021E2821623E0920620E0A20620E0B20628
:1002400038F0C501B401605273408040904003C053
:1002500060E070E0CB01C091D401D091D501C656C9
:10026000DF4FAFDC20E030E249E155E416DC20E06E
:1002700030E04AEC52E45BDD78DCAB01BC01C40F3A
:10028000D51FAE0160E070E04F3F5105610571057B
:1002900029F020F04FEF50E060E070E0CA01DF91FC
:1002A000CF911F910F91FF90EF90DF90CF90BF9073
:1002B000AF909F908F90089587E791E09093F4011D
:1002C0008093F30108952091DA013091DB01A901B7
:1002D00046505F4F4817590728F02A5F3040821771
:1002E000930720F49093DB018093DA012BE18835AA
:1002F0009207F8F080E48093B3008091D801909148
:10030000D9018931910579F41092D9011092D8015F
:100310008091020190910301809590959093030143
:10032000809302010FC001969093D9018093D80168
:1003300009C08FEF90E0909303018093020188E061
:100340008093B3006091DA017091DB018FE0603A35
:10035000780728F41092F6011092F50124C02FE0DE
:10036000603A720719F481E090E019C08BE16935B9
:10037000780718F088E090E012C0605A7F4080E073
:1003800090E01FDC20E030E040E051E4D0DC20E0F1
:1003900030E84BE355E481DBE8DBDC01CB019093F3
:1003A000F6018093F5018FEF90E00090F50102C017
:1003B000880F991F0A94E2F7809590910201892392
:1003C0005CD408951F920F920FB60F9211244F9391
:1003D0005F936F937F938F939F93EF93FF9380919E
:1003E0008400909185008536910530F18091DC0183
:1003F0009091DD014091840050918500FC01EE0F49
:10040000FF1FEE0FFF1FE55FFD4F60E070E04083D0
:100410005183628373838730910529F41092DD0143
:100420001092DC0105C001969093DD018093DC0100
:100430001092850010928400FF91EF919F918F910F
:100440007F916F915F914F910F900FBE0F901F9012
:1004500018951F920F920FB60F9211244F935F932E
:100460006F937F938F939F93EF93FF938091DC0122
:100470009091DD01FC01EE0FFF1FEE0FFF1FE55F06
:10048000FD4F4FEF5FEFBA01408351836283738367
:100490008730910529F41092DD011092DC0105C02E
:1004A00001969093DD018093DC01109285001092FB
:1004B0008400FF91EF919F918F917F916F915F9158
:1004C0004F910F900FBE0F901F901895AF92BF9253
:1004D000CF92DF92EF92FF920F931F93CF93DF9310
:1004E00003E312E0CC24DD24AA24BB2438C0F801A5
:1004F000EC0FFD1F80819181A281B381A70160E093
:1005000070E084179507A607B70710F47C0159011E
:100510002F5F3F4F24962830310549F7D8018D9140
:100520009C911197F501EE0FFF1FEE0FFF1FED5C81
:10053000FD4F40815181628173814D935D936D9335
:100540007D938D01A0E0B0E080839183A283B3838B
:100550000894C11CD11CB8E0CB16D10439F0960127
:10056000C0E0D0E0EE24EA94FE2CC1CFDF91CF9121
:100570001F910F91FF90EF90DF90CF90BF90AF90C1
:100580000895DC01CB018093070290930802A093A9
:100590000902B0930A022093FF01309300024093B6
:1005A00001025093020208958F929F92AF92BF92E0
:1005B000CF92DF92EF92FF92EBE0F2E0A3E3B2E0A2
:1005C00041915191619171914D935D936D937D93A3
:1005D00082E0EB32F807A1F779DFE091DC01F091DE
:1005E000DD01EE0FFF1FEE0FFF1FE55FFD4FC08027
:1005F000D180E280F3808FEFC8168FEFD80680E0BD
:10060000E80680E0F80620F080E090E0DC011BC006
:1006100060910702709108028091090290910A028C
:100620002091FF013091000240910102509102029D
:1006300000DCCA01B901A7019601FBDBCA01B901BF
:10064000C0DADC01CB018093F7019093F801A0930D
:10065000F901B093FA01C090F701D090F801E09051
:10066000F901F090FA01C701B6012091030230911F
:1006700004024091050250910602A6D925E535E510
:1006800045E850E406DA87FF09C0C0920302D09221
:100690000402E0920502F092060258C080913302F3
:1006A00090913402A0913502B091360280932F02CE
:1006B00090933002A0933102B093320280914F02A6
:1006C00090915002A0915102B091520280932B025E
:1006D00090932C02A0932D02B0932E02C09043025F
:1006E000D0904402E0904502F0904602C092FB0197
:1006F000D092FC01E092FD01F092FE0160910702B0
:10070000709108028091090290910A022091FF01E4
:100710003091000240910102509102028ADBCA012D
:10072000B9014FDA4B015C01C701B6014ADA9B01FE
:10073000AC01C501B401B1D9DC01CB018093030246
:1007400090930402A0930502B09306026091030205
:1007500070910402809105029091060220E030E041
:1007600040E752E4E4DA20E030E040E05FE3DFDA43
:10077000FCD96093E1017093E2018093E3019093CF
:10078000E401FF90EF90DF90CF90BF90AF909F90EB
:100790008F90089586E060E042D280E024D186E028
:1007A00061E03DD280E01FD186E062E038D280E097
:1007B0001AD186E063E033D280E015D186E064E0B0
:1007C0002ED281E110D186E065E029D285E10BD1FE
:1007D00086E066E024D285E106D186E067E01FD29C
:1007E0008AE001D187E060E01AD280E0FCD087E0A7
:1007F00061E015D280E0F7D087E062E010D28CE1B2
:10080000F2D087E063E00BD284E1EDD087E064E0D2
:1008100006D284E1E8D087E065E001D282E1E3D04E
:1008200087E066E0FCD18FE1DED087E067E0F7D1BA
:1008300081E1D9D0089588E2D6D087E2D4D085EA84
:10084000D2D086E0D0D085EACED080E6CCD089E286
:10085000CAD0089588E2C7D080E6C5D085EAC3D063
:1008600086E0C1D085EABFD087E2BDD089E2BBD0A7
:10087000089588E2B8D08FEDB6D087E0B4D08FED80
:10088000B2D089E2B0D0089584B1876084B9089568
:1008900027E030E090E02998289865B1AC01022E5D
:1008A00002C0559547950A94E2F74170462B45B929
:1008B000299A215030404FEF2F3F340761F70895B8
:1008C0008295880F807E842B6295607F682B862FAF
:1008D0008F73DEDF2A982A9A2A980895482F4F703E
:1008E00040935302109254028091550260E0E8DF79
:1008F00081E0809354028091550261E0409153025F
:10090000DFDF109254028091550260E04091530263
:10091000D7DF08951092540210925502109253029C
:1009200080E060E040E0CCDF8FEF99EFA0E0815005
:100930009040A040E1F700C0000083E0CFDFAFE1CE
:10094000BEE41197F1F700C0000083E0C7DF87EB3A
:1009500091E00197F1F700C0000083E0BFDFA7EC52
:10096000B0E01197F1F700C0000082E0B7DF87EC3C
:1009700090E00197F1F700C0000082E0AFDF88E06F
:10098000ADDFAFE9BFE01197F1F700C0000080E0F4
:10099000A5DF8CE0A3DF8FE99FE00197F1F700C0AE
:1009A000000080E09BDF86E099DFAFE9BFE01197B0
:1009B000F1F700C0000080E091DF81E08FDF8FE37E
:1009C0009FE10197F1F700C0000080E087DF82E03F
:1009D00085DFAFE3BFE11197F1F700C0000081E0D0
:1009E000809355020895CF93C82F82958F7076DF3C
:1009F0008C2F8F7073DF87EC90E00197F1F700C0C8
:100A00000000CF91089510925502982F9170929501
:100A1000990F990F907C9068869524E1829F802D94
:100A20001124860F892BDFDF81E080935502089522
:100A3000CF93DF93EC0101C0D6DF89918823E1F7E2
:100A4000DF91CF9108952F923F924F925F926F92D4
:100A50007F928F929F92AF92BF92CF92DF92EF924E
:100A6000FF920F931F93CF93DF93CDB7DEB72897F5
:100A70000FB6F894DEBF0FBECDBF6B017C011A012B
:100A8000290180E090E04C010EC0C701B60120E0D2
:100A900030E040E251E44BD9C62ED72EE82EF92E95
:100AA0000894811C911C8414950479F70130110578
:100AB00071F4C701B60120E030E0A901EAD787FF51
:100AC0001AC08DE290DFF7FAF094F7F8F09400E0A6
:100AD00010E0662477249201220D331D3A83298386
:100AE000215030403C832B83C10101979E838D832D
:100AF00078866F8264C08BE276DFE9CF021513053A
:100B000029F44114510411F08EE26DDF380181E0C7
:100B1000882E912CA12CB12CC501B40105C02AE06E
:100B200030E040E050E066D90894611C711CE98116
:100B3000FA816E167F0698F34B015C0142D89B0147
:100B4000AC01C701B601A9D710D8DC01CB013C012B
:100B50002F8138852115310579F481E090E098875F
:100B60008F836114710461F4ED81FE810E171F07FC
:100B700039F018861F8204C021E030E038872F83C7
:100B8000B30180E090E0A501940134D91AD89B010B
:100B9000AC01C701B60118D76B01E82EF92EEF8121
:100BA000F885309729F42B813C810217130719F43B
:100BB000862D805D01C080E216DF0F5F1F4F8B81A5
:100BC0009C818017910708F099CF28960FB6F8946A
:100BD000DEBF0FBECDBFDF91CF911F910F91FF9070
:100BE000EF90DF90CF90BF90AF909F908F907F90CD
:100BF0006F905F904F903F902F9008951092550204
:100C000080E06CDE81E06ADE85E38A95F1F7000022
:100C100081E08093550280E060E0F5DE0895109257
:100C200055026064880F880F880F862BDCDE81E018
:100C300080935502089584B1886384B9089527E0AC
:100C400030E090E02C982B9865B1AC01022E02C0E8
:100C5000559547950A94E2F74170507073E0440F40
:100C6000551F7A95E1F7642B65B92C9A21503040D5
:100C70004FEF2F3F340731F70895E1DF2D982D9A7C
:100C80002D98089586E08093560285E08093570260
:100C900083E0809358021092590208951F920F9298
:100CA0000FB60F921124F89480E060E0ACDE84E08F
:100CB00091E0BEDEFFCF83E284BD8AE085BD109265
:100CC0006E0016BC8FEF87BD88BD85B590E087703C
:100CD000907083309105B1F0843091053CF48130FF
:100CE0009105F9F082309105E1F407C08430910557
:100CF00071F085309105A9F40FC088E090E0A0E084
:100D0000B0E013C080E490E0A0E0B0E00EC080E06E
:100D100091E0A0E0B0E009C080E094E0A0E0B0E0A5
:100D200004C081E090E0A0E0B0E080935A0290938C
:100D30005B02A0935C02B0935D0208951092800064
:100D400083E0809381001092820081E080936F00A5
:100D500010928500109284008FEF9FEF909389008E
:100D6000809388008091810090E08770907083303C
:100D70009105B1F0843091053CF481309105F9F092
:100D800082309105E1F407C08430910571F085301F
:100D90009105A9F40FC088E090E0A0E0B0E013C096
:100DA00080E490E0A0E0B0E00EC080E091E0A0E040
:100DB000B0E009C080E094E0A0E0B0E004C081E0D1
:100DC00090E0A0E0B0E08093600290936102A09375
:100DD0006202B093630208951092B00087E080939E
:100DE000B10083E0809370001092B20088E080939D
:100DF000B3008091B10090E08770907084309105CD
:100E0000F1F0853091053CF48230910571F083302A
:100E1000910584F428C086309105D9F0863091057B
:100E20009CF087309105F9F419C088E090E0A0E0CB
:100E3000B0E01DC080E290E0A0E0B0E018C080E427
:100E400090E0A0E0B0E013C080E890E0A0E0B0E067
:100E50000EC080E091E0A0E0B0E009C080E094E046
:100E6000A0E0B0E004C081E090E0A0E0B0E08093BA
:100E7000760290937702A0937802B0937902089556
:100E80001F920F920FB60F9211242F933F934F93FF
:100E90005F936F937F938F939F93AF93BF93EF93E2
:100EA000FF9371D1482F50E09A01207F30702115B7
:100EB0003105D9F4A6E5B2E080E090E0ED91F0E0F4
:100EC000E456FE4F208130E04217530749F49093D7
:100ED0005F0280935E0210929701109296012FC0DC
:100EE00001968430910551F72AC0209196013091E6
:100EF00097012430310518F540915E0250915F0250
:100F0000FA01EE0FFF1FEE0FFF1FE20FF31FEA596A
:100F1000FD4F80832330310561F44F575D4F81E0F1
:100F2000FA0180838FEF90E0909397018093960170
:100F300006C02F5F3F4F3093970120939601FF919A
:100F4000EF91BF91AF919F918F917F916F915F9141
:100F50004F913F912F910F900FBE0F901F901895BA
:100F60001F920F920FB60F9211242F933F934F931E
:100F70005F936F937F938F939F93AF93BF93EF9301
:100F8000FF9380918502909186020196909386024C
:100F900080938502EAE7F0E080818064808380911D
:100FA000E1019091E2018FD9FF91EF91BF91AF9153
:100FB0009F918F917F916F915F914F913F912F9171
:100FC0000F900FBE0F901F9018951F920F920FB6A3
:100FD0000F9211242F933F934F935F936F937F93BF
:100FE0008F939F93AF93BF93EF93FF9380E045DE82
:100FF000FF91EF91BF91AF919F918F917F916F91F1
:101000005F914F913F912F910F900FBE0F901F90C6
:101010001895FC0120E030E002C02F5F3F4F819126
:101020008823D9F7C90108951F920F920FB60F9226
:1010300011248F938091DE01882321F481E0809335
:10104000DE0102C01092DE018F910F900FBE0F9053
:101050001F9018951F93CF93DF93C6E5D2E010E061
:10106000812F60E0D0DCE991F0E0EE0FFF1FEB5143
:10107000FE4F80819181DCDC1F5F143089F7DF91A6
:10108000CF911F910895CF92DF92EF92FF92CF936D
:10109000DF93EC0180E090E094D56B017C01BE0110
:1010A00080E090E08ED59B01AC01C701B601F5D47C
:1010B000DC01CB0180938F0290939002A093910268
:1010C000B0939202DF91CF91FF90EF90DF90CF909D
:1010D00008958091840090918500A0E0B0E0809315
:1010E000870290938802A0938902B0938A020895A0
:1010F0000F931F938091840090918500A0E0B0E051
:1011000080938B0290938C02A0938D02B0938E02F9
:1011100000918702109188022091890230918A0201
:10112000AC01BD01401B510B620B730B0817190773
:101130002A073B0720F4405050406F4F7F4FCB01B0
:10114000BA013FD520918F023091900240919102D7
:1011500050919202ECD509D51F910F91089590936B
:10116000C5008093C40080E98093C10086E280932B
:10117000C2001092C00008959091C00095FFFCCF6E
:101180008093C60008958091C00087FFFCCF209116
:10119000C0008091C00090E08470907030E02071B9
:1011A0003070822B932B009719F48091C60008951C
:1011B0008091C6008FEF089580E095E02091C000F7
:1011C00027FF15C02091C0008091C00090E084707E
:1011D000907030E020713070822B932B009719F4BF
:1011E0008091C60008958091C6008FEF0895019701
:1011F00029F78FEF0895CF93DF93CDB7DEB7E6974A
:101200000FB6F894DEBF0FBECDBF3EDB14DD82DB30
:1012100052DD94DDE1DD559A83E390E0A0DF26D72F
:10122000D3D7609160027091610280E094E22BDF7D
:1012300020916002309161024091620250916302FC
:1012400060E074E284EF90E09CD936D818D7A2DA37
:1012500019DD80E591E09093E6018093E50186E554
:1012600091E09093E8018093E7018CE591E0909301
:10127000EA018093E90182E691E09093EC0180938A
:10128000EB0189E691E09093EE018093ED018FE60A
:1012900091E09093F0018093EF0185E791E09093C6
:1012A000F2018093F101B3EAAB2EB1E0BB2E1AEA52
:1012B000812E11E0912E00E010E0EBE0FE2E2BC01D
:1012C0004F5F242F30E028173907D4F3F801EE0FD1
:1012D000FF1FEB51FE4F808191819BDEF801E658A4
:1012E000FD4F8083AFE0B0E0AC0FBD1FA00FB11F7A
:1012F0009F2D9E19981BF801EF54FE4F8081981B7B
:1013000081E0ED1409F480E0981B9C930F5F1F4F60
:101310000730110561F0D501ED905D01F401D19028
:101320004F018E2D90E08D19910940E0CACF81E0E8
:1013300090E09A87898780E190E09C878B8780E0A6
:1013400091E09E878D8760917602709177028091FF
:1013500078029091790235D49B01AC0160E074E28F
:1013600084E79BE49AD320E030E04AE753E4DFD4FB
:1013700020E030E040E85BE3DAD420E030E04AE708
:1013800054E48BD3F2D3DC01CB01909365028093BC
:10139000640200E010E0E1E0CE2ED12CC601002E68
:1013A00002C0880F991F0A94E2F767DC2FEF3DEE29
:1013B00042E0215030404040E1F700C000000F5FA4
:1013C0001F4F0930110551F78FEF90E7A2E08150D0
:1013D0009040A040E1F700C0000081E060E013DB36
:1013E0000BE311E090E0D8018D918D019EABFBDA0B
:1013F0002FEF39EF40E0215030404040E1F700C08E
:1014000000009EA99F5F943171F782E060E0FBDAF3
:1014100006E211E090E0D8018D918D019EABE3DAF8
:101420002FEF39EF40E0215030404040E1F700C05D
:1014300000009EA99F5F943171F783E060E0E3DADA
:1014400001E111E090E0D8018D918D019EABCBDAE6
:101450002FEF39EF40E0215030404040E1F700C02D
:1014600000009EA99F5F943171F700E010E06FEFDC
:10147000C62ED12CC601002E02C0880F991F0A94D7
:10148000E2F78095FADB8FEF96E7A1E0815090407C
:10149000A040E1F700C000000F5F1F4F09301105A9
:1014A00049F72FEF34E34CE0215030404040E1F762
:1014B00000C0000000E010E05FEFC52ED12CC60197
:1014C000002E02C0959587950A94E2F7D6DB8FEF40
:1014D00096E7A1E081509040A040E1F700C00000F5
:1014E0000F5F1F4F0930110551F72FEF30E742E032
:1014F000215030404040E1F700C000008FEFBDDBDD
:101500008FE799EAA3E081509040A040E1F700C046
:10151000000080E0B2DB2FE739EA43E021503040A1
:101520004040E1F700C000008FEFA7DB8FE799EAAA
:10153000A3E081509040A040E1F700C0000080E0AF
:101540009CDB2FE739EA43E0215030404040E1F78F
:1015500000C0000000E0802F60E055DA14E180E276
:1015600042DA8FE59AEE0197F1F700C000001150C2
:10157000B1F70F5F043079F781E0809381021F8A11
:101580001E8A80938202198E188E809383021B8E8E
:101590001A8E809384021D8E1C8E7894DE0119961B
:1015A000BFA7AEA780919801882389F053DD2091D1
:1015B0009B0130E0C901837090709595879520FF5D
:1015C00002C068E001C067E01EDA10929801B1E83D
:1015D0004B2EB2E05B2EFE017E96F9ABE8AB9E018E
:1015E0002B5F3F4F3DAB2CAB16E1812E912C8C0E27
:1015F0009D1E06E6202E02E0302E5901FBABEAAB21
:1016000066247724D2018C91813009F08EC01C921F
:10161000F40111821082F301EA5AFD4F008180E04B
:1016200090E0F101E80FF91F2181322F315436305B
:1016300018F020532A3040F4E1E0D501EC930196F4
:101640008330910571F702C0D5011C92F5018081AC
:10165000813009F07FC0F301EE0FFF1FEE0FFF1F77
:10166000E959FD4FDE011296BE01615F7F4FEE2406
:10167000FF246F01F60181916F01282F30E0207F58
:1016800030702033310511F48F7005C020343105DE
:10169000B9F48F70875F8C938D9190E0FB0132914C
:1016A0002291BF01829FA001839F500D929F500DF8
:1016B0001124E40EF51E2EA53FA5E217F307D1F67F
:1016C00010E0B70180E090E07CD220E030E043E120
:1016D00055E4E3D16B017C01000F111FF801E854C0
:1016E000FE4F6081718180E090E06BD29B01AC0184
:1016F000C701B6011CD36B017C01F801EA53FE4F10
:1017000060817181882777FD8095982F5CD29B013D
:10171000AC01C701B60159D1DC01CB01EAA9FBA993
:1017200080839183A283B38315C0D4018D919C9152
:1017300011978031910549F4F50110828FE99FE0FE
:101740000197F1F700C0000005C00196D401119681
:101750009C938E930894611C711C0894411C511C2D
:10176000EAA9FBA93496FBABEAAB0894A11CB11C17
:1017700022E030E0820E931E44E050E0240E351E3D
:1017800054E06516710409F03DCF0ED76093E10176
:101790007093E2018093E3019093E40160907900FB
:1017A0002EA13FA148A559A5EAA4FBA40CA51DA5FF
:1017B000C090DE01DD2417D588BD2091DF01309176
:1017C000E001B90160957095409164025091650205
:1017D0004617570748F48091850290918602821B34
:1017E000930B4817590770F06417750708F0B3C0DA
:1017F0008091850290918602860F971F481759079E
:1018000008F0A9C080918502909186029093E00132
:101810008093DF0136E5A32E32E0B32EEE244AE0BA
:10182000842E912CD501CD905D01DD2486010658D2
:101830001D4F8E2DF8016081E6D8FF2403C080E2A1
:10184000D2D8F394D8016C918F2D90E09401261B8F
:101850003109281739079CF78E2DD5D8FF240FE0C2
:1018600010E00C0F1D1F0C0D1D1D03C080E2BBD826
:10187000F394F8018081F816C8F3ACA9BDA98D9145
:10188000BDABACAB8130C9F4F601E655FE4F4081EB
:10189000E8A9F9A96081718182819381F601ED55F2
:1018A000FE4F208130E0241B3109F601EF54FE4F3A
:1018B000008150E010E0C7D829C0882329F026C055
:1018C00080E291D81F5F0EC010E0F601ED55FE4F8B
:1018D0000081F601E655FE4FF080F601EF54FE4F11
:1018E000C080DD24212F30E081E090E00F1511F45D
:1018F00080E090E08C0D9D1D281739070CF310E057
:1019000003C08AE270D81F5F1017D9F7E39428A9A3
:1019100039A92C5F3F4F39AB28AB34E0E31609F00F
:1019200081CF82E06CE06FD88DE791E081D8662DA1
:1019300070E080E090E045D121EF30EF40E75DE3DB
:10194000F6D143E050E021E030E000E010E07BD849
:1019500080E891E06DD880E06CE055D86091E101BD
:101960007091E20180E090E02CD145E050E020E071
:1019700030E000E010E067D882E891E059D881E0DB
:101980006CE041D88091DE018823D1F486E891E0B3
:101990004FD868B570E080E090E015D120E030E0ED
:1019A0004FE753E47AD020E030E048EC52E4BFD176
:1019B00043E050E020E030E046D88BE891E002C000
:1019C0008DE891E035D8EECD5058BB27AA270ED030
:1019D00070C161D130F066D120F031F49F3F11F435
:1019E0001EF456C10EF4E095E7FB4CC1E92F72D10D
:1019F00080F3BA17620773078407950718F071F42C
:101A00009EF58AC10EF4E0950B2EBA2FA02D0B0186
:101A1000B90190010C01CA01A0011124FF27591B33
:101A200099F0593F50F4503E68F11A16F040A22F39
:101A3000232F342F4427585FF3CF469537952795AA
:101A4000A795F0405395C9F77EF41F16BA0B620BA9
:101A5000730B840BBAF09150A1F0FF0FBB1F661FF0
:101A6000771F881FC2F70EC0BA0F621F731F841F33
:101A700048F4879577956795B795F7959E3F08F059
:101A8000B3CF9395880F08F09927EE0F9795879518
:101A90000895D4D008F481E008950CD00AC102D191
:101AA00040F0F9D030F021F45F3F19F0EBC0511154
:101AB00034C1EEC00FD198F39923C9F35523B1F384
:101AC000951B550BBB27AA2762177307840738F0AD
:101AD0009F5F5F4F220F331F441FAA1FA9F333D00C
:101AE0000E2E3AF0E0E830D091505040E695001CC0
:101AF000CAF729D0FE2F27D0660F771F881FBB1F7C
:101B0000261737074807AB07B0E809F0BB0B802D55
:101B1000BF01FF2793585F4F2AF09E3F510568F0A1
:101B2000B1C0FBC05F3FECF3983EDCF38695779540
:101B30006795B795F7959F5FC9F7880F911D9695A3
:101B4000879597F90895E1E0660F771F881FBB1FFF
:101B5000621773078407BA0720F0621B730B840BAC
:101B6000BA0BEE1F88F7E0950895BCD088F09F5718
:101B700090F0B92F9927B751A0F0D1F0660F771FD9
:101B8000881F991F1AF0BA95C9F712C0B13081F0B9
:101B9000C3D0B1E00895C0C0672F782F8827B85F01
:101BA00039F0B93FCCF3869577956795B395D9F71A
:101BB0003EF490958095709561957F4F8F4F9F4F24
:101BC0000895E89409C097FB3EF490958095709530
:101BD00061957F4F8F4F9F4F9923A9F0F92F96E979
:101BE000BB279395F695879577956795B795F111EE
:101BF000F8CFFAF4BB0F11F460FF1BC06F5F7F4F8B
:101C00008F4F9F4F16C0882311F096E911C077239C
:101C100021F09EE8872F762F05C0662371F096E8A5
:101C2000862F70E060E02AF09A95660F771F881F74
:101C3000DAF7880F9695879597F90895990F000818
:101C4000550FAA0BE0E8FEEF16161706E807F9078E
:101C5000C0F012161306E407F50798F0621B730B29
:101C6000840B950B39F40A2661F0232B242B252BAA
:101C700021F408950A2609F4A140A6958FEF811D4D
:101C8000811D089597F99F6780E870E060E00895EE
:101C90009FEF80EC089500240A9416161706180684
:101CA0000906089500240A94121613061406050660
:101CB0000895092E0394000C11F4882352F0BB0FF1
:101CC00040F4BF2B11F460FF04C06F5F7F4F8F4F54
:101CD0009F4F089557FD9058440F551F59F05F3F8F
:101CE00071F04795880F97FB991F61F09F3F79F03E
:101CF00087950895121613061406551FF2CF4695C0
:101D0000F1DF08C0161617061806991FF1CF869541
:101D10007105610508940895E894BB276627772725
:101D2000CB0197F908958ADF08F48FEF08950BD05F
:101D3000C0CFB1DF28F0B6DF18F0952309F0A2CFAD
:101D4000A7CF1124EACFC6DFA0F3959FD1F3950F5B
:101D500050E0551F629FF001729FBB27F00DB11D2F
:101D6000639FAA27F00DB11DAA1F649F6627B00DBF
:101D7000A11D661F829F2227B00DA11D621F739FA8
:101D8000B00DA11D621F839FA00D611D221F749FB6
:101D90003327A00D611D231F849F600D211D822FFD
:101DA000762F6A2F11249F5750408AF0E1F0882344
:101DB0004AF0EE0FFF1FBB1F661F771F881F915051
:101DC0005040A9F79E3F510570F05CCFA6CF5F3F12
:101DD000ECF3983EDCF3869577956795B795F79584
:101DE000E7959F5FC1F7FE2B880F911D969587950C
:101DF00097F90895629FD001739FF001829FE00DD3
:101E0000F11D649FE00DF11D929FF00D839FF00D79
:101E1000749FF00D659FF00D9927729FB00DE11D25
:101E2000F91F639FB00DE11DF91FBD01CF01112402
:101E30000895A1E21A2EAA1BBB1BFD010DC0AA1F0B
:101E4000BB1FEE1FFF1FA217B307E407F50720F023
:101E5000A21BB30BE40BF50B661F771F881F991F9E
:101E60001A9469F760957095809590959B01AC01E7
:0A1E7000BD01CF010895F894FFCFE3
:101E7A000800FF00424144495352204552524F52F2
:101E8A00002020204669726D77617265205265765E
:101E9A002E362020200020772F204675656C50753D
:101EAA006D702044726976657220004D756C746994
:101EBA002D46756E6374696F6E204D657465720088
:101ECA00424F4F535400544143484F004F494C2E00
:101EDA0050004655454C2E50004558542E54004F3C
:101EEA00494C2E540057415445522E540046500036
:101EFA00560072706D00445554590025003D4650F5
:101F0A00204D41583D00FF0001FFFF040102030478
:101F1A0005070F0304030304030301040201040376
:101F2A000301000000000000030028230A00060045
:101F3A00840364006400FFFF000000000000C80082
:041F4A00320014004D
:00000001FF
