:100000000C9479000C945F020C9404080C949600F4
:100010000C9496000C9496000C9496000C94D607C1
:100020000C9496000C94A0070C9496000C949600E7
:100030000C9496000C94A5020C9496000C949600D7
:100040000C9496000C9496000C9442070C94960025
:100050000C9496000C9496000C9496000C949600C8
:100060000C9496000C9496007D006C004669726DAD
:1000700077617265205265762E20313000467565B5
:100080006C2050756D702044726976657200AE0008
:10009000AB00A800A500A2009F009C005754004F91
:1000A00054004554004650004F5000544300425302
:1000B000000A0A0044617461204C6F676765722012
:1000C00040204D617A64612052582D3720464433D8
:1000D000530A0A0A00030028230A00060084036466
:1000E000006400FFFF000000000000C800320014A0
:1000F000000011241FBECFEFD8E0DEBFCDBF11E05E
:10010000A0E0B1E0ECE7F0E202C005900D92A0376C
:10011000B107D9F711E0A0E7B1E001C01D92A63DFB
:10012000B107E1F70E94EB090C943C100C9479069E
:1001300080E280937C0087EE80937A0010927B00AF
:100140000895DF92EF92FF920F931F93CF93DF9367
:1001500000E010E08FE1E82EF12C20C0802F6C2F02
:100160000E943E069E01225030402430310510F49A
:100170008D2D09C0C130D10519F0C630D10511F45B
:1001800080E001C080E10E940E052196C830D105B3
:1001900029F70F5F1F4F0630110561F0C701002ED0
:1001A00002C0959587950A94E2F7D82ED094C0E0C6
:1001B000D0E0D4CFDF91CF911F910F91FF90EF90BE
:1001C000DF9008959F92AF92BF92CF92DF92EF920D
:1001D000FF920F931F93CF93DF93BC018FE16134A4
:1001E000780710F060E47FE180E090E00E94DB0E91
:1001F0000E94AF0E80E090E00E94DB0E6B017C015C
:1002000020E030E04AE754E40E94470E0E94AF0E1F
:10021000962E062F10E0C0E0D0E0580104C085E023
:100220000E940E052196CA15DB05C8F388E09816D2
:1002300021F1B801882777FD8095982F0E94DD0E67
:1002400020E030E04AE754E40E94910F9B01AC01AA
:10025000C701B6010E94DE0D20E030E04AE754E419
:100260000E94470E20E030E040EA50E40E94910FE7
:100270000E94AF0E862F0E940E05C0E0D0E003C0A2
:1002800080E00E940E052196CE018A0D9B1D8830CC
:100290009105B0F3DF91CF911F910F91FF90EF90F7
:1002A000DF90CF90BF90AF909F90089583E08DBB7B
:1002B0005B9A8FE0809369001092680010926D0045
:1002C00010926C0010926B0008958F929F92AF92E3
:1002D000BF92CF92DF92EF92FF920F931F93CF9333
:1002E000DF934B015C01C801B70121E0C216D104C4
:1002F00009F448C02DEC3CEC4CEC5DEB0E948D0FFA
:1003000018160CF43FC082EB88168CE0980680E04B
:10031000A80680E0B806B0F521E2821623E0920636
:1003200020E0A20620E0B20638F0C501B401605218
:1003300073408040904003C060E070E0CB01C0910A
:100340007001D0917101C656DF4F0E94DB0E20E094
:1003500030E249E155E40E94470E20E030E04AECEB
:1003600052E40E94910F0E94AF0EAB01BC01C40F7A
:10037000D51FAE0160E070E04F3F5105610571058A
:1003800029F020F04FEF50E060E070E0CA01DF910B
:10039000CF911F910F91FF90EF90DF90CF90BF9082
:1003A000AF909F908F90089587E791E0909382019E
:1003B0008093810108952091760130917701A90100
:1003C00046505F4F4817590728F02A5F3040821780
:1003D000930720F490937701809376012BE1883581
:1003E0009207F8F080E48093B300809174019091BB
:1003F00075018931910579F410927501109274019B
:100400008091020190910301809590959093030152
:10041000809302010FC0019690937501809374013F
:1004200009C08FEF90E0909303018093020188E070
:100430008093B30060917601709177018FE0603A0C
:10044000780728F4109284011092830128C02FE0CD
:10045000603A720719F481E090E01DC08BE16935C4
:10046000780718F088E090E016C0605A7F4080E07E
:1004700090E00E94DB0E20E030E040E051E40E947A
:10048000910F20E030E84BE355E40E94470E0E94B4
:10049000AF0EDC01CB0190938401809383018FEF39
:1004A00090E00090830102C0880F991F0A94E2F740
:1004B00080959091020189230E946D0608951F92F4
:1004C0000F920FB60F9211244F935F936F937F9308
:1004D0008F939F93EF93FF93809184009091850079
:1004E0008536910528F180917801909179014091AC
:1004F000840050918500FC01EE0FFF1FEE0FFF1FDF
:10050000E756FE4F60E070E040835183628373835F
:10051000009729F4109279011092780105C0019694
:100520009093790180937801109285001092840055
:10053000FF91EF919F918F917F916F915F914F917B
:100540000F900FBE0F901F9018951F920F920FB62D
:100550000F9211244F935F936F937F938F939F9389
:10056000EF93FF938091780190917901FC01EE0F58
:10057000FF1FEE0FFF1FE756FE4F4FEF5FEFBA0171
:100580004083518362837383009729F41092790129
:100590001092780105C001969093790180937801BB
:1005A0001092850010928400FF91EF919F918F919E
:1005B0007F916F915F914F910F900FBE0F901F90A1
:1005C00018958091A5019091A601A0E0B0E08093DC
:1005D000A5019093A601A093A701B093A801089547
:1005E000DC01CB018093950190939601A093970134
:1005F000B093980120938D0130938E0140938F0129
:10060000509390010895CF92DF92EF92FF928091E4
:10061000990190919A01A0919B01B0919C018093C6
:10062000A5019093A601A093A701B093A801E09122
:100630007801F0917901EE0FFF1FEE0FFF1FE756D3
:10064000FE4FC080D180E280F3808FEFC8168FEF1D
:10065000D80680E0E80680E0F80620F080E090E030
:10066000DC011EC060919501709196018091970107
:100670009091980120918D0130918E0140918F01D0
:10068000509190010E941310CA01B901A70196016F
:100690000E941310CA01B9010E94DB0EDC01CB01DC
:1006A0008093850190938601A0938701B093880180
:1006B000C0908501D0908601E0908701F09088017C
:1006C000C701B601209191013091920140919301AF
:1006D000509194010E94DE0D20E030E048E452E4A5
:1006E0000E94430E87FF08C0C0929101D0929201F0
:1006F000E0929301F09294016091910170919201C6
:10070000809193019091940120E030E040E752E421
:100710000E94910F20E030E040E05FE30E94910FE3
:100720000E94AF0E60937D0170937E0180937F01E4
:1007300090938001FF90EF90DF90CF90089586E036
:1007400060E00E943E0680E00E940E0586E061E0C7
:100750000E943E0680E00E940E0586E062E00E9454
:100760003E0680E00E940E0586E063E00E943E06A1
:1007700080E00E940E0586E064E00E943E0681E172
:100780000E940E0586E065E00E943E0685E10E941B
:100790000E0586E066E00E943E0685E10E940E0599
:1007A00086E067E00E943E068AE00E940E0587E030
:1007B00060E00E943E0680E00E940E0587E061E056
:1007C0000E943E0680E00E940E0587E062E00E94E3
:1007D0003E068CE10E940E0587E063E00E943E0623
:1007E00084E10E940E0587E064E00E943E0684E1F9
:1007F0000E940E0587E065E00E943E0682E10E94AD
:100800000E0587E066E00E943E068FE10E940E051D
:1008100087E067E00E943E0681E10E940E05089590
:1008200088E20E940E0587E20E940E0585EA0E947A
:100830000E0586E00E940E0585EA0E940E0580E600
:100840000E940E0589E20E940E05089588E20E942A
:100850000E0580E60E940E0585EA0E940E0586E0E0
:100860000E940E0585EA0E940E0587E20E940E0591
:1008700089E20E940E05089588E20E940E058FED20
:100880000E940E0587E00E940E058FED0E940E0566
:1008900089E20E940E05089584B1876084B90895A5
:1008A00027E030E090E02998289865B1AC01022E4D
:1008B00002C0559547950A94E2F74170462B45B919
:1008C000299A215030404FEF2F3F340761F70895A8
:1008D0008295880F807E842B6295607F682B862F9F
:1008E0008F730E9450042A982A9A2A980895482FB4
:1008F0004F704093A9011092AA018091AB0160E072
:100900000E94680481E08093AA018091AB0161E0BC
:100910004091A9010E9468041092AA018091AB0144
:1009200060E04091A9010E94680408951092AA0114
:100930001092AB011092A90180E060E040E00E94BB
:1009400068048FEF99EFA0E081509040A040E1F75C
:1009500000C0000083E00E947704AFE1BEE411977D
:10096000F1F700C0000083E00E94770487EB91E07C
:100970000197F1F700C0000083E00E947704A7EC24
:10098000B0E01197F1F700C0000082E00E94770408
:1009900087EC90E00197F1F700C0000082E00E9430
:1009A000770488E00E947704AFE9BFE01197F1F780
:1009B00000C0000080E00E9477048CE00E94770471
:1009C0008FE99FE00197F1F700C0000080E00E94EE
:1009D000770486E00E947704AFE9BFE01197F1F752
:1009E00000C0000080E00E94770481E00E9477044C
:1009F0008FE39FE10197F1F700C0000080E00E94C3
:100A0000770482E00E947704AFE3BFE11197F1F72A
:100A100000C0000081E08093AB010895CF93C82F00
:100A200082958F700E9477048C2F8F700E947704BC
:100A300087EC90E00197F1F700C00000CF91089596
:100A40001092AB01982F91709295990F990F907C0D
:100A50009068869524E1829F802D1124860F892B32
:100A60000E940E0581E08093AB010895CF93DF9340
:100A7000EC0102C00E940E0589918823D9F7DF910D
:100A8000CF9108952F923F924F925F926F927F92F3
:100A90008F929F92AF92BF92CF92DF92EF92FF928E
:100AA0000F931F93CF93DF93CDB7DEB728970FB681
:100AB000F894DEBF0FBECDBF6B017C011A01290186
:100AC00080E090E04C010FC0C701B60120E030E0AB
:100AD00040E251E40E94910FC62ED72EE82EF92E47
:100AE0000894811C911C8414950471F70130110540
:100AF00081F4C701B60120E030E0A9010E94430E55
:100B000087FF1BC08DE20E940E05F7FAF094F7F8FC
:100B1000F09400E010E0662477249201220D331D4A
:100B20003A832983215030403C832B83C1010197B4
:100B30009E838D8378866F826EC08BE20E940E0545
:100B4000E8CF0215130531F44114510419F08EE277
:100B50000E940E05380181E0882E912CA12CB12C29
:100B6000C501B40106C02AE030E040E050E00E9438
:100B7000F40F0894611C711CE981FA816E167F06DE
:100B800090F34B015C010E94DB0E9B01AC01C7019D
:100B9000B6010E94470E0E94AF0EDC01CB013C0162
:100BA0002F8138852115310579F481E090E098870F
:100BB0008F836114710461F4ED81FE810E171F07AC
:100BC00039F018861F8204C021E030E038872F8377
:100BD000B30180E090E0A50194010E94F40F0E940F
:100BE000DB0E9B01AC01C701B6010E94DE0D6B015B
:100BF000E82EF92EEF81F885309729F42B813C817E
:100C00000217130719F4862D805D01C080E20E944F
:100C10000E050F5F1F4F8B819C818017910708F095
:100C200090CF28960FB6F894DEBF0FBECDBFDF91F0
:100C3000CF911F910F91FF90EF90DF90CF90BF90D9
:100C4000AF909F908F907F906F905F904F903F906C
:100C50002F9008951092AB0180E00E94770481E00C
:100C60000E94770485E38A95F1F7000081E0809384
:100C7000AB0180E060E00E94200508951092AB0176
:100C80006064880F880F880F862B0E940E0581E014
:100C90008093AB01089584B1886384B9089527E0F7
:100CA00030E090E02C982B9865B1AC01022E02C088
:100CB000559547950A94E2F74170507073E0440FE0
:100CC000551F7A95E1F7642B65B92C9A2150304075
:100CD0004FEF2F3F340731F708950E944F062D98AC
:100CE0002D9A2D98089583E08093AC011092AD0168
:100CF00008951F920F920FB60F921124F89480E07E
:100D000060E00E94200584E091E00E943605FFCF5C
:100D100083E284BD8AE085BD10926E0016BC8FEF21
:100D200087BD88BD85B590E0877090708330910550
:100D3000A1F0843091053CF481309105C9F08230F6
:100D40009105A1F407C08430910551F085309105DB
:100D500069F409C088E090E00BC080E490E008C02E
:100D600080E091E005C080E094E002C081E090E086
:100D70009093AF018093AE0108951092800083E0BC
:100D8000809381001092820081E080936F00109226
:100D90008500109284008FEF9FEF909389008093DD
:100DA00088008091810090E0877090708330910579
:100DB000A1F0843091053CF481309105C9F0823076
:100DC0009105A1F407C08430910551F0853091055B
:100DD00069F409C088E090E00BC080E490E008C0AE
:100DE00080E091E005C080E094E002C081E090E006
:100DF0009093B2018093B10108951092B00087E002
:100E00008093B10083E0809370001092B20088E07C
:100E10008093B3008091B10090E08770907084302F
:100E20009105E9F08530910554F48230910589F0FF
:100E3000833091058CF481309105E9F41EC0863031
:100E4000910599F0863091056CF08730910599F401
:100E50000FC088E090E011C080E290E00EC080E416
:100E600090E00BC080E890E008C080E091E005C011
:100E700080E094E002C081E090E09093BE01809316
:100E8000BD0108951F920F920FB60F9211242F9358
:100E90003F934F935F936F937F938F939F93AF9302
:100EA000BF93EF93FF930E94E009982F907FC1F4C6
:100EB000E091AC01F0E0EF5AFE4F9081891751F0BC
:100EC000E091AD01F0E0EF5AFE4F9081891739F5BE
:100ED00081E001C080E08093B00110924F011FC0FB
:100EE00090914F019430D8F42091B00130E0F90195
:100EF000EE0FFF1FEE0FFF1FE90FF11DEB54FE4F2A
:100F00008083933049F42A533E4F81E0F901808376
:100F10008FEF80934F0103C09F5F90934F01FF912C
:100F2000EF91BF91AF919F918F917F916F915F9161
:100F30004F913F912F910F900FBE0F901F901895DA
:100F40001F920F920FB60F9211242F933F934F933E
:100F50005F936F937F938F939F93AF93BF93EF9321
:100F6000FF938091C8019091C90101969093C901A6
:100F70008093C801EAE7F0E08081806480838091FB
:100F80007D0190917E010E94DB01FF91EF91BF9165
:100F9000AF919F918F917F916F915F914F913F9111
:100FA0002F910F900FBE0F901F9018951F920F92C8
:100FB0000FB60F9211242F933F934F935F936F932C
:100FC0007F938F939F93AF93BF93EF93FF9380E0B3
:100FD0000E946D06FF91EF91BF91AF919F918F910C
:100FE0007F916F915F914F913F912F910F900FBE25
:100FF0000F901F901895FC019E2F981B2191222382
:10100000D9F7892F90E008951F920F920FB60F9293
:1010100011248F939F93AF93BF9380917A0188237C
:1010200021F481E080937A0102C010927A018FEF5F
:1010300090E7A2E081509040A040E1F700C000009E
:10104000BF91AF919F918F910F900FBE0F901F9006
:101050001895CF93DF93CDB7DEB7A0970FB6F8946E
:10106000DEBF0FBECDBF80E060E00E942005E091B2
:10107000AC01F0E0EE0FFF1FE257FF4F6491CE018D
:10108000019670E00E943510CE0101960E9436054F
:1010900081E060E00E942005E091AD01F0E0EE0FFC
:1010A000FF1FE257FF4F6491CE01019670E00E944E
:1010B0003510CE0101960E943605A0960FB6F89421
:1010C000DEBF0FBECDBFDF91CF910895CF92DF92EB
:1010D000EF92FF92CF93DF93EC0180E090E00E94CB
:1010E000DB0E6B017C01BE0180E090E00E94DB0E14
:1010F0009B01AC01C701B6010E94470EDC01CB0188
:101100008093D2019093D301A093D401B093D501E1
:10111000DF91CF91FF90EF90DF90CF900895809175
:10112000840090918500A0E0B0E08093CA01909384
:10113000CB01A093CC01B093CD0108950F931F93E1
:101140008091840090918500A0E0B0E08093CE0172
:101150009093CF01A093D001B093D1010091CA0127
:101160001091CB012091CC013091CD01AC01BD019A
:10117000401B510B620B730B081719072A073B071B
:1011800020F4405050406F4F7F4FCB01BA010E9476
:10119000DB0E2091D2013091D3014091D4015091C6
:1011A000D5010E94910F0E94AF0E1F910F910895DB
:1011B0009093C5008093C40088E98093C10086E2C3
:1011C0008093C2001092C00008959091C00095FFD6
:1011D000FCCF8093C6000895CF93DF93EC0102C04B
:1011E0000E94E50889918823D9F7DF91CF9108956E
:1011F0002F923F924F925F926F927F928F929F9227
:10120000AF92BF92CF92DF92EF92FF920F931F9314
:10121000CF93DF93CDB7DEB728970FB6F894DEBF34
:101220000FBECDBF6B017C011A01290180E090E067
:101230004C010FC0C701B60120E030E040E251E4AC
:101240000E94910FC62ED72EE82EF92E0894811CED
:10125000911C8414950471F70130110581F4C701C4
:10126000B60120E030E0A9010E94430E87FF1BC0B9
:101270008DE20E94E508F7FAF094F7F8F09400E0A8
:1012800010E0662477249201220D331D3A832983CE
:10129000215030403C832B83C10101979E838D8375
:1012A00078866F826EC08BE20E94E508E8CF021557
:1012B000130531F44114510419F08EE20E94E5083F
:1012C000380181E0882E912CA12CB12CC501B401EC
:1012D00006C02AE030E040E050E00E94F40F08949D
:1012E000611C711CE981FA816E167F0690F34B0137
:1012F0005C010E94DB0E9B01AC01C701B6010E949C
:10130000470E0E94AF0EDC01CB013C012F813885D6
:101310002115310579F481E090E098878F8361147D
:10132000710461F4ED81FE810E171F0739F01886F4
:101330001F8204C021E030E038872F83B30180E0B2
:1013400090E0A50194010E94F40F0E94DB0E9B0126
:10135000AC01C701B6010E94DE0D6B01E82EF92E2B
:10136000EF81F885309729F42B813C810217130710
:1013700019F4862D805D01C080E20E94E5080F5FB0
:101380001F4F8B819C818017910708F090CF289682
:101390000FB6F894DEBF0FBECDBFDF91CF911F9186
:1013A0000F91FF90EF90DF90CF90BF90AF909F9004
:1013B0008F907F906F905F904F903F902F90089507
:1013C0008091C00087FFFCCF8091C0008091C00059
:1013D0008091C6000895CF93DF93CDB7DEB7CA548E
:1013E000D0400FB6F894DEBF0FBECDBF0E944C04B4
:1013F0000E944B060E9496040E9488060E94BD0629
:101400000E94FD06559A83E390E00E94D8080E944E
:1014100098000E9456012091B1013091B20140E044
:1014200050E060E074E284EF90E00E94F0020E94DD
:10143000A1000E947306BBE5AB2EB1E0BB2E12E605
:10144000612E11E0712E00E010E087E0882E32C09E
:101450004F5F242F30E028173907D4F3F801EE0F3F
:10146000FF1FE257FF4F6491CE01809670E00E940B
:101470003510CE0180960E94FB07F801E154FE4F23
:101480008083A1E1B0E0AC0FBD1FA00FB11F982D6C
:101490009E19981BF801E759FE4F8081981B81E047
:1014A000EC1409F480E0981B9C930F5F1F4F0730EA
:1014B000110561F0D501ED905D01F301C1903F018F
:1014C0008E2D90E08C19910940E0C3CF81E090E02F
:1014D0009C878B8780E190E09E878D8780E091E0FC
:1014E000988B8F876091BD017091BE0180E090E084
:1014F0000E94DB0E9B01AC0160E074E284E79BE498
:101500000E94470E20E030E04AE753E40E94910F2A
:1015100020E030E040E85BE30E94910F20E030E003
:101520004AE754E40E94470E0E94AF0EDC01CB0153
:101530009093B4018093B301CE01809661EB70E08B
:101540000E943510CE0180960E94EC08CE01809654
:1015500064EB70E00E943510CE0180960E94EC088A
:1015600000E010E0E1E0EE2EF12CC701002E02C0F9
:10157000880F991F0A94E2F70E946D062FEF3DEE47
:1015800042E0215030404040E1F700C000000F5FD2
:101590001F4F0930110549F78FEF90E7A2E0815006
:1015A0009040A040E1F700C0000000E010E0802F74
:1015B00060E00E942005F801EE0FFF1FE859FF4F81
:1015C0006491CE01809670E00E94351090E2E92E81
:1015D000F12CEC0EFD1E90E0D7018D917D012B9634
:1015E0009FAF2B970E940E052FEF39EF40E021505F
:1015F00030404040E1F700C000002B969FAD2B9794
:101600009F5F903149F70F5F1F4F0230110579F648
:101610008FEF99E6A8E181509040A040E1F700C02B
:10162000000000E0802F60E00E94200510E180E2D1
:101630000E940E05AFE3BCE91197F1F700C000006E
:101640001150A9F70F5F043069F781E08093C6015C
:1016500018861F828093C7011A8619867894109283
:101660007A01FE013B962296FFAFEEAF2297809162
:101670005001882399F00E94290820915A0130E0F6
:10168000C901837090709595879520FF02C068E02E
:1016900001C067E00E942005109250019E01285E63
:1016A0003F4F24963FAF2EAF2497AE014F5F5F4F61
:1016B00028965FAF4EAF2897A7E06A2E712C6C0E6C
:1016C0007D1EB5EB2B2EB1E03B2E5A0126963FAF87
:1016D0002EAF269788249924F401EA53FE4F808187
:1016E000813009F0A5C01082D30111961C921E9280
:1016F000F401E455FE4FE08080E090E0F101E80F56
:10170000F91F2181322F3154363018F020532A30FE
:1017100040F421E0F501208301968330910571F7B3
:1017200002C0D5011C92F5018081813009F096C07C
:101730006401CC0CDD1CCC0CDD1C26EB31E0C20EB0
:10174000D31EDE011496BE016F5E7F4F00E010E0F5
:10175000F60181916F01282F30E0207F3070203317
:10176000310511F48F7005C020343105C9F48F7034
:10177000875F8C938D9190E0FB0132912291BF01A4
:10178000829FA001839F500D929F500D1124040F42
:10179000151F22962EAD3FAD2297E217F307C1F633
:1017A0008E2D90E0880F991FFC01EB52FF4F459062
:1017B0005490FC01ED51FF4F459154912A965FAF33
:1017C0004EAF2A97B80180E090E00E94DB0E20E047
:1017D00030E043E155E40E94470E6B017C01B20109
:1017E00080E090E00E94DB0E9B01AC01C701B601D6
:1017F0000E94910F6B017C012A96AEADBFAD2A9776
:10180000BD01882777FD8095982F0E94DD0E9B01F2
:10181000AC01C701B6010E94DF0DDC01CB012696A9
:10182000EEADFFAD269780839183A283B38316C06C
:10183000D3018D919C911197B1E08C329B0749F4B3
:10184000F501108287EC90E00197F1F700C00000ED
:1018500005C00196D30111969C938E930894811C28
:10186000911C2696EEADFFAD269734962696FFAFD7
:10187000EEAF26970894A11CB11C22E030E0620E66
:10188000731E44E050E0240E351E52E0851691048C
:1018900009F022CF0E9403034B015C0160937D019C
:1018A00070937E0180937F01909380016091790015
:1018B00070E080E090E00E94DB0E21EF30EF40E727
:1018C0005DE30E94910F3B01582E492E288D398DE2
:1018D0004A8D5B8DEC8CFD8C0E8D1F8DC0907A0136
:1018E000C501B401DD240E94650188BD8091C80155
:1018F0009091C9012091B3013091B40128173907A3
:1019000008F0B5C01092C9011092C8017CEA272ED8
:1019100071E0372E8824D101CD901D01DD24860190
:1019200001541E4F882DF80160810E942005EE248D
:1019300004C080E20E940E05E394D8016C918E2DC4
:1019400090E026E030E0261B3109281739078CF794
:10195000882D0E942005EE2401E110E00C0F1D1FD0
:101960000C0D1D1D04C080E20E940E05E394F801D9
:101970008081E816C0F32896AEADBFAD28978D9153
:101980002896BFAFAEAF28978130E1F4F601EE594B
:10199000FE4F40812496EEADFFAD249760817181AA
:1019A00082819381F601E55AFE4F208130E0241BAD
:1019B0003109F601E759FE4F008150E010E00E9426
:1019C00042052BC0882331F028C080E20E940E051A
:1019D0000F5F0EC000E0F601E55AFE4FE080F60111
:1019E000EE59FE4FA080F601E759FE4FC080DD247E
:1019F000202F30E081E090E0EA1411F480E090E0E4
:101A00008C0D9D1D2817390704F300E004C08AE2FD
:101A10000E940E050F5F0E15D1F7839424962EAD0C
:101A20003FAD24972C5F3F4F24963FAF2EAF2497B6
:101A300032E0831609F06FCF82E06CE00E9420054F
:101A400081E191E00E9436059201862D972DA32F0A
:101A5000B42DBC01CD0142E050E021E030E000E0D7
:101A600010E00E94420585E191E00E94360580E089
:101A700068E00E94200560917D0170917E0180E008
:101A800090E00E94DB0E45E050E020E030E000E016
:101A900010E00E94420587E191E00E94360581E056
:101AA00068E00E94200580917A018823F9F48BE197
:101AB00091E00E94360568B570E080E090E00E94F9
:101AC000DD0E20E030E04FE753E40E94470E20E0B7
:101AD00030E048EC52E40E94910F43E050E020E0F7
:101AE00030E00E94420580E291E002C082E291E093
:101AF0000E94360560917D0170917E0180917F0189
:101B0000909180010E94DB0E45E050E020E030E043
:101B100000E010E00E94F8088BE291E00E94EC08DF
:101B20006CA17DA18EA19FA143E050E022E030E0B6
:101B300001E010E00E94F80880E391E00E94EC08C8
:101B400068B570E080E090E00E94DD0E20E030E0BB
:101B50004FE753E40E94470E20E030E048EC52E4A7
:101B60000E94910F43E050E020E030E000E010E000
:101B70000E94F8088BE391E00E94EC089201862D08
:101B8000972DA32FB42DBC01CD0142E050E021E000
:101B900030E00E94F80881E491E00E94EC0868A11E
:101BA00079A18AA19BA143E050E022E030E00E94AD
:101BB000F80887E491E00E94EC0859CD5058BB2703
:101BC000AA270ED070C161D130F066D120F031F477
:101BD0009F3F11F41EF456C10EF4E095E7FB4CC193
:101BE000E92F72D180F3BA1762077307840795074C
:101BF00018F071F49EF58AC10EF4E0950B2EBA2F01
:101C0000A02D0B01B90190010C01CA01A001112402
:101C1000FF27591B99F0593F50F4503E68F11A16AE
:101C2000F040A22F232F342F4427585FF3CF46953F
:101C300037952795A795F0405395C9F77EF41F1661
:101C4000BA0B620B730B840BBAF09150A1F0FF0F2B
:101C5000BB1F661F771F881FC2F70EC0BA0F621F17
:101C6000731F841F48F4879577956795B795F79507
:101C70009E3F08F0B3CF9395880F08F09927EE0F99
:101C8000979587950895D4D008F481E008950CD0F5
:101C90000AC102D140F0F9D030F021F45F3F19F0D1
:101CA000EBC0511134C1EEC00FD198F39923C9F3A1
:101CB0005523B1F3951B550BBB27AA276217730752
:101CC000840738F09F5F5F4F220F331F441FAA1F06
:101CD000A9F333D00E2E3AF0E0E830D091505040C6
:101CE000E695001CCAF729D0FE2F27D0660F771F74
:101CF000881FBB1F261737074807AB07B0E809F056
:101D0000BB0B802DBF01FF2793585F4F2AF09E3FEA
:101D1000510568F0B1C0FBC05F3FECF3983EDCF3C7
:101D2000869577956795B795F7959F5FC9F7880F63
:101D3000911D9695879597F90895E1E0660F771FB5
:101D4000881FBB1F621773078407BA0720F0621B46
:101D5000730B840BBA0BEE1F88F7E0950895BCD087
:101D600088F09F5790F0B92F9927B751A0F0D1F084
:101D7000660F771F881F991F1AF0BA95C9F712C00E
:101D8000B13081F0C3D0B1E00895C0C0672F782F83
:101D90008827B85F39F0B93FCCF38695779567957A
:101DA000B395D9F73EF490958095709561957F4FE6
:101DB0008F4F9F4F0895E89409C097FB3EF490958C
:101DC0008095709561957F4F8F4F9F4F9923A9F014
:101DD000F92F96E9BB279395F695879577956795A3
:101DE000B795F111F8CFFAF4BB0F11F460FF1BC0E7
:101DF0006F5F7F4F8F4F9F4F16C0882311F096E97A
:101E000011C0772321F09EE8872F762F05C0662327
:101E100071F096E8862F70E060E02AF09A95660FE0
:101E2000771F881FDAF7880F9695879597F9089599
:101E3000990F0008550FAA0BE0E8FEEF16161706DB
:101E4000E807F907C0F012161306E407F50798F043
:101E5000621B730B840B950B39F40A2661F0232B5C
:101E6000242B252B21F408950A2609F4A140A695D8
:101E70008FEF811D811D089597F99F6780E870E0BD
:101E800060E008959FEF80EC089500240A941616F0
:101E9000170618060906089500240A941216130658
:101EA000140605060895092E0394000C11F48823E6
:101EB00052F0BB0F40F4BF2B11F460FF04C06F5F02
:101EC0007F4F8F4F9F4F089557FD9058440F551FD8
:101ED00059F05F3F71F04795880F97FB991F61F0AC
:101EE0009F3F79F087950895121613061406551F23
:101EF000F2CF4695F1DF08C0161617061806991F8F
:101F0000F1CF86957105610508940895E894BB2783
:101F100066277727CB0197F908958ADF08F48FEFBA
:101F200008950BD0C0CFB1DF28F0B6DF18F09523AD
:101F300009F0A2CFA7CF1124EACFC6DFA0F3959F67
:101F4000D1F3950F50E0551F629FF001729FBB27A0
:101F5000F00DB11D639FAA27F00DB11DAA1F649F4C
:101F60006627B00DA11D661F829F2227B00DA11DFF
:101F7000621F739FB00DA11D621F839FA00D611D85
:101F8000221F749F3327A00D611D231F849F600DA6
:101F9000211D822F762F6A2F11249F5750408AF0DF
:101FA000E1F088234AF0EE0FFF1FBB1F661F771F6B
:101FB000881F91505040A9F79E3F510570F05CCFAB
:101FC000A6CF5F3FECF3983EDCF386957795679557
:101FD000B795F795E7959F5FC1F7FE2B880F911D89
:101FE0009695879597F90895629FD001739FF001A8
:101FF000829FE00DF11D649FE00DF11D929FF00D99
:10200000839FF00D749FF00D659FF00D9927729FCF
:10201000B00DE11DF91F639FB00DE11DF91FBD015A
:10202000CF0111240895A1E21A2EAA1BBB1BFD01AA
:102030000DC0AA1FBB1FEE1FFF1FA217B307E407A7
:10204000F50720F0A21BB30BE40BF50B661F771FFF
:10205000881F991F1A9469F76095709580959095DF
:102060009B01AC01BD01CF010895FB01DC0105908E
:0C2070000D920020E1F70895F894FFCFD6
:10207C000800FF00424144495352204552524F52EE
:10208C000046502000560072706D004455545900A3
:10209C0025003D4650204D41583D002C202020006D
:1020AC006B672F636D322C20202000252C202020E4
:1020BC0000562C202020006B672F636D320A00FF26
:1020CC00010102030405070FFFFF020304030304CD
:1020DC0003030104020104030301000000000000DB
:00000001FF
