:100000000C9482000C944D020C9426080C949F00D2
:100010000C949F000C949F000C949F000C94F60786
:100020000C949F000C94C0070C949F000C949F00AC
:100030000C949F000C9493020C949F000C949F00CE
:100040000C949F000C949F000C944F070C949F00FD
:100050000C949F000C949F000C949F000C949F00A4
:100060000C949F000C949F00980083006E00202049
:10007000204669726D77617265205265762E372051
:1000800020200020772F204675656C50756D7020FC
:1000900044726976657220004D756C74692D4675E1
:1000A0006E6374696F6E204D6574657200E200DCEA
:1000B00000D600CF00C900C300BB005741544552D1
:1000C0002E54004F494C2E54004558542E5400468F
:1000D00055454C2E50004F494C2E5000544143483A
:1000E0004F00424F4F535400030028230A000600DC
:1000F000840364006400FFFF000000000000C800EB
:100100003200140011241FBECFEFD8E0DEBFCDBFF8
:1001100011E0A0E0B1E0E0E6F0E202C005900D924F
:10012000AE34B107D9F711E0AEE4B1E001C01D92E1
:10013000A73CB107E1F70E94E2090C942E100C9441
:100140005B0680E280937C0087EE80937A001092B9
:100150007B000895DF92EF92FF920F931F93CF934E
:10016000DF9300E010E08FE1E82EF12C1EC0802F1D
:100170006C2F62D59E01225030402430310510F49E
:100180008D2D09C0C130D10519F0C630D10511F44B
:1001900080E001C080E134D42196C830D10539F720
:1001A0000F5F1F4F0630110561F0C701002E02C01E
:1001B000959587950A94E2F7D82ED094C0E0D0E0C8
:1001C000D6CFDF91CF911F910F91FF90EF90DF90ED
:1001D00008959F92AF92BF92CF92DF92EF92FF92DB
:1001E0000F931F93CF93DF93BC018FE161347807A6
:1001F00010F060E47FE180E090E0CFDDA2DD80E000
:1002000090E0CBDD6B017C0120E030E04AE754E474
:1002100030DD97DD962E062F10E0C0E0D0E05801CB
:1002200003C085E0EDD32196CA15DB05D0F388E045
:100230009816E9F0B801882777FD8095982FAFDDF3
:1002400020E030E04AE754E45EDE9B01AC01C701E8
:10025000B601A6DC20E030E04AE754E40ADD20E005
:1002600030E040EA50E44FDE6CDD862FC9D3C0E0B9
:10027000D0E002C080E0C4D32196CE018A0D9B1D40
:1002800088309105B8F3DF91CF911F910F91FF90C6
:10029000EF90DF90CF90BF90AF909F90089583E054
:1002A0008DBB5B9A8FE0809369001092680010927A
:1002B0006D0010926C0010926B0008958F929F92C7
:1002C000AF92BF92CF92DF92EF92FF920F931F9364
:1002D000CF93DF934B015C01C801B70121E0C21647
:1002E000D10409F442C02DEC3CEC4CEC5DEB07DE94
:1002F0001816DCF182EB88168CE0980680E0A806E0
:1003000080E0B80690F521E2821623E0920620E014
:10031000A20620E0B20638F0C501B4016052734075
:100320008040904003C060E070E0CB01C0914E017E
:10033000D0914F01C656DF4F30DD20E030E249E179
:1003400055E497DC20E030E04AEC52E4DCDDF9DCF7
:10035000AB01BC01C40FD51FAE0160E070E04F3FA0
:1003600051056105710529F020F04FEF50E060E084
:1003700070E0CA01DF91CF911F910F91FF90EF9034
:10038000DF90CF90BF90AF909F908F90089587E7B8
:1003900091E09093600180935F0108952091540152
:1003A00030915501A90146505F4F4817590728F071
:1003B0002A5F30408217930720F490935501809371
:1003C00054012BE188359207F8F080E48093B30064
:1003D00080915201909153018931910579F41092E5
:1003E0005301109252018091020190910301809576
:1003F000909590930301809302010FC00196909312
:1004000053018093520109C08FEF90E09093030154
:100410008093020188E08093B30060915401709151
:1004200055018FE0603A780728F41092620110922B
:10043000610124C02FE0603A720719F481E090E076
:1004400019C08BE16935780718F088E090E012C098
:10045000605A7F4080E090E0A0DC20E030E040E0A7
:1004600051E451DD20E030E84BE355E402DC69DC87
:10047000DC01CB0190936201809361018FEF90E0EA
:100480000090610102C0880F991F0A94E2F78095DD
:10049000909102018923FED308951F920F920FB607
:1004A0000F9211244F935F936F937F938F939F933A
:1004B000EF93FF938091840090918500853691059C
:1004C00028F18091560190915701409184005091FC
:1004D0008500FC01EE0FFF1FEE0FFF1FE958FE4FD6
:1004E00060E070E04083518362837383009729F456
:1004F000109257011092560105C001969093570132
:10050000809356011092850010928400FF91EF9124
:100510009F918F917F916F915F914F910F900FBE3F
:100520000F901F9018951F920F920FB60F921124E3
:100530004F935F936F937F938F939F93EF93FF936B
:100540008091560190915701FC01EE0FFF1FEE0FB5
:10055000FF1FE958FE4F4FEF5FEFBA014083518311
:1005600062837383009729F4109257011092560109
:1005700005C0019690935701809356011092850013
:1005800010928400FF91EF919F918F917F916F91D5
:100590005F914F910F900FBE0F901F901895809113
:1005A000830190918401A0E0B0E080938301909357
:1005B0008401A0938501B09386010895DC01CB01ED
:1005C0008093730190937401A0937501B0937601A9
:1005D00020936B0130936C0140936D0150936E0139
:1005E00008958F929F92AF92BF92CF92DF92EF9237
:1005F000FF928091770190917801A0917901B0915B
:100600007A018093830190938401A0938501B09334
:100610008601C5DFE0915601F0915701EE0FFF1FF3
:10062000EE0FFF1FE958FE4FC080D180E280F380BB
:100630008FEFC8168FEFD80680E0E80680E0F80656
:1006400020F080E090E0DC011BC0609173017091AC
:100650007401809175019091760120916B01309128
:100660006C0140916D0150916E01CFDCCA01B9015E
:10067000A7019601CADCCA01B9018FDBDC01CB01FD
:100680008093630190936401A0936501B093660128
:10069000C0906301D0906401E0906501F090660124
:1006A000C701B60120916F01309170014091710135
:1006B0005091720175DA25E535E545E850E4D5DA63
:1006C00087FF09C0C0926F01D0927001E092710162
:1006D000F092720148C0C0908301D0908401E090F4
:1006E0008501F0908601C0927F01D0928001E09256
:1006F0008101F0928201C0927B01D0927C01E09254
:100700007D01F0927E01C0926701D0926801E09273
:100710006901F0926A016091730170917401809196
:1007200075019091760120916B0130916C0140919F
:100730006D0150916E0169DCCA01B9012EDB4B01DC
:100740005C01C701B60129DB9B01AC01C501B40105
:1007500090DADC01CB0180936F0190937001A0933C
:100760007101B093720160916F017091700180917D
:1007700071019091720120E030E040E752E4C3DB68
:1007800020E030E040E05FE3BEDBDBDA60935B015A
:1007900070935C0180935D0190935E01FF90EF90F8
:1007A000DF90CF90BF90AF909F908F90089586E09C
:1007B00060E042D280E024D186E061E03DD280E07A
:1007C0001FD186E062E038D280E01AD186E063E093
:1007D00033D280E015D186E064E02ED281E110D1E1
:1007E00086E065E029D285E10BD186E066E024D27F
:1007F00085E106D186E067E01FD28AE001D187E07B
:1008000060E01AD280E0FCD087E061E015D280E0A1
:10081000F7D087E062E010D28CE1F2D087E063E0AD
:100820000BD284E1EDD087E064E006D284E1E8D029
:1008300087E065E001D282E1E3D087E066E0FCD1A9
:100840008FE1DED087E067E0F7D181E1D9D008956C
:1008500088E2D6D087E2D4D085EAD2D086E0D0D064
:1008600085EACED080E6CCD089E2CAD0089588E26D
:10087000C7D080E6C5D085EAC3D086E0C1D085EA7E
:10088000BFD087E2BDD089E2BBD0089588E2B8D05E
:100890008FEDB6D087E0B4D08FEDB2D089E2B0D082
:1008A000089584B1876084B9089527E030E090E02E
:1008B0002998289865B1AC01022E02C0559547953C
:1008C0000A94E2F74170462B45B9299A21503040ED
:1008D0004FEF2F3F340761F708958295880F807E90
:1008E000842B6295607F682B862F8F73DEDF2A98BA
:1008F0002A9A2A980895482F4F70409387011092A2
:1009000088018091890160E0E8DF81E080938801BF
:100910008091890161E040918701DFDF10928801B9
:100920008091890160E040918701D7DF089510929E
:100930008801109289011092870180E060E040E018
:10094000CCDF8FEF99EFA0E081509040A040E1F71D
:1009500000C0000083E0CFDFAFE1BEE41197F1F704
:1009600000C0000083E0C7DF87EB91E00197F1F75B
:1009700000C0000083E0BFDFA7ECB0E01197F1F703
:1009800000C0000082E0B7DF87EC90E00197F1F74C
:1009900000C0000082E0AFDF88E0ADDFAFE9BFE07C
:1009A0001197F1F700C0000080E0A5DF8CE0A3DF25
:1009B0008FE99FE00197F1F700C0000080E09BDF26
:1009C00086E099DFAFE9BFE01197F1F700C00000C2
:1009D00080E091DF81E08FDF8FE39FE10197F1F706
:1009E00000C0000080E087DF82E085DFAFE3BFE189
:1009F0001197F1F700C0000081E08093890108950C
:100A0000CF93C82F82958F7076DF8C2F8F7073DF16
:100A100087EC90E00197F1F700C00000CF910895B6
:100A200010928901982F91709295990F990F907C4F
:100A30009068869524E1829F802D1124860F892B52
:100A4000DFDF81E0809389010895CF93DF93EC018C
:100A500001C0D6DF89918823E1F7DF91CF91089516
:100A60002F923F924F925F926F927F928F929F92BE
:100A7000AF92BF92CF92DF92EF92FF920F931F93AC
:100A8000CF93DF93CDB7DEB728970FB6F894DEBFCC
:100A90000FBECDBF6B017C011A01290180E090E0FF
:100AA0004C010EC0C701B60120E030E040E251E445
:100AB0002ADAC62ED72EE82EF92E0894811C911C16
:100AC0008414950479F70130110571F4C701B6015A
:100AD00020E030E0A901C9D887FF1AC08DE290DF7D
:100AE000F7FAF094F7F8F09400E010E06624772429
:100AF0009201220D331D3A832983215030403C83DB
:100B00002B83C10101979E838D8378866F8264C099
:100B10008BE276DFE9CF0215130529F44114510465
:100B200011F08EE26DDF380181E0882E912CA12C2E
:100B3000B12CC501B40105C02AE030E040E050E02E
:100B400045DA0894611C711CE981FA816E167F06F2
:100B500098F34B015C0121D99B01AC01C701B6019F
:100B600088D8EFD8DC01CB013C012F8138852115D5
:100B7000310579F481E090E098878F8361147104E6
:100B800061F4ED81FE810E171F0739F018861F8270
:100B900004C021E030E038872F83B30180E090E08B
:100BA000A501940113DAF9D89B01AC01C701B60184
:100BB000F7D76B01E82EF92EEF81F885309729F4ED
:100BC0002B813C810217130719F4862D805D01C02B
:100BD00080E216DF0F5F1F4F8B819C81801791078A
:100BE00008F099CF28960FB6F894DEBF0FBECDBFA0
:100BF000DF91CF911F910F91FF90EF90DF90CF90F9
:100C0000BF90AF909F908F907F906F905F904F902C
:100C10003F902F9008951092890180E06CDE81E072
:100C20006ADE85E38A95F1F7000081E0809389010F
:100C300080E060E0F5DE0895109289016064880F1D
:100C4000880F880F862BDCDE81E080938901089570
:100C500084B1886384B9089527E030E090E02C984F
:100C60002B9865B1AC01022E02C0559547950A94A8
:100C7000E2F74170507073E0440F551F7A95E1F729
:100C8000642B65B92C9A215030404FEF2F3F340729
:100C900031F70895E1DF2D982D9A2D98089586E07B
:100CA00080938A0185E080938B0183E080938C019F
:100CB00010928D0108951F920F920FB60F9211247A
:100CC000F89480E060E00E94100584E091E00E94CA
:100CD0002505FFCF83E284BD8AE085BD10926E00BA
:100CE00016BC8FEF87BD88BD85B590E0877090708A
:100CF00083309105B1F0843091053CF48130910549
:100D0000F9F082309105E1F407C08430910571F06B
:100D100085309105A9F40FC088E090E0A0E0B0E034
:100D200013C080E490E0A0E0B0E00EC080E091E06D
:100D3000A0E0B0E009C080E094E0A0E0B0E004C032
:100D400081E090E0A0E0B0E080938E0190938F016D
:100D5000A0939001B093910108951092800083E0D8
:100D6000809381001092820081E080936F00109246
:100D70008500109284008FEF9FEF909389008093FD
:100D800088008091810090E0877090708330910599
:100D9000B1F0843091053CF481309105F9F0823056
:100DA0009105E1F407C08430910571F0853091051B
:100DB000A9F40FC088E090E0A0E0B0E013C080E4A8
:100DC00090E0A0E0B0E00EC080E091E0A0E0B0E0F4
:100DD00009C080E094E0A0E0B0E004C081E090E0D1
:100DE000A0E0B0E08093940190939501A0939601C8
:100DF000B093970108951092B00087E08093B100FE
:100E000083E0809370001092B20088E08093B3007A
:100E10008091B10090E08770907084309105F1F07E
:100E2000853091053CF48230910571F08330910555
:100E300084F428C086309105D9F0863091059CF065
:100E400087309105F9F419C088E090E0A0E0B0E0A7
:100E50001DC080E290E0A0E0B0E018C080E490E027
:100E6000A0E0B0E013C080E890E0A0E0B0E00EC0E9
:100E700080E091E0A0E0B0E009C080E094E0A0E074
:100E8000B0E004C081E090E0A0E0B0E08093AA016F
:100E90009093AB01A093AC01B093AD0108951F9264
:100EA0000F920FB60F9211242F933F934F935F939E
:100EB0006F937F938F939F93AF93BF93EF93FF9322
:100EC0000E94D709482F50E09A01207F30702115E9
:100ED0003105D9F4AAE8B1E080E090E0ED91F0E0CE
:100EE000EF5CFE4F208130E04217530749F49093A6
:100EF00093018093920110922C0110922B012FC02C
:100F000001968430910551F72AC020912B01309130
:100F10002C012430310518F5409192015091930134
:100F2000FA01EE0FFF1FEE0FFF1FE20FF31FE65651
:100F3000FE4F80832330310561F44B545E4F81E0D6
:100F4000FA0180838FEF90E090932C0180932B0126
:100F500006C02F5F3F4F30932C0120932B01FF9150
:100F6000EF91BF91AF919F918F917F916F915F9121
:100F70004F913F912F910F900FBE0F901F9018959A
:100F80001F920F920FB60F9211242F933F934F93FE
:100F90005F936F937F938F939F93AF93BF93EF93E1
:100FA000FF938091B9019091BA0101969093BA0193
:100FB0008093B901EAE7F0E08081806480838091CA
:100FC0005B0190915C010E94CE01FF91EF91BF9176
:100FD000AF919F918F917F916F915F914F913F91D1
:100FE0002F910F900FBE0F901F9018951F920F9288
:100FF0000FB60F9211242F933F934F935F936F93EC
:101000007F938F939F93AF93BF93EF93FF9380E072
:101010000E944A06FF91EF91BF91AF919F918F91EE
:101020007F916F915F914F913F912F910F900FBEE4
:101030000F901F901895FC0120E030E002C02F5F58
:101040003F4F81918823D9F7C90108951F920F92CC
:101050000FB60F9211248F9380915801882321F4A9
:1010600081E08093580102C0109258018F910F9037
:101070000FBE0F901F9018950F931F93CF93DF9380
:10108000CDB7DEB7A1970FB6F894DEBF0FBECDBFC8
:101090000AE811E020E0822F60E029A30E941005F9
:1010A000D801ED918D01F0E0EE0FFF1FE355FF4FEA
:1010B0006491CE01019670E00E942710CE01019646
:1010C0000E94250529A12F5F243029F7A1960FB68C
:1010D000F894DEBF0FBECDBFDF91CF911F910F916E
:1010E0000895CF92DF92EF92FF92CF93DF93EC01BE
:1010F00080E090E052D66B017C01BE0180E090E080
:101100004CD69B01AC01C701B601B3D5DC01CB01C4
:101110008093C3019093C401A093C501B093C6010D
:10112000DF91CF91FF90EF90DF90CF900895809165
:10113000840090918500A0E0B0E08093BB01909383
:10114000BC01A093BD01B093BE0108950F931F93FE
:101150008091840090918500A0E0B0E08093BF0171
:101160009093C001A093C101B093C2010091BB0153
:101170001091BC012091BD013091BE01AC01BD01B7
:10118000401B510B620B730B081719072A073B070B
:1011900020F4405050406F4F7F4FCB01BA01FDD536
:1011A0002091C3013091C4014091C5015091C60105
:1011B000AAD6C7D51F910F9108959093C50080932B
:1011C000C40088E98093C10086E28093C200109237
:1011D000C00008959091C00095FFFCCF8093C60099
:1011E0000895CF93DF93EC0101C0F4DF8991882348
:1011F000E1F7DF91CF9108952F923F924F925F9246
:101200006F927F928F929F92AF92BF92CF92DF9216
:10121000EF92FF920F931F93CF93DF93CDB7DEB77B
:1012200028970FB6F894DEBF0FBECDBF6B017C01CF
:101230001A01290180E090E04C010EC0C701B601FF
:1012400020E030E040E251E45ED6C62ED72EE82EF4
:10125000F92E0894811C911C8414950479F70130AF
:10126000110571F4C701B60120E030E0A901FDD4F9
:1012700087FF1AC08DE2AEDFF7FAF094F7F8F0942A
:1012800000E010E0662477249201220D331D3A839A
:101290002983215030403C832B83C10101979E83D9
:1012A0008D8378866F8264C08BE294DFE9CF02156C
:1012B000130529F44114510411F08EE28BDF38013B
:1012C00081E0882E912CA12CB12CC501B40105C060
:1012D0002AE030E040E050E079D60894611C711CAF
:1012E000E981FA816E167F0698F34B015C0155D5B2
:1012F0009B01AC01C701B601BCD423D5DC01CB01F5
:101300003C012F8138852115310579F481E090E089
:1013100098878F836114710461F4ED81FE810E174B
:101320001F0739F018861F8204C021E030E038879B
:101330002F83B30180E090E0A501940147D62DD51D
:101340009B01AC01C701B6012BD46B01E82EF92E2D
:10135000EF81F885309729F42B813C810217130720
:1013600019F4862D805D01C080E234DF0F5F1F4FCE
:101370008B819C818017910708F099CF28960FB632
:10138000F894DEBF0FBECDBFDF91CF911F910F91BB
:10139000FF90EF90DF90CF90BF90AF909F908F9095
:1013A0007F906F905F904F903F902F900895809125
:1013B000C00087FFFCCF8091C0008091C000809169
:1013C000C6000895CF93DF93CDB7DEB7C855D040A0
:1013D0000FB6F894DEBF0FBECDBF0E9451040E942D
:1013E00028060E9497040E946A060E94AD060E9489
:1013F000FB06559A83E390E00E94DD080E94A1005D
:101400000E944F01209194013091950140919601E5
:101410005091970160E074E284EF90E00E94DE0258
:101420000E94AA000E944F06B8E3AB2EB1E0BB2E8B
:101430001FE3812E11E0912E00E010E08BE0F82EEA
:1014400032C04F5F242F30E028173907D4F3F8015A
:10145000EE0FFF1FE355FF4F6491CE018E9670E0B3
:101460000E942710CE018E960E941B08F801E255BB
:10147000FE4F8083AFE0B0E0AC0FBD1FA00FB11FE7
:101480009F2D9E19981BF801EA5BFE4F8081981BE7
:1014900081E0EC1409F480E0981B9C930F5F1F4FD0
:1014A0000730110561F0D501ED905D01F401C190A7
:1014B0004F018E2D90E08C19910940E0C3CF81E05F
:1014C00090E09A87898780E190E09C878B8780E015
:1014D00091E09E878D876091AA017091AB01809108
:1014E000AC019091AD010E94CD0E9B01AC0160E07A
:1014F00074E284E79BE40E94390E20E030E04AE782
:1015000053E40E94830F20E030E040E85BE30E9458
:10151000830F20E030E04AE754E40E94390E0E9435
:10152000A10EDC01CB01909399018093980100E01A
:1015300010E0E1E0EE2EF12CC701002E02C0880F72
:10154000991F0A94E2F70E944A062FEF3DEE42E00F
:10155000215030404040E1F700C000000F5F1F4FB6
:101560000930110549F78FEF90E7A2E081509040D4
:10157000A040E1F700C0000000E010E0802F8F5F86
:1015800060E00E941005F801EE0FFF1FE859FF4FC1
:101590006491CE018E9670E00E9427103EE2E32E09
:1015A000F12CEC0EFD1E90E0D7018D917D01699626
:1015B0009FAF69970E9400052FEF39EF40E021505F
:1015C00030404040E1F700C0000069969FAD699748
:1015D0009F5F943149F70F5F1F4F0330110571F67C
:1015E00000E010E09FEFE92EF12CC701002E02C0B1
:1015F000880F991F0A94E2F780950E944A068FEFA0
:1016000096E7A1E081509040A040E1F700C00000C3
:101610000F5F1F4F0930110541F72FEF34E34CE006
:10162000215030404040E1F700C0000000E010E0F1
:101630008FEFE82EF12CC701002E02C095958795FB
:101640000A94E2F70E944A068FEF96E7A1E08150E4
:101650009040A040E1F700C000000F5F1F4F09302D
:10166000110549F72FEF30E742E02150304040406C
:10167000E1F700C000008FEF0E944A068FE799EA69
:10168000A3E081509040A040E1F700C0000080E05E
:101690000E944A062FE739EA43E02150304040409B
:1016A000E1F700C000008FEF0E944A068FE799EA39
:1016B000A3E081509040A040E1F700C0000080E02E
:1016C0000E944A062FE739EA43E02150304040406B
:1016D000E1F700C0000000E0802F60E00E941005EC
:1016E00014E180E20E9400058FE59AEE0197F1F780
:1016F00000C000001150A9F70F5F043069F781E0C6
:101700008093B5011F8A1E8A8093B601198E188EA8
:101710008093B7011B8E1A8E8093B8011D8E1C8E8C
:101720007894DE0119966096BFAFAEAF6097809156
:101730002D01882399F00E943C082091300130E06F
:10174000C901837090709595879520FF02C068E06D
:1017500001C067E00E94100510922D0175EB472E25
:1017600071E0572EFE017E966496FFAFEEAF649750
:101770009E012B5F3F4F68963FAF2EAF6897A6E163
:101780008A2E912C8C0E9D1E4AE951E066965FAF21
:101790004EAF669759016296FFAFEEAF629766242F
:1017A00077248401D2018C91813009F09CC01C9275
:1017B000F80111821082F301E657FE4FC08080E0ED
:1017C00090E06696EEADFFAD6697E80FF91F2181B8
:1017D000322F3154363018F020532A3040F4E1E0F3
:1017E000D501EC9301968330910559F702C0D501DC
:1017F0001C92F5018081813009F08AC0F301EE0F5F
:10180000FF1FEE0FFF1FE556FE4FDE011296BE01D1
:10181000615F7F4FEE24FF244F01F40181914F015E
:10182000282F30E0207F30702033310511F48F7085
:1018300005C020343105C9F48F70875F8C938D917A
:1018400090E0FB0132912291BF01829FA001839F12
:10185000500D929F500D1124E40EF51E60962EAD92
:101860003FAD6097E217F307C1F68C2D90E0880F2B
:10187000991FFC01E851FF4F85909490FC01EA50BC
:10188000FF4F25903490B70180E090E00E94CD0E8C
:1018900020E030E043E155E40E94390E6B017C0109
:1018A000B40180E090E00E94CD0E9B01AC01C70125
:1018B000B6010E94830F6B017C01B10180E090E0D2
:1018C0000E94CD0E9B01AC01C701B6010E94D10D53
:1018D000DC01CB016296EEADFFAD62978083918310
:1018E000A283B38315C0D8018D919C91119780314B
:1018F000910549F4F501108287EC90E00197F1F72A
:1019000000C0000005C00196D80111969C938E93EB
:101910000894611C711C0894411C511C6296EEAD28
:10192000FFAD629734966296FFAFEEAF6297089470
:10193000A11CB11C0E5F1F4F66962EAD3FAD669782
:101940002C5F3F4F66963FAF2EAF669734E063162D
:10195000710409F027CF0E94F10260935B0170933C
:101960005C0180935D0190935E01609079002EA1EF
:101970003FA148A559A5EAA4FBA40CA51DA5C090AC
:101980005801DD240E945E0188BD2091B90130918B
:10199000BA0180919801909199018217930708F0FC
:1019A000BCC01092BA011092B9013AE8A32E31E0FE
:1019B000B32EEE244AE0842E912CD501CD905D010A
:1019C000DD24860102551E4F8E2DF80160810E9494
:1019D0001005FF2404C080E20E940005F394D801A2
:1019E0006C918F2D90E09401261B3109281739073F
:1019F00094F78E2D0E941005FF240FE010E00C0FCD
:101A00001D1F0C0D1D1D04C080E20E940005F394F3
:101A1000F8018081F816C0F36896AEADBFAD689747
:101A20008D916896BFAFAEAF68978130E1F4F60153
:101A3000E15CFE4F40816496EEADFFAD649760813E
:101A4000718182819381F601E85CFE4F208130E054
:101A5000241B3109F601EA5BFE4F008150E010E0E3
:101A60000E9430052BC0882331F028C080E20E94FC
:101A700000051F5F0EC010E0F601E85CFE4F00811C
:101A8000F601E15CFE4FF080F601EA5BFE4FC0809C
:101A9000DD24212F30E081E090E00F1511F480E08B
:101AA00090E08C0D9D1D2817390704F310E004C049
:101AB0008AE20E9400051F5F1017D1F7E394649635
:101AC0002EAD3FAD64972C5F3F4F64963FAF2EAF76
:101AD000649734E0E31609F070CF82E06CE00E9476
:101AE000100581E191E00E942505662D70E080E0FF
:101AF00090E00E94CD0E21EF30EF40E75DE30E94C1
:101B0000830F42E050E021E030E000E010E00E946E
:101B1000300585E191E00E94250580E06CE00E949F
:101B2000100560915B0170915C0180E090E00E9483
:101B3000CD0E45E050E020E030E000E010E00E94F3
:101B4000300587E191E00E94250581E06CE00E946C
:101B50001005809158018823F1F48BE191E00E94F7
:101B6000250598B581E09F3F08F480E064E6869FF4
:101B7000B0011124882777FD8095982F0E94CF0E01
:101B800043E050E020E030E000E010E00E9430054B
:101B900080E291E002C082E291E00E942505C7CD7B
:101BA0005058BB27AA270ED070C161D130F066D142
:101BB00020F031F49F3F11F41EF456C10EF4E0956D
:101BC000E7FB4CC1E92F72D180F3BA1762077307A4
:101BD0008407950718F071F49EF58AC10EF4E0951C
:101BE0000B2EBA2FA02D0B01B90190010C01CA01D7
:101BF000A0011124FF27591B99F0593F50F4503E82
:101C000068F11A16F040A22F232F342F4427585F73
:101C1000F3CF469537952795A795F0405395C9F78B
:101C20007EF41F16BA0B620B730B840BBAF0915043
:101C3000A1F0FF0FBB1F661F771F881FC2F70EC0E2
:101C4000BA0F621F731F841F48F4879577956795B5
:101C5000B795F7959E3F08F0B3CF9395880F08F09E
:101C60009927EE0F979587950895D4D008F481E0D1
:101C700008950CD00AC102D140F0F9D030F021F41F
:101C80005F3F19F0EBC0511134C1EEC00FD198F392
:101C90009923C9F35523B1F3951B550BBB27AA27ED
:101CA00062177307840738F09F5F5F4F220F331F5F
:101CB000441FAA1FA9F333D00E2E3AF0E0E830D02B
:101CC00091505040E695001CCAF729D0FE2F27D02E
:101CD000660F771F881FBB1F261737074807AB07FC
:101CE000B0E809F0BB0B802DBF01FF2793585F4F71
:101CF0002AF09E3F510568F0B1C0FBC05F3FECF396
:101D0000983EDCF3869577956795B795F7959F5F35
:101D1000C9F7880F911D9695879597F90895E1E089
:101D2000660F771F881FBB1F621773078407BA07E8
:101D300020F0621B730B840BBA0BEE1F88F7E09543
:101D40000895BCD088F09F5790F0B92F9927B751CC
:101D5000A0F0D1F0660F771F881F991F1AF0BA956F
:101D6000C9F712C0B13081F0C3D0B1E00895C0C04E
:101D7000672F782F8827B85F39F0B93FCCF3869565
:101D800077956795B395D9F73EF4909580957095C2
:101D900061957F4F8F4F9F4F0895E89409C097FB3F
:101DA0003EF490958095709561957F4F8F4F9F4F32
:101DB0009923A9F0F92F96E9BB279395F695879576
:101DC00077956795B795F111F8CFFAF4BB0F11F439
:101DD00060FF1BC06F5F7F4F8F4F9F4F16C08823E0
:101DE00011F096E911C0772321F09EE8872F762F16
:101DF00005C0662371F096E8862F70E060E02AF057
:101E00009A95660F771F881FDAF7880F9695879542
:101E100097F90895990F0008550FAA0BE0E8FEEF17
:101E200016161706E807F907C0F012161306E4079E
:101E3000F50798F0621B730B840B950B39F40A2697
:101E400061F0232B242B252B21F408950A2609F475
:101E5000A140A6958FEF811D811D089597F99F6779
:101E600080E870E060E008959FEF80EC0895002422
:101E70000A941616170618060906089500240A94EF
:101E800012161306140605060895092E0394000C75
:101E900011F4882352F0BB0F40F4BF2B11F460FF04
:101EA00004C06F5F7F4F8F4F9F4F089557FD90582D
:101EB000440F551F59F05F3F71F04795880F97FB0E
:101EC000991F61F09F3F79F08795089512161306C8
:101ED0001406551FF2CF4695F1DF08C016161706F7
:101EE0001806991FF1CF869571056105089408952C
:101EF000E894BB2766277727CB0197F908958ADFF7
:101F000008F48FEF08950BD0C0CFB1DF28F0B6DF13
:101F100018F0952309F0A2CFA7CF1124EACFC6DF8E
:101F2000A0F3959FD1F3950F50E0551F629FF001EC
:101F3000729FBB27F00DB11D639FAA27F00DB11D45
:101F4000AA1F649F6627B00DA11D661F829F2227CE
:101F5000B00DA11D621F739FB00DA11D621F839F55
:101F6000A00D611D221F749F3327A00D611D231F2B
:101F7000849F600D211D822F762F6A2F11249F5779
:101F800050408AF0E1F088234AF0EE0FFF1FBB1F9C
:101F9000661F771F881F91505040A9F79E3F51053B
:101FA00070F05CCFA6CF5F3FECF3983EDCF38695F4
:101FB00077956795B795F795E7959F5FC1F7FE2BE6
:101FC000880F911D9695879597F90895629FD00186
:101FD000739FF001829FE00DF11D649FE00DF11DE4
:101FE000929FF00D839FF00D749FF00D659FF00D93
:101FF0009927729FB00DE11DF91F639FB00DE11D80
:10200000F91FBD01CF0111240895A1E21A2EAA1BC8
:10201000BB1BFD010DC0AA1FBB1FEE1FFF1FA21798
:10202000B307E407F50720F0A21BB30BE40BF50B95
:10203000661F771F881F991F1A9469F7609570951E
:10204000809590959B01AC01BD01CF010895FB01E6
:10205000DC0105900D920020E1F70895F894FFCF80
:102060000800FF00424144495352204552524F520A
:102070000046502000560072706D004455545900BF
:1020800025003D4650204D41583D00FF0001FFFF17
:10209000040102030405070F0304030304030301FF
:0E20A000040201040303010000000000000020
:00000001FF
