:1000000019C031C132C031C030C02FC02EC0D8C6D7
:100010002CC0B6C62AC029C028C06CC126C025C0C5
:1000200024C023C01FC621C020C01FC01EC01DC0C9
:100030001CC01BC011241FBECFEFD4E0DEBFCDBF5C
:1000400011E0A0E0B1E0E0ECFAE102C005900D9211
:10005000A438B107D9F712E0A4E8B1E001C01D92BD
:10006000AD34B107E1F79AD729CD09C580E2809375
:100070007C0087EC80937A0010927B000895DF92D9
:10008000EF92FF920F931F93CF93DF9300E010E066
:100090008FE1E82EF12C1EC0802F6C2FDAD49E0148
:1000A000225030402430310510F48D2D09C0C1306C
:1000B000D10519F0C630D10511F480E001C080E10E
:1000C000AAD32196C830D10539F70F5F1F4F0630EC
:1000D000110561F0C701002E02C0959587950A941D
:1000E000E2F7D82ED094C0E0D0E0D6CFDF91CF9108
:1000F0001F910F91FF90EF90DF9008954F925F92C4
:100100007F928F929F92AF92BF92CF92DF92EF92A7
:10011000FF920F931F93CF93DF93BC018536910518
:1001200010F064E670E080E090E072DB45DB80E098
:1001300090E06EDB4B015C01C0900001D0900101AA
:10014000E0900201F0900301A7019601CDDA34DBC3
:10015000762E062F10E0C0E0D0E0280103C085E035
:100160005AD32196C415D505D0F388E07816D9F076
:10017000B801882777FD8095982F4CDB9B01AC0157
:10018000C701B601F7DB9B01AC01C501B40143DA3D
:10019000A7019601A9DA20E030E040EA50E4EADB6A
:1001A0000BDB862F38D3C0E0D0E002C080E033D331
:1001B0002196CE01840D951D88309105B8F3DF910D
:1001C000CF911F910F91FF90EF90DF90CF90BF9054
:1001D000AF909F908F907F905F904F90089512BC4A
:1001E00011BC10BC1FBA089504C0F89407B600FCF7
:1001F000FCCFF999FBCF81BD60BD84E08FBB82E06D
:100200008FBB7894089504C0F89407B600FCFCCF27
:10021000F999FBCF81BD81E08FBB789480B50895BB
:1002200081E08DBB83E0809369001092680010929A
:100230006D0010926C0010926B000895DC01CB01F0
:10024000883B2BE0920720E0A20720E0B20728F4C9
:100250004FE750E060E070E004C04FEF50E060E036
:1002600070E0CA0108951F920F920FB60F921124E9
:100270004F935F936F937F938F939F93EF93FF932E
:1002800080918400909185008536910530F18091B0
:100290008401909185014091840050918500FC017A
:1002A000EE0FFF1FEE0FFF1FEE55FE4F60E070E0F8
:1002B00040835183628373838730910529F41092C0
:1002C00085011092840105C0019690938501809369
:1002D00084011092850010928400FF91EF919F910C
:1002E0008F917F916F915F914F910F900FBE0F9003
:1002F0001F9018951F920F920FB60F9211244F93D3
:100300005F936F937F938F939F93EF93FF9380916E
:10031000840190918501FC01EE0FFF1FEE0FFF1F7E
:10032000EE55FE4F4FEF5FEFBA014083518362837A
:1003300073838730910529F410928501109284010E
:1003400005C00196909385018093840110928500E9
:1003500010928400FF91EF919F918F917F916F9107
:100360005F914F910F900FBE0F901F901895AF9215
:10037000BF92CF92DF92EF92FF920F931F93CF9392
:10038000DF930AEC11E0CC24DD24AA24BB2438C07E
:10039000F801EC0FFD1F80819181A281B381A7013B
:1003A00060E070E084179507A607B70710F47C019A
:1003B00059012F5F3F4F24962830310549F7D80166
:1003C0008D919C911197F501EE0FFF1FEE0FFF1F0E
:1003D000E653FE4F40815181628173814D935D935D
:1003E0006D937D938D01A0E0B0E080839183A28323
:1003F000B3830894C11CD11CB8E0CB16D10439F0EA
:100400009601C0E0D0E0EE24EA94FE2CC1CFDF914B
:10041000CF911F910F91FF90EF90DF90CF90BF9001
:10042000AF900895DC01CB0180939E0190939F01D2
:10043000A093A001B093A10120939601309397015E
:10044000409398015093990108958F929F92AF9293
:10045000BF92CF92DF92EF92FF92E2EAF1E0AAEC34
:10046000B1E041915191619171914D935D936D9383
:100470007D9381E0E23CF807A1F779DFE091840108
:10048000F0918501EE0FFF1FEE0FFF1FEE55FE4F9F
:10049000C080D180E280F3808FEFC8168FEFD8063E
:1004A00080E0E80680E0F80620F080E090E0DC01E3
:1004B0001BC060919E0170919F018091A00190915D
:1004C000A10120919601309197014091980150919E
:1004D0009901D2DACA01B901A7019601CDDACA01A0
:1004E000B90196D9DC01CB0180938E0190938F01E5
:1004F000A0939001B0939101C0908E01D0908F0194
:10050000E0909001F0909101C701B60120919A010D
:1005100030919B0140919C0150919D017CD825E533
:1005200035E545E850E4DCD887FF09C0C0929A0160
:10053000D0929B01E0929C01F0929D0158C0809165
:10054000CA019091CB01A091CC01B091CD018093D3
:10055000C6019093C701A093C801B093C9018091CF
:10056000E6019091E701A091E801B091E901809343
:10057000C2019093C301A093C401B093C501C09080
:10058000DA01D090DB01E090DC01F090DD01C09257
:100590009201D0929301E0929401F09295016091C2
:1005A0009E0170919F018091A0019091A1012091E5
:1005B00096013091970140919801509199015CDA30
:1005C000CA01B90125D94B015C01C701B60120D987
:1005D0009B01AC01C501B40187D8DC01CB0180933C
:1005E0009A0190939B01A0939C01B0939D0160910F
:1005F0009A0170919B0180919C0190919D0120E056
:1006000030E040E752E4B6D920E030E040E05FE37C
:10061000B1D9D2D860938A0170938B0180938C01F9
:1006200090938D01FF90EF90DF90CF90BF90AF90AF
:100630009F908F90089586E060E00BD280E0EBD031
:1006400086E061E006D280E0E6D086E062E001D29A
:1006500080E0E1D086E063E0FCD180E0DCD086E0A1
:1006600064E0F7D181E1D7D086E065E0F2D185E1A1
:10067000D2D086E066E0EDD185E1CDD086E067E0BE
:10068000E8D18AE0C8D087E060E0E3D180E0C3D061
:1006900087E061E0DED180E0BED087E062E0D9D1C2
:1006A0008CE1B9D087E063E0D4D184E1B4D087E0B5
:1006B00064E0CFD184E1AFD087E065E0CAD182E1C8
:1006C000AAD087E066E0C5D18FE1A5D087E067E0DA
:1006D000C0D181E1A0D0089588E29DD087E29BD06F
:1006E00085EA99D086E097D085EA95D080E693D0C8
:1006F00089E291D0089588E28ED080E68CD085EA98
:100700008AD086E088D085EA86D087E284D089E2E4
:1007100082D0089588E27FD08FED7DD087E07BD0B6
:100720008FED79D089E277D0089588B985B198E0C6
:10073000892785B98AE68A95F1F700C085B18927AE
:1007400085B98AE68A95F1F700C008958FE087B9E8
:1007500084B915B818B88FEF99EFA0E08150904098
:10076000A040E1F700C0000083E0DFDFAFE1BEE4BE
:100770001197F1F700C0000083E0D7DF87EB91E02D
:100780000197F1F700C0000083E0CFDFA7ECB0E0F5
:100790001197F1F700C0000082E0C7DF87EC90E01E
:1007A0000197F1F700C0000082E0BFDF88E0BDDF05
:1007B000AFE9BFE01197F1F700C0000080E0B5DFBE
:1007C0008CE0B3DF8FE99FE00197F1F700C00000F4
:1007D00080E0ABDF83E0A9DFAFE9BFE01197F1F77D
:1007E00000C0000080E0A1DF81E09FDF8FE39FE198
:1007F0000197F1F700C0000080E097DF82E095DF0D
:10080000AFE3BFE11197F1F700C0000085B192E0BE
:10081000892785B90895CF93C82F82958F7085DF7A
:100820008C2F8F7082DF8FE99FE00197F1F700C076
:100830000000CF910895CF9395B1C2E09C2795B960
:1008400060688295880F880F807C862BE4DF85B1F5
:100850008C2785B9CF910895CF93DF93EC0101C028
:10086000DADF89918823E1F7DF91CF9108952F9204
:100870003F924F925F926F927F928F929F92AF9230
:10088000BF92CF92DF92EF92FF920F931F93CF937D
:10089000DF93CDB7DEB728970FB6F894DEBF0FBE53
:1008A000CDBF6B017C011A01290180E090E04C0171
:1008B0000EC0C701B60120E030E040E251E45AD852
:1008C000C62ED72EE82EF92E0894811C911C841474
:1008D000950479F70130110571F4C701B60120E0E4
:1008E00030E0A901FDD687FF1AC08DE294DFF7FA48
:1008F000F094F7F8F09400E010E066247724920179
:10090000220D331D3A832983215030403C832B83B1
:10091000C10101979E838D8378866F8264C08BE2CC
:100920007ADFE9CF0215130529F44114510411F0BF
:100930008EE271DF380181E0882E912CA12CB12C40
:10094000C501B40105C02AE030E040E050E075D8B0
:100950000894611C711CE981FA816E167F0698F378
:100960004B015C0155D79B01AC01C701B601BCD658
:1009700023D7DC01CB013C012F81388521153105BE
:1009800079F481E090E098878F836114710461F4B9
:10099000ED81FE810E171F0739F018861F8204C0F3
:1009A00021E030E038872F83B30180E090E0A5019B
:1009B000940143D82DD79B01AC01C701B6012BD6BA
:1009C0006B01E82EF92EEF81F885309729F42B8101
:1009D0003C810217130719F4862D805D01C080E267
:1009E0001ADF0F5F1F4F8B819C818017910708F0E2
:1009F00099CF28960FB6F894DEBF0FBECDBFDF911A
:100A0000CF911F910F91FF90EF90DF90CF90BF900B
:100A1000AF909F908F907F906F905F904F903F909E
:100A20002F900895CF9385B1C2E08C2785B980E0DF
:100A30007CDE81E07ADE8FE39FE10197F1F700C071
:100A4000000085B18C2785B980E060E0F4DECF91AD
:100A50000895CF9395B1C2E09C2795B96064880F43
:100A6000880F880F862BD7DE85B18C2785B9CF916B
:100A7000089583E08093F8011092F90108951F9280
:100A80000F920FB60F921124F89480E060E0D3DE4D
:100A900084E091E0E1DEFFCF83E284BD8AE085BDA2
:100AA00010926E0016BC8FED87BD88E088BD85B5BD
:100AB00090E08770907083309105B1F0843091059B
:100AC0003CF481309105F9F082309105E1F407C0E2
:100AD0008430910571F085309105A9F40FC088E04C
:100AE00090E0A0E0B0E013C080E490E0A0E0B0E0CF
:100AF0000EC080E091E0A0E0B0E009C080E094E0AA
:100B0000A0E0B0E004C081E090E0A0E0B0E080931D
:100B1000FA019093FB01A093FC01B093FD010895AD
:100B20001092800083E0809381001092820081E027
:100B300080936F0010928500109284008FEF9FEFDA
:100B400090938900809388008091810090E0877065
:100B5000907083309105B1F0843091053CF4813080
:100B60009105F9F082309105E1F407C084309105D8
:100B700071F085309105A9F40FC088E090E0A0E005
:100B8000B0E013C080E490E0A0E0B0E00EC080E0F0
:100B900091E0A0E0B0E009C080E094E0A0E0B0E027
:100BA00004C081E090E0A0E0B0E080930E0290935A
:100BB0000F02A0931002B093110208951092B0009A
:100BC00087E08093B10083E0809370001092B200C0
:100BD00088E08093B3008091B10090E087709070BE
:100BE00084309105F1F0853091053CF48230910517
:100BF00071F08330910584F428C086309105D9F0D6
:100C0000863091059CF087309105F9F419C088E091
:100C100090E0A0E0B0E01DC080E290E0A0E0B0E095
:100C200018C080E490E0A0E0B0E013C080E890E05D
:100C3000A0E0B0E00EC080E091E0A0E0B0E009C02C
:100C400080E094E0A0E0B0E004C081E090E0A0E0AB
:100C5000B0E080931C0290931D02A0931E02B093FB
:100C60001F0208951F920F920FB60F9211242F9317
:100C70003F934F935F936F937F938F939F93AF9324
:100C8000BF93EF93FF9352D1682F70E09B01207FB9
:100C900030702115310531F5E091F801F0E0E758A9
:100CA000FE4F808190E06817790769F0E091F901C3
:100CB000F0E0E758FE4F808190E06817790769F40B
:100CC00081E090E002C080E090E09093FF0180938B
:100CD000FE01109277011092760110928701109216
:100CE000860133C02091760130917701243031059F
:100CF00060F54091FE015091FF01FA01EE0FFF1FD8
:100D0000EE0FFF1FE20FF31FEC5EFD4F80832330D9
:100D1000310561F4495D5D4F81E0FA0180838FEF19
:100D200090E0909377018093760106C02F5F3F4F4C
:100D3000309377012093760180918601909187010D
:100D400001969093870180938601E0918601F0914E
:100D50008701EE0FFF1FE95CFD4F71836083FF91F8
:100D6000EF91BF91AF919F918F917F916F915F9123
:100D70004F913F912F910F900FBE0F901F9018959C
:100D80001F920F920FB60F9211248F939F93EF93A0
:100D9000FF9380913F029091400201969093400210
:100DA00080933F02EAE7F0E0808180648083FF91D6
:100DB000EF919F918F910F900FBE0F901F901895FC
:100DC0001F920F920FB60F9211240F900FBE0F902B
:100DD0001F901895FC0120E030E002C02F5F3F4FCC
:100DE00081918823D9F7C9010895CF93DF9380E0DB
:100DF00060E021DDE091F801F0E0CAEED1E0EE0F15
:100E0000FF1FEC0FFD1F8081918126DD81E060E0F6
:100E100012DDE091F901F0E0EE0FFF1FEC0FFD1F76
:100E20008081918119DDDF91CF910895CF92DF927A
:100E3000EF92FF92CF93DF93EC0180E090E0E8D453
:100E40006B017C01BE0180E090E0E2D49B01AC012B
:100E5000C701B60149D4DC01CB01809349029093CC
:100E60004A02A0934B02B0934C02DF91CF91FF90C6
:100E7000EF90DF90CF90089580918400909185004D
:100E8000A0E0B0E08093410290934202A09343021D
:100E9000B093440208950F931F9380918400909122
:100EA0008500A0E0B0E08093450290934602A093B5
:100EB0004702B093480200914102109142022091F2
:100EC000430230914402AC01BD01401B510B620B47
:100ED000730B081719072A073B0720F440505040AE
:100EE0006F4F7F4FCB01BA0193D4209149023091CB
:100EF0004A0240914B0250914C023CD55DD41F9167
:100F00000F9108959093C5008093C40080E9809369
:100F1000C10086E28093C2001092C00008959091B3
:100F2000C00095FFFCCF8093C60008958091C0005B
:100F300087FFFCCF2091C0008091C00090E08470BA
:100F4000907030E020713070822B932B009719F451
:100F50008091C60008958091C6008FEF089580E0CB
:100F600095E02091C00027FF15C02091C00080911E
:100F7000C00090E08470907030E020713070822B5F
:100F8000932B009719F48091C60008958091C600B4
:100F90008FEF0895019729F78FEF0895CF93DF938F
:100FA000CDB7DEB7C355D0400FB6F894DEBF0FBE45
:100FB000CDBFCCDB71DDB4DD01DE559A89E190E077
:100FC000A1DF54D82DD960910E0270910F0280E0FC
:100FD00092E12CDF20910E0230910F02409110021D
:100FE0005091110260E072E18AE790E01BDA47D885
:100FF00022DB3FDDDE01DF96ECE4F1E08EE00190E4
:101000000D928150E1F7DE01D196EAE5F1E08EE044
:1010100001900D928150E1F7DE019296E8E6F1E051
:1010200087E001900D928150E1F7DE015B96EFE6DB
:10103000F1E087E001900D928150E1F781E08C8B27
:101040001D8A1E8A1F8A188E198E1A8E83E391E0DC
:101050009093EB018093EA0186E391E09093ED0198
:101060008093EC0189E391E09093EF018093EE018E
:101070008CE391E09093F1018093F0018FE391E094
:101080009093F3018093F20182E491E09093F50153
:101090008093F40185E491E09093F7018093F60149
:1010A00022E2A22EB12CAC0EBD1E3BE1832E912C70
:1010B0008C0E9D1E00E010E047E0C42E2FC04F5F55
:1010C000242F30E028173907D4F3F801EE0FFF1F63
:1010D000E651FE4F808191817DDEF801E05EFD4F9B
:1010E0008083ADE0B0E0AC0FBD1FA00FB11F9C2D01
:1010F0009F19981B81E0FE1409F480E0981B892F4A
:10110000E4E1F0E0EC0FFD1FE00FF11F9081891B7F
:101110008C930F5F1F4F0730110561F0D501FD90D3
:101120005D01F401E1904F018F2D90E08E1991093E
:1011300040E0C6CF81E090E098878F8380E190E027
:101140009A87898780E091E09C878B8760911C0259
:1011500070911D0280911E0290911F0259D39B0134
:10116000AC0160E074E284EF9AE4BED220E030E0AB
:101170004AE753E4FFD320E030E040E85BE3FAD3F2
:1011800020E030E04AE754E4AFD216D3DC01CB01D3
:1011900090931302809312028FE798E3A1E08150AD
:1011A0009040A040E1F700C0000080E060E043DB39
:1011B00002E211E090E0D8018D918D0164969FAF1D
:1011C000649729DBEFE3FCE93197F1F700C00000F9
:1011D00064969FAD64979F5F903169F781E060E00E
:1011E0002ADB01E111E090E0D8018D918D01649638
:1011F0009FAF649710DBEFE3FCE93197F1F700C094
:10120000000064969FAD64979F5F903169F700E09E
:10121000802F60E010DB10E180E2FDDA8FE295E7DD
:101220000197F1F700C000001150B1F70F5F0230D5
:1012300079F781E080932702809328027894809147
:101240007801882389F0D1DD2091820130E0C90145
:10125000837090709595879520FF02C068E001C06B
:1012600067E0E9DA10927801B7E26B2EB2E07B2EEC
:10127000DE0111966396BFAFAEAF6397FE01B996DC
:101280006196FFAFEEAF619714E1412E12E0512E4F
:101290001F015D0188249924CE0107962F969FAFE8
:1012A0008EAF2F97D3018C91813009F08FC01C92A3
:1012B000F401E850FE4F008180E090E0F201E80F79
:1012C000F91F2181322F3154363018F020532A3043
:1012D00040F421E0F501208301968330910571F7F8
:1012E00002C0D5011C92F5018081813009F06EC0E9
:1012F000F401EE0FFF1FEE0FFF1FEB5EFD4FDE014F
:101300001496BE01635F7F4FEE24FF246F01F60148
:1013100021916F01822F90E0807F90708033910542
:1013200011F42F7005C080349105C9F42F70275F28
:101330002C938D9190E0FB0132912291BF01829F0D
:10134000A001839F500D929F500D1124E40EF51EB5
:101350002F968EAD9FAD2F97E817F907C1F610E0D5
:10136000B70180E090E054D220E030E043E155E462
:10137000BBD16B017C01000F111FA1E0B0E0AC0FED
:10138000BD1F0A0F1B1FF80166AD77AD80E090E02E
:101390003FD29B01AC01C701B601ECD26B017C01CD
:1013A000D801D0966D917C91D197882777FD809553
:1013B000982F30D29B01AC01C701B6012DD1DC01C1
:1013C000CB01F10180839183A283B3830894811CB4
:1013D000911C0894611C711C0894A11CB11C84E030
:1013E00090E0280E391E480E591E92E0891691048D
:1013F00009F058CF2AD860938A0170938B018093AB
:101400008C0190938D0129A53AA54BA55CA5EDA46F
:10141000FEA40FA518A912D788BD2091880130918C
:101420008901B901609570954091120250911302A3
:101430004617570748F480913F0290914002821B63
:10144000930B4817590770F06417750708F0B8C078
:1014500080913F0290914002860F971F48175907CD
:1014600008F0AEC080913F029091400290938901B4
:101470008093880168EF662E61E0762EEE2476E098
:10148000472E512CD301CD903D01DD248601005E15
:101490001D4F8E2DF8016081CED9FF2403C080E25C
:1014A000BAD9F394D8016C918F2D90E09201261B4C
:1014B0003109281739079CF78E2DBDD9FF240DE07F
:1014C00010E00C0F1D1F0C0D1D1D03C080E2A3D9E1
:1014D000F394F8018081F816C8F36396AEADBFAD02
:1014E00063978D916396BFAFAEAF6397813021F55F
:1014F000EBE1F0E0EC0FFD1FEC0DFD1D408161966E
:10150000EEADFFAD61976081718182819381E2E2EE
:10151000F0E0EC0FFD1FEC0DFD1D208130E0241BE1
:101520003109E4E1F0E0EC0FFD1FEC0DFD1D008141
:1015300050E010E09CD936C0882329F033C080E207
:101540006AD91F5F15C010E042E2A42EB12CAC0E88
:10155000BD1EAC0CBD1C5BE1852E912C8C0E9D1E1E
:101560008C0C9D1C84E190E08C0F9D1FC80ED91E31
:10157000D5010C91212F30E081E090E0F401408111
:10158000041711F480E090E0D6014C91840F911D76
:1015900028173907A4F210E003C08AE23CD91F5F84
:1015A0001017D9F7E3946196EEADFFAD61973496CD
:1015B0006196FFAFEEAF6197F2E0EF1609F062CFF0
:1015C00080E068E038D960918A0170918B0180E0F9
:1015D00090E01ED145E050E020E030E000E010E077
:1015E00046D988E491E038D981E068E024D968B52B
:1015F00070E080E090E00ED120E030E04FE753E46F
:1016000073D020E030E048EC52E4B4D1D5D0DC0116
:10161000CB0174D514CE5058BB27AA270ED070C169
:1016200061D130F066D120F031F49F3F11F41EF407
:1016300056C10EF4E095E7FB4CC1E92F72D180F35F
:10164000BA17620773078407950718F071F49EF5BF
:101650008AC10EF4E0950B2EBA2FA02D0B01B90113
:1016600090010C01CA01A0011124FF27591B99F018
:10167000593F50F4503E68F11A16F040A22F232F24
:10168000342F4427585FF3CF469537952795A79574
:10169000F0405395C9F77EF41F16BA0B620B730B1B
:1016A000840BBAF09150A1F0FF0FBB1F661F771F8C
:1016B000881FC2F70EC0BA0F621F731F841F48F441
:1016C000879577956795B795F7959E3F08F0B3CFC7
:1016D0009395880F08F09927EE0F979587950895B1
:1016E000D4D008F481E008950CD00AC102D140F0B2
:1016F000F9D030F021F45F3F19F0EBC0511134C143
:10170000EEC00FD198F39923C9F35523B1F3951B7C
:10171000550BBB27AA2762177307840738F09F5F12
:101720005F4F220F331F441FAA1FA9F333D00E2E81
:101730003AF0E0E830D091505040E695001CCAF7EE
:1017400029D0FE2F27D0660F771F881FBB1F2617B3
:1017500037074807AB07B0E809F0BB0B802DBF0186
:10176000FF2793585F4F2AF09E3F510568F0B1C0A4
:10177000FBC05F3FECF3983EDCF386957795679569
:10178000B795F7959F5FC9F7880F911D9695879537
:1017900097F90895E1E0660F771F881FBB1F621756
:1017A00073078407BA0720F0621B730B840BBA0B14
:1017B000EE1F88F7E0950895BCD088F09F5790F011
:1017C000B92F9927B751A0F0D1F0660F771F881F66
:1017D000991F1AF0BA95C9F712C0B13081F0C3D081
:1017E000B1E00895C0C0672F782F8827B85F39F01F
:1017F000B93FCCF3869577956795B395D9F73EF4C5
:1018000090958095709561957F4F8F4F9F4F08956C
:10181000E89409C097FB3EF490958095709561958A
:101820007F4F8F4F9F4F9923A9F0F92F96E9BB2740
:101830009395F695879577956795B795F111F8CFBC
:10184000FAF4BB0F11F460FF1BC06F5F7F4F8F4F27
:101850009F4F16C0882311F096E911C0772321F01D
:101860009EE8872F762F05C0662371F096E8862FB5
:1018700070E060E02AF09A95660F771F881FDAF70C
:10188000880F9695879597F90895990F0008550F39
:10189000AA0BE0E8FEEF16161706E807F907C0F0F6
:1018A00012161306E407F50798F0621B730B840BFE
:1018B000950B39F40A2661F0232B242B252B21F4D8
:1018C00008950A2609F4A140A6958FEF811D811D78
:1018D000089597F99F6780E870E060E008959FEFB2
:1018E00080EC089500240A941616170618060906B7
:1018F000089500240A941216130614060506089586
:10190000092E0394000C11F4882352F0BB0F40F40D
:10191000BF2B11F460FF04C06F5F7F4F8F4F9F4F4D
:10192000089557FD9058440F551F59F05F3F71F0CF
:101930004795880F97FB991F61F09F3F79F0879536
:101940000895121613061406551FF2CF4695F1DFBF
:1019500008C0161617061806991FF1CF869571054F
:10196000610508940895E894BB2766277727CB0183
:1019700097F908950BD0C4CFB5DF28F0BADF18F07F
:10198000952309F0A6CFABCF1124EECFCADFA0F389
:10199000959FD1F3950F50E0551F629FF001729F04
:1019A000BB27F00DB11D639FAA27F00DB11DAA1F23
:1019B000649F6627B00DA11D661F829F2227B00D70
:1019C000A11D621F739FB00DA11D621F839FA00DFB
:1019D000611D221F749F3327A00D611D231F849F4B
:1019E000600D211D822F762F6A2F11249F575040A2
:1019F0008AF0E1F088234AF0EE0FFF1FBB1F661F3D
:101A0000771F881F91505040A9F79E3F510570F0F5
:101A100060CFAACF5F3FECF3983EDCF386957795D5
:101A20006795B795F795E7959F5FC1F7FE2B880FF0
:101A3000911D9695879597F90895629FD001739FA0
:101A4000F001829FE00DF11D649FE00DF11D929F5A
:101A5000F00D839FF00D749FF00D659FF00D992799
:101A6000729FB00DE11DF91F639FB00DE11DF91FBD
:101A7000BD01CF0111240895A1E21A2EAA1BBB1BA0
:101A8000FD010DC0AA1FBB1FEE1FFF1FA217B3074A
:101A9000E407F50720F0A21BB30BE40BF50B661F60
:101AA000771F881F991F1A9469F760957095809524
:101AB00090959B01AC01BD01CF010895F894FFCF33
:101AC00000004841424144495352204552524F522E
:101AD00000204669726D77617265205265762E36F8
:101AE00020004D464D3136303220772F204650644D
:101AF0007276004253005443004F50004650004558
:101B000054004F540057540052504D0003002823F6
:101B10000A000600840364006400FFFF0000000068
:101B20000000C8003200140003040303040303018F
:101B3000040201040303FF00010102030405070F6F
:041B4000FFFF0200A1
:00000001FF
