:1000000019C033C032C031C030C02FC02EC02DC087
:100010002CC02BC02AC029C028C027C026C025C09C
:1000200024C023C0C0C121C020C01FC01EC01DC02D
:100030001CC01BC011241FBECFEFD4E0DEBFCDBF5C
:1000400011E0A0E0B1E0E8EFF0E102C005900D9210
:10005000AA3CB107D9F711E0AAECB1E001C01D92AA
:10006000AB3FB107E1F782D245C827C284B18C62A9
:1000700084B9089527E030E090E02D9842E04A9559
:10008000F1F700C02B9865B1AC01022E02C0559566
:1000900047950A94E2F74170507073E0440F551F82
:1000A0007A95E1F7642B65B942E04A95F1F700C013
:1000B0002D9A42E04A95F1F700C0215030404FEFB1
:1000C0002F3F3407D1F608958295880F807E842BC8
:1000D0006295607F682B862F8F73CCDF8AE18A95CB
:1000E000F1F700C02A982A9A2A980895482F4F704D
:1000F0004093CA011092CB018091CC0160E0E4DF13
:1001000081E08093CB018091CC0161E04091CA01F4
:10011000DBDF1092CB018091CC0160E04091CA01FD
:10012000D3DF08951092CB011092CC011092CA0136
:1001300080E060E040E0C8DF8FE39CE90197F1F7E1
:1001400000C0000083E0D2DF8FE097E20197F1F773
:1001500000C0000083E0CADF8BED90E00197F1F76B
:1001600000C0000083E0C2DF95E89A95F1F7000037
:1001700082E0BCDF85E88A95F1F7000082E0B6DF17
:1001800088E0B4DF8FEC97E00197F1F700C0000042
:1001900080E0ACDF8CE0AADF8FEC97E00197F1F70D
:1001A00000C0000080E0A2DF83E0A0DF8FEC97E0DA
:1001B0000197F1F700C0000080E098DF81E096DF52
:1001C0008FE99FE00197F1F700C0000080E08EDF2B
:1001D00082E08CDF8FE99FE00197F1F700C000001B
:1001E00081E08093CC010895CF93C82F82958F70C2
:1001F0007DDF8C2F8F707ADF8FEC97E00197F1F71E
:1002000000C00000CF9108951092CC0160688295E3
:10021000880F880F807C862BE7DF81E08093CC01FC
:100220000895CF93DF93EC0101C0DEDF899188232D
:10023000E1F7DF91CF9108954F925F926F927F9295
:100240008F929F92AF92BF92CF92DF92EF92FF92E6
:100250000F931F93CF93DF935C013B0100E010E00D
:10026000882499242B0108944108510839C0C701FA
:10027000B6012AE030E040E050E0FBD66B017C01A3
:1002800006C0E801F1E0CF2ED12CE12CF12C219613
:10029000C615D70560F3B50180E090E0A70196018F
:1002A00007D72115310531F08114910419F4E1E0EB
:1002B0008E2E912C2C9DC0012D9D900D3C9D900D5E
:1002C0001124A81AB90A8114910419F4041515050A
:1002D00019F4822F805D01C080E286DF0F5F1F4F1F
:1002E0004016510670F6DF91CF911F910F91FF904C
:1002F000EF90DF90CF90BF90AF909F908F907F90C6
:100300006F905F904F9008951092CC0180E0EEDEE8
:1003100081E0ECDE8FE99FE00197F1F700C000007B
:1003200081E08093CC0180E060E06EDF089583E09F
:100330008093DF011092E00108951092800082E026
:10034000809381001092820010926F0010928500BD
:10035000109284008FEF9FEF909389008093880024
:100360000895CF93DF93D0DF80E060E04DDFE09130
:10037000DF01F0E0CDECD1E0EE0FFF1FEC0FFD1F31
:10038000808191814EDF80E069E03EDFE091E00115
:10039000F0E0EE0FFF1FEC0FFD1F8081918141DF28
:1003A000DF91CF9108951F920F920FB60F921124F3
:1003B000EF92FF920F931F932F933F934F935F936F
:1003C0006F937F938F939F93AF93BF93CF93DF935D
:1003D000EF93FF93ACD07C01E091DF01F0E0E154BA
:1003E000FE4F808190E0E816F90671F0E091E0019F
:1003F000F0E0E154FE4F808190E0E816F90609F044
:1004000045C0C1E0D0E002C0C0E0D0E000E010E0B4
:10041000CC0FDD1FCC0FDD1FCD50DE4F88D0FE018D
:10042000E00FF11F80830F5F1F4F04301105B1F7FC
:10043000E091DF01F0E0E154FE4F808190E0E816AA
:10044000F90621F5609184007091850080E090E0CC
:100450006093E1017093E2018093E3019093E401E2
:10046000F3D49B01AC0160E074E284E799E458D4D2
:10047000DC01CB018093DB019093DC01A093DD01D3
:10048000B093DE011092850010928400FF91EF91ED
:10049000DF91CF91BF91AF919F918F917F916F919C
:1004A0005F914F913F912F911F910F91FF90EF908E
:1004B0000F900FBE0F901F9018951F920F920FB6BE
:1004C0000F921124F89480E060E09EDE80E091E0DD
:1004D000A8DEFFCF9093C5008093C40080E980938D
:1004E000C10086E28093C2001092C00008959091EE
:1004F000C00095FFFCCF8093C60008958091C00096
:1005000087FFFCCF2091C0008091C00090E08470F4
:10051000907030E020713070822B932B009719F48B
:100520008091C60008958091C6008FEF089580E005
:1005300095E02091C00027FF15C02091C000809158
:10054000C00090E08470907030E020713070822B99
:10055000932B009719F48091C60008958091C600EE
:100560008FEF0895019729F78FEF0895CF93DF93C9
:10057000CDB7DEB7C057D0400FB6F894DEBF0FBE80
:10058000CDBF74DDCFDDD9DE89E190E0A3DFCFDE22
:10059000DE01D396E4E9F1E08EE001900D92815006
:1005A000E1F7DE019596E2EAF1E08EE001900D922E
:1005B0008150E1F7DE015E96E0EBF1E087E001902B
:1005C0000D928150E1F7DE015796E7EBF1E087E00D
:1005D00001900D928150E1F78E010F5B1F4F8EE16C
:1005E000282E312C2C0E3D1E9E01295E3F4FA396D6
:1005F0003FAF2EAFA397CE014096A1969FAF8EAF8F
:10060000A197DD240F2EF0E04F2EF0E05F2EF0E8F2
:100610006F2EFFE37F2EF02D44E0942ED8014D92F3
:100620005D926D927C921397F101E1901F01A39668
:10063000AEADBFADA397CD90A396BFAFAEAFA3971E
:10064000AE2CBB24AC18B108FF2412C0F8016081A5
:1006500071818281938120E030E040E251E460D3F7
:10066000DC01CB01F80180839183A283B383F394EF
:100670008F2D90E08A159B054CF3892D8E1991E002
:10068000EC1409F490E0891BA196AEADBFADA19723
:100690008D93A196BFAFAEAFA197D3940C5F1F4FC0
:1006A000B7E0DB1609F0BACF8FE291E09093CE016C
:1006B0008093CD0182E391E09093D0018093CF01AC
:1006C00085E391E09093D2018093D10189E391E099
:1006D0009093D4018093D3018CE391E09093D60161
:1006E0008093D5018FE391E09093D8018093D70157
:1006F00082E491E09093DA018093D90185E491E05E
:100700009093E6018093E5018BE491E09093E801FA
:100710008093E70181E591E09093EA018093E901FC
:100720008BE591E09093EC018093EB0186E691E0FC
:100730009093EE018093ED0181E791E09093F001B9
:100740008093EF018BE791E09093F2018093F101A8
:1007500081E090E09B878A8780E190E09D878C878D
:1007600080E091E09F878E878FE798E3A1E081503A
:100770009040A040E1F700C0000080E060E044DD70
:100780000EE111E090E0D8018D918D01E1969FAFCF
:10079000E1972ADDEFE3FCE93197F1F700C00000B3
:1007A000E1969FADE1979F5F903169F781E060E04E
:1007B0002BDD0DE011E090E0D8018D918D01E196E7
:1007C0009FAFE19711DDEFE3FCE93197F1F700C04E
:1007D0000000E1969FADE1979F5F903169F78FEF41
:1007E00092E5A7E081509040A040E1F700C00000F2
:1007F00010E0812F60E008DD00E180E2F5DCAFE38E
:10080000BCE91197F1F700C000000150B1F71F5F7C
:10081000123079F778948091BE01882389F0A1DDA8
:100820002091C80130E0C90183709070959587953B
:1008300020FF02C068E001C067E0E6DC1092BE0164
:10084000EFEDF1E0AE96FFAFEEAFAE9723EF31E004
:10085000AB963FAF2EAFAB9732E0A0963FAFA097DD
:10086000A9961FAE1EAEA997CE010A966F969FAFAE
:100870008EAF6F97AE96AEADBFADAE97FD90AE9614
:10088000BFAFAEAFAE9780E090E0AB96EEADFFAD00
:10089000AB97E80FF91F2181322F3154363020F009
:1008A00020532A3008F0CAC101968330910569F7B8
:1008B000A996EEADFFADA997EE0FFF1FEE0FFF1F3C
:1008C000EC50FE4FDE011296BE01605F7F4F00E0EC
:1008D00010E06F01F60121916F01822F90E0807F7F
:1008E00090708033910511F42F7005C0803491050C
:1008F000C9F42F70275F2C938D9190E0FB0132910A
:100900002291BF01829FA001839F500D929F500DA5
:100910001124040F151F6F962EAD3FAD6F97E21790
:10092000F307C1F68F2D90E0A3969FAF8EAFA397EC
:10093000B80180E090E088D220E030E043E155E467
:10094000EFD16B017C01A3960EAD1FADA397000FF5
:10095000111FA1E0B0E0AC0FBD1F0A0F1B1FF80173
:1009600062A973A980E090E06FD29B01AC01C7013E
:10097000B6011CD36B017C01D80194966D917C91DA
:100980009597882777FD8095982F60D29B01AC01C1
:10099000C701B6015DD1862E972EA82EB92E462FFF
:1009A000572F682F792FCB01BA0120E030E0A90141
:1009B000B3D187FF09C0B7FAB094B7F8B094B1E0EB
:1009C000AC96BFAFAC9703C0AC961FAEAC97EEE150
:1009D000F0E0EC0FFD1FA3962EAD3FADA397E20F05
:1009E000F31F8081A82FB0E0A596BFAFAEAFA5974B
:1009F000CC241901220C331C220C331CE1E4F0E05E
:100A0000EC0FFD1F2E0E3F1E1197E096BFAFAEAF4D
:100A1000E09761C0D101EC9011961C91119712964C
:100A20000C9112971396FC901397DD24E0964EAC30
:100A30005FACE097A796EEADFFADA7974E1A5F0AA1
:100A4000802F9F2D0FC02E2D312FAC01C901DA014F
:100A5000BC01CD0120E030E040E251E4A7D2E62E17
:100A6000172FD3942D2D30E02415350564F3082F6E
:100A7000F92EC501B4012E2D312F402F5F2D2901F4
:100A80003A01A30192014CD1B3D1E5E0F0E0EC0FC3
:100A9000FD1FA7962EAD3FADA797E20FF31F862F40
:100AA000805D808370E080E090E0D0D19B01AC015C
:100AB0006E2D712FE02FFF2DCB01DF01BC01CD0189
:100AC00075D29B01AC01C501B401C1D0862E972E11
:100AD000A82EB92EC3948C2D90E0A7969FAF8EAF11
:100AE000A797A596AEADBFADA5978A179B070CF447
:100AF00091CF80E0A0966FADA09786DB87E891E06C
:100B000090DB80E0A0966FADA0977EDBFF2400E134
:100B100010E00C0F1D1FA396EEADFFADA3970E0FB7
:100B20001F1F03C080E260DBF394D8018C91F8169C
:100B3000C8F3AC96BFADAC97BB2311F480E201C003
:100B40008DE252DBDD2410E047E1A42EB12CAC0E87
:100B5000BD1EA396EEADFFADA397AE0EBF1E27C080
:100B6000D5010C91101711F48EE23EDBDD20A1F4CB
:100B7000E5E0F0E0EC0FFD1FEE0DFF1D80818033FE
:100B800059F497012F5F3F4F802F90E028173907C6
:100B90001CF480E229DB0AC0E5E0F0E0EC0FFD1F69
:100BA000EE0DFF1D808120DBDD24D3941F5FE12E3D
:100BB000FF24A596EEADFFADA597EE16FF0684F2D5
:100BC0008FE19EE40197F1F700C00000A996AEAD59
:100BD000BFADA9971196A996BFAFAEAFA997A09642
:100BE000BFADA097B75FA096BFAFA097AB96EEAD95
:100BF000FFADAB973496AB96FFAFEEAFAB97B4318A
:100C000009F038CE81E060E0FFDA8091E101909157
:100C1000E20166E070E010DB81E068E0F5DA609107
:100C2000DB017091DC018091DD019091DE01E0D06B
:100C3000DC01CB0166E070E0FFDAEDCD80E0A0964C
:100C40006FADA097E1DA8DE891E0EBDABFCF5058B5
:100C5000BB27AA270ED070C161D130F066D120F039
:100C600031F49F3F11F41EF456C10EF4E095E7FBFA
:100C70004CC1E92F72D180F3BA176207730784075A
:100C8000950718F071F49EF58AC10EF4E0950B2ECD
:100C9000BA2FA02D0B01B90190010C01CA01A001CE
:100CA0001124FF27591B99F0593F50F4503E68F129
:100CB0001A16F040A22F232F342F4427585FF3CF6A
:100CC000469537952795A795F0405395C9F77EF43B
:100CD0001F16BA0B620B730B840BBAF09150A1F084
:100CE000FF0FBB1F661F771F881FC2F70EC0BA0F0A
:100CF000621F731F841F48F4879577956795B79592
:100D0000F7959E3F08F0B3CF9395880F08F0992789
:100D1000EE0F979587950895D4D008F481E0089553
:100D20000CD00AC102D140F0F9D030F021F45F3F7D
:100D300019F0EBC0511134C1EEC00FD198F39923D3
:100D4000C9F35523B1F3951B550BBB27AA2762178F
:100D50007307840738F09F5F5F4F220F331F441FD4
:100D6000AA1FA9F333D00E2E3AF0E0E830D091500C
:100D70005040E695001CCAF729D0FE2F27D0660FF9
:100D8000771F881FBB1F261737074807AB07B0E838
:100D900009F0BB0B802DBF01FF2793585F4F2AF04E
:100DA0009E3F510568F0B1C0FBC05F3FECF3983E39
:100DB000DCF3869577956795B795F7959F5FC9F7AB
:100DC000880F911D9695879597F90895E1E0660F34
:100DD000771F881FBB1F621773078407BA0720F0AD
:100DE000621B730B840BBA0BEE1F88F7E095089516
:100DF000BCD088F09F5790F0B92F9927B751A0F039
:100E0000D1F0660F771F881F991F1AF0BA95C9F79E
:100E100012C0B13081F0C3D0B1E00895C0C0672FD7
:100E2000782F8827B85F39F0B93FCCF3869577954E
:100E30006795B395D9F73EF4909580957095619537
:100E40007F4F8F4F9F4F0895E89409C097FB3EF462
:100E500090958095709561957F4F8F4F9F4F992307
:100E6000A9F0F92F96E9BB279395F6958795779585
:100E70006795B795F111F8CFFAF4BB0F11F460FF45
:100E80001BC06F5F7F4F8F4F9F4F16C0882311F09D
:100E900096E911C0772321F09EE8872F762F05C0B1
:100EA000662371F096E8862F70E060E02AF09A954C
:100EB000660F771F881FDAF7880F9695879597F941
:100EC0000895990F0008550FAA0BE0E8FEEF1616DB
:100ED0001706E807F907C0F012161306E407F5072E
:100EE00098F0621B730B840B950B39F40A2661F0A2
:100EF000232B242B252B21F408950A2609F4A14045
:100F0000A6958FEF811D811D089597F99F6780E851
:100F100070E060E008959FEF80EC089500240A944B
:100F20001616170618060906089500240A941216C4
:100F30001306140605060895092E0394000C11F4F7
:100F4000882352F0BB0F40F4BF2B11F460FF04C0A4
:100F50006F5F7F4F8F4F9F4F089557FD9058440FFD
:100F6000551F59F05F3F71F04795880F97FB991F08
:100F700061F09F3F79F087950895121613061406C5
:100F8000551FF2CF4695F1DF08C016161706180652
:100F9000991FF1CF86957105610508940895E8942D
:100FA000BB2766277727CB0197F908950BD0C4CFCD
:100FB000B5DF28F0BADF18F0952309F0A6CFABCF44
:100FC0001124EECFCADFA0F3959FD1F3950F50E027
:100FD000551F629FF001729FBB27F00DB11D639FEB
:100FE000AA27F00DB11DAA1F649F6627B00DA11D91
:100FF000661F829F2227B00DA11D621F739FB00D37
:10100000A11D621F839FA00D611D221F749F3327A6
:10101000A00D611D231F849F600D211D822F762F3F
:101020006A2F11249F5750408AF0E1F088234AF03C
:10103000EE0FFF1FBB1F661F771F881F9150504088
:10104000A9F79E3F510570F060CFAACF5F3FECF348
:10105000983EDCF3869577956795B795F795E79574
:101060009F5FC1F7FE2B880F911D9695879597F985
:101070000895629FD001739FF001829FE00DF11DE2
:10108000649FE00DF11D929FF00D839FF00D749F02
:10109000F00D659FF00D9927729FB00DE11DF91FAE
:1010A000639FB00DE11DF91FBD01CF01112408950B
:1010B000A1E21A2EAA1BBB1BFD010DC0AA1FBB1F5C
:1010C000EE1FFF1FA217B307E407F50720F0A21BCE
:1010D000B30BE40BF50B661F771F881F991F1A943B
:1010E00069F760957095809590959B01AC01BD0165
:0810F000CF010895F894FFCF31
:1010F800424144495352204552524F5200496E745E
:10110800657276616C204D6561737572650020208B
:10111800446566694C696E6B5461702020200042FA
:1011280053005443004F5073004650004554004F3D
:101138005400575400426F6F737400546163686FB2
:10114800004F696C207072657373004675656C207A
:101158007072657373004578742E2054656D702E17
:10116800004F696C2054656D702E0057617465726C
:101178002054656D702E0020202020200020202D76
:101188002D2D2000030028230A0006008403640094
:101198006400FFFF000000000000C80032001400D7
:1011A800030403030403030104020104030301010C
:0A11B80002030405070FFFFF020009
:00000001FF
