:1000000019C080C132C031C030C02FC02EC052C70D
:100010002CC039C72AC029C028C0BBC126C025C0F2
:1000200024C023C0C0C621C020C01FC01EC01DC028
:100030001CC01BC011241FBECFEFD4E0DEBFCDBF5C
:1000400011E0A0E0B1E0E6E4FBE102C005900D9212
:10005000AE37B107D9F713E0AEE7B1E001C01D92AA
:10006000A231B107E1F70FD86CCDABC5DF92EF92AB
:10007000FF920F931F93CF93DF9300E010E08FE187
:10008000E82EF12C1EC0802F6C2F5CD59E012250D3
:1000900030402430310510F48D2D09C0C130D10518
:1000A00019F0C630D10511F480E001C080E12ED4F2
:1000B0002196C830D10539F70F5F1F4F0630110563
:1000C00061F0C701002E02C0959587950A94E2F76A
:1000D000D82ED094C0E0D0E0D6CFDF91CF911F9141
:1000E0000F91FF90EF90DF9008954F925F927F9273
:1000F0008F929F92AF92BF92CF92DF92EF92FF9238
:100100000F931F93CF93DF93BC018FE16134780786
:1001100010F060E47FE180E090E0BDDB90DB80E008
:1001200090E0B9DB4B015C01C0900001D09001016F
:10013000E0900201F0900301A701960118DB7FDB3C
:10014000762E062F10E0C0E0D0E0280103C085E045
:10015000DDD32196C415D505D0F388E07816D9F003
:10016000B801882777FD8095982F97DB9B01AC011C
:10017000C701B60142DC9B01AC01C501B4018EDAB6
:10018000A7019601F4DA20E030E040EA50E435DCE3
:1001900056DB862FBBD3C0E0D0E002C080E0B6D3F0
:1001A0002196CE01840D951D88309105B8F3DF911D
:1001B000CF911F910F91FF90EF90DF90CF90BF9064
:1001C000AF909F908F907F905F904F90089581E0C7
:1001D0008DBB83E0809369001092680010926D00DF
:1001E00010926C0010926B000895DC01CB01883BEB
:1001F0002BE0920720E0A20720E0B20728F44FE7A7
:1002000050E060E070E004C04FEF50E060E070E06C
:10021000CA01089520918A0130918B01A9014650AD
:100220005F4F4817590728F02A5F3040821793071D
:1002300020F490938B0180938A012CE18032920705
:10024000F8F080E48093B30080917E0190917F016B
:100250008931910579F410927F0110927E0180918D
:1002600004019091050180959095909305018093EC
:1002700004011CC0019690937F0180937E0116C0FB
:100280002FEF30E0309305012093040128E0209304
:10029000B3002DE08C3A920728F410928901109255
:1002A000880121C02BE18935920718F088E090E0A1
:1002B00016C060918A0170918B016C5A7D4080E07C
:1002C00090E0E9DA20E030E040E051E496DB20E025
:1002D00030EC4AE555E44BDAB2DADC01CB0190931D
:1002E0008901809388018FEF90E00090880102C01F
:1002F000880F991F0A94E2F7809590910401892351
:100300004FD408951F920F920FB60F9211244F935E
:100310005F936F937F938F939F93EF93FF9380915E
:100320008400909185008B3F910530F18091800190
:10033000909181014091840050918500FC01EE0F65
:10034000FF1FEE0FFF1FE056FE4F60E070E040839E
:100350005183628373838F31910529F41092810157
:100360001092800105C001969093810180938001D5
:100370001092850010928400FF91EF919F918F91D0
:100380007F916F915F914F910F900FBE0F901F90D3
:1003900018951F920F920FB60F9211244F935F93EF
:1003A0006F937F938F939F93EF93FF93809180013F
:1003B00090918101FC01EE0FFF1FEE0FFF1FE05631
:1003C000FE4F4FEF5FEFBA01408351836283738327
:1003D0008F31910529F4109281011092800105C09E
:1003E0000196909381018093800110928500109274
:1003F0008400FF91EF919F918F917F916F915F9119
:100400004F910F900FBE0F901F901895AF92BF9213
:10041000CF92DF92EF92FF920F931F93CF93DF93D0
:1004200008E212E0CC24DD24AA24BB2438C0F80161
:10043000EC0FFD1F80819181A281B381A70160E053
:1004400070E084179507A607B70710F47C015901DF
:100450002F5F3F4F24962032310549F7D8018D9107
:100460009C911197F501EE0FFF1FEE0FFF1FE85D46
:10047000FD4F40815181628173814D935D936D93F6
:100480007D938D01A0E0B0E080839183A283B3834C
:100490000894C11CD11CB0E2CB16D10439F09601EE
:1004A000C0E0D0E0EE24EA94FE2CC1CFDF91CF91E2
:1004B0001F910F91FF90EF90DF90CF90BF90AF9082
:1004C0000895DC01CB0180939C0190939D01A09342
:1004D0009E01B0939F012093940130939501409326
:1004E0009601509397010895CF92DF92EF92FF9279
:1004F000E0EAF1E0A8E2B2E041915191619171919D
:100500004D935D936D937D9382E0E032F807A1F700
:100510007DDFE0918001F0918101EE0FFF1FEE0F72
:10052000FF1FE056FE4FC080D180E280F3808FEF46
:10053000C8168FEFD80680E0E80680E0F80620F0C5
:1005400080E090E0DC011BC060919C0170919D01F6
:1005500080919E0190919F0120919401309195018D
:100560004091960150919701CADACA01B901A701D9
:100570009601C5DACA01B9018ED9DC01CB0180939D
:100580008C0190938D01A0938E01B0938F01C09048
:100590008C01D0908D01E0908E01F0908F01C70109
:1005A000B601209198013091990140919A015091A2
:1005B0009B0174D825E535E545E051E4D4D887FFA3
:1005C00009C0C0929801D0929901E0929A01F092EC
:1005D0009B0153C08091280290912902A0912A0288
:1005E000B0912B028093240290932502A0932602BF
:1005F000B09327028091A4029091A502A091A60237
:10060000B091A7028093200290932102A09322022E
:10061000B0932302C0906802D0906902E0906A0211
:10062000F0906B02C0929001D0929101E092920101
:10063000F092930160919C0170919D0180919E01C7
:1006400090919F01209194013091950140919601E4
:100650005091970154DACA01B901A70196014FDA06
:10066000CA01B90118D9DC01CB018093980190939C
:100670009901A0939A01B0939B01609198017091A8
:10068000990180919A0190919B0120E030E040E730
:1006900052E4B3D920E030E040E05FE3AED9CFD8F8
:1006A0006093840170938501809386019093870104
:1006B000FF90EF90DF90CF90089586E060E042D207
:1006C00080E024D186E061E03DD280E01FD186E069
:1006D00062E038D280E01AD186E063E033D280E075
:1006E00015D186E064E02ED281E110D186E065E08C
:1006F00029D285E10BD186E066E024D285E106D1DE
:1007000086E067E01FD28AE001D187E060E01AD27C
:1007100080E0FCD087E061E015D280E0F7D087E090
:1007200062E010D28CE1F2D087E063E00BD284E18A
:10073000EDD087E064E006D284E1E8D087E065E0B0
:1007400001D282E1E3D087E066E0FCD18FE1DED028
:1007500087E067E0F7D181E1D9D0089588E2D6D06B
:1007600087E2D4D085EAD2D086E0D0D085EACED058
:1007700080E6CCD089E2CAD0089588E2C7D080E66E
:10078000C5D085EAC3D086E0C1D085EABFD087E274
:10079000BDD089E2BBD0089588E2B8D08FEDB6D045
:1007A00087E0B4D08FEDB2D089E2B0D0089584B1A3
:1007B000876084B9089527E030E090E02998289870
:1007C00065B1AC01022E02C0559547950A94E2F737
:1007D0004170462B45B9299A215030404FEF2F3FA9
:1007E000340761F708958295880F807E842B629587
:1007F000607F682B862F8F73DEDF2A982A9A2A98CB
:100800000895482F4F704093A8021092A90280913A
:10081000AA0260E0E8DF81E08093A9028091AA0249
:1008200061E04091A802DFDF1092A9028091AA0244
:1008300060E04091A802D7DF08951092A9021092BB
:10084000AA021092A80280E060E040E0CCDF8FEFC7
:1008500099EFA0E081509040A040E1F700C0000077
:1008600083E0CFDFAFE1BEE41197F1F700C00000F5
:1008700083E0C7DF87EB91E00197F1F700C000004C
:1008800083E0BFDFA7ECB0E01197F1F700C00000F4
:1008900082E0B7DF87EC90E00197F1F700C000003D
:1008A00082E0AFDF88E0ADDFAFE9BFE01197F1F79D
:1008B00000C0000080E0A5DF8CE0A3DF8FE99FE0AF
:1008C0000197F1F700C0000080E09BDF86E099DF30
:1008D000AFE9BFE01197F1F700C0000080E091DFC1
:1008E00081E08FDF8FE39FE10197F1F700C0000007
:1008F00080E087DF82E085DFAFE3BFE11197F1F7AA
:1009000000C0000081E08093AA020895CF93C82F11
:1009100082958F7076DF8C2F8F7073DF87EC90E07D
:100920000197F1F700C00000CF9108951092AA023C
:10093000982F91709295990F990F907C9068869559
:1009400024E1829F802D1124860F892BDFDF81E037
:100950008093AA020895CF93DF93EC0101C0D6DF04
:1009600089918823E1F7DF91CF9108952F923F92EB
:100970004F925F926F927F928F929F92AF92BF92AF
:10098000CF92DF92EF92FF920F931F93CF93DF935B
:10099000CDB7DEB728970FB6F894DEBF0FBECDBF38
:1009A0006B017C011A01290180E090E04C010EC02E
:1009B000C701B60120E030E040E251E41ED8C62E67
:1009C000D72EE82EF92E0894811C911C84149504CE
:1009D00079F70130110571F4C701B60120E030E06C
:1009E000A901C1D687FF1AC08DE290DFF7FAF09413
:1009F000F7F8F09400E010E0662477249201220DCD
:100A0000331D3A832983215030403C832B83C1011D
:100A100001979E838D8378866F8264C08BE276DF38
:100A2000E9CF0215130529F44114510411F08EE2A7
:100A30006DDF380181E0882E912CA12CB12CC501ED
:100A4000B40105C02AE030E040E050E039D8089415
:100A5000611C711CE981FA816E167F0698F34B01C7
:100A60005C0119D79B01AC01C701B60180D6E7D65E
:100A7000DC01CB013C012F8138852115310579F44A
:100A800081E090E098878F836114710461F4ED81B7
:100A9000FE810E171F0739F018861F8204C021E05F
:100AA00030E038872F83B30180E090E0A501940106
:100AB00007D8F1D69B01AC01C701B601EFD56B0198
:100AC000E82EF92EEF81F885309729F42B813C81AF
:100AD0000217130719F4862D805D01C080E216DF2E
:100AE0000F5F1F4F8B819C818017910708F099CF72
:100AF00028960FB6F894DEBF0FBECDBFDF91CF9121
:100B00001F910F91FF90EF90DF90CF90BF90AF902B
:100B10009F908F907F906F905F904F903F902F901D
:100B200008951092AA0280E06CDE81E06ADE85E31F
:100B30008A95F1F7000081E08093AA0280E060E0EE
:100B4000F5DE08951092AA026064880F880F880F5E
:100B5000862BDCDE81E08093AA02089584B188634D
:100B600084B9089527E030E090E02C982B9865B187
:100B7000AC01022E02C0559547950A94E2F74170E8
:100B8000507073E0440F551F7A95E1F7642B65B9F7
:100B90002C9A215030404FEF2F3F340731F7089502
:100BA000E1DF2D982D9A2D98089586E08093B90263
:100BB00085E08093BA0283E08093BB021092BC026E
:100BC00008951F920F920FB60F921124F89480E0AF
:100BD00060E0ACDE86E091E0BEDEFFCF81E884BD60
:100BE00084E085BD10926E0016BC17BC8FEF88BDE7
:100BF00085B590E08770907083309105B1F08430B6
:100C000091053CF481309105F9F082309105E1F4D1
:100C100007C08430910571F085309105A9F40FC0AB
:100C200088E090E0A0E0B0E013C080E490E0A0E0B5
:100C3000B0E00EC080E091E0A0E0B0E009C080E04C
:100C400094E0A0E0B0E004C081E090E0A0E0B0E07B
:100C50008093BD029093BE02A093BF02B093C002E6
:100C600008951092800083E08093810010928200AA
:100C700081E080936F0010928500109284008FEFC6
:100C80009FEF90938900809388008091810090E08D
:100C90008770907083309105B1F0843091053CF4F9
:100CA00081309105F9F082309105E1F407C084307C
:100CB000910571F085309105A9F40FC088E090E0AE
:100CC000A0E0B0E013C080E490E0A0E0B0E00EC08F
:100CD00080E091E0A0E0B0E009C080E094E0A0E016
:100CE000B0E004C081E090E0A0E0B0E08093D102E9
:100CF0009093D202A093D302B093D402089510929D
:100D0000B00085E08093B10083E080937000109282
:100D1000B20088E08093B3008091B10090E08770CA
:100D2000907084309105F1F0853091053CF482306B
:100D3000910571F08330910584F428C086309105C7
:100D4000D9F0863091059CF087309105F9F419C0EF
:100D500088E090E0A0E0B0E01DC080E290E0A0E07C
:100D6000B0E018C080E490E0A0E0B0E013C080E8FC
:100D700090E0A0E0B0E00EC080E091E0A0E0B0E044
:100D800009C080E094E0A0E0B0E004C081E090E021
:100D9000A0E0B0E08093E5029093E602A093E70222
:100DA000B093E80208951F920F920FB60F9211248C
:100DB0002F933F934F935F936F937F938F939F9363
:100DC000AF93BF93EF93FF9326D1482F50E09A0142
:100DD000207F307021153105D9F4A9EBB2E080E015
:100DE00090E0ED91F0E0EC58FE4F208130E04217AA
:100DF000530749F49093C2028093C102109272018A
:100E0000109271012FC001968430910551F72AC0CC
:100E100020917101309172012430310518F5409113
:100E2000C1025091C202FA01EE0FFF1FEE0FFF1F29
:100E3000E20FF31FEB52FD4F80832330310561F445
:100E400040515D4F81E0FA01808383E690E090930A
:100E500072018093710106C02F5F3F4F3093720182
:100E600020937101FF91EF91BF91AF919F918F916D
:100E70007F916F915F914F913F912F910F900FBE96
:100E80000F901F9018951F920F920FB60F9211247A
:100E90008F939F9380910203909103030196909307
:100EA0000303809302039F918F910F900FBE0F90C9
:100EB0001F9018951F920F920FB60F9211240F904A
:100EC0000FBE0F901F901895FC0120E030E002C08B
:100ED0002F5F3F4F81918823D9F7C90108951F9350
:100EE000CF93DF93C9EBD2E010E0812F60E01EDDED
:100EF000E991F0E0EE0FFF1FE555FD4F80819181F4
:100F00002ADD1F5F143089F7DF91CF911F9108957B
:100F1000CF92DF92EF92FF92CF93DF93EC0180E0CC
:100F200090E0B9D46B017C01BE0180E090E0B3D4C5
:100F30009B01AC01C701B6011AD4DC01CB0180933F
:100F40000E0390930F03A0931003B0931103DF914E
:100F5000CF91FF90EF90DF90CF9008958091840023
:100F600090918500A0E0B0E0809306039093070382
:100F7000A0930803B093090308950F931F938091E2
:100F8000840090918500A0E0B0E080930A039093E4
:100F90000B03A0930C03B0930D0300910603109173
:100FA00007032091080330910903AC01BD01401BE8
:100FB000510B620B730B081719072A073B0720F424
:100FC000405050406F4F7F4FCB01BA0164D4209105
:100FD0000E0330910F0340911003509111030DD572
:100FE0002ED41F910F9108959093C5008093C40053
:100FF00080E98093C10086E28093C2001092C00015
:1010000008959091C00095FFFCCF8093C60008958D
:101010008091C60008958091C00087FFFCCF209189
:10102000C0008091C00090E08470907030E020712A
:101030003070822B932B009719F48091C60008958D
:101040008091C6008FEF089580E095E02091C00068
:1010500027FF15C02091C0008091C00090E08470EF
:10106000907030E020713070822B932B009719F430
:101070008091C60008958091C6008FEF0895019772
:1010800029F78FEF0895CF93DF93CDB7DEB7CC5517
:10109000D0400FB6F894DEBF0FBECDBF88DB5EDD5B
:1010A000CCDB9CDDDEDD2BDE569A89E190E09CDF17
:1010B0008ED86091D1027091D20280E092E128DF57
:1010C0002091D1023091D2024091D3025091D402AA
:1010D00060E072E18AE790E0F4D9C8D7EEDA65DD26
:1010E000DE01D996E7E4F1E08EE001900D928150A7
:1010F000E1F7DE019B96E5E5F1E08EE001900D92CF
:101100008150E1F7DE019496E3E6F1E087E001909B
:101110000D928150E1F7DE015D96EAE6F1E087E0AD
:1011200001900D928150E1F781E08E8B1F8A188E1D
:10113000198E1A8E1B8E1C8E83E191E09093AC0267
:101140008093AB0289E191E09093AE028093AD026F
:101150008FE191E09093B0028093AF0285E291E03D
:101160009093B2028093B1028CE291E09093B4022A
:101170008093B30282E391E09093B6028093B5022C
:1011800088E391E09093B8028093B70224E2A22E04
:10119000B12CAC0EBD1E3DE1832E912C8C0E9D1EFC
:1011A00000E010E04BE0C42E2EC04F5F242F30E053
:1011B00028173907D4F3F801EE0FFF1FE555FD4F4F
:1011C0008081918181DEF801E751FD4F8083AFE09E
:1011D000B0E0AC0FBD1FA00FB11F9C2D9F19981B35
:1011E000E6E1F0E0EC0FFD1FE00FF11F8081981B9E
:1011F00081E0FE1409F480E0981B9C930F5F1F4F61
:101200000730110561F0F501F1905F01F401E19003
:101210004F018F2D90E08E19910940E0C7CF81E0FA
:1012200090E09A87898780E190E09C878B8780E0B7
:1012300091E09E878D876091E5027091E602809132
:10124000E7029091E80227D39B01AC0160E070E0D7
:101250008AEF95E48CD220E030E04AEF53E4CDD31E
:1012600020E030E040E85BE3C8D3E9D2DC01CB0109
:10127000909305038093040381E08093F0028093B0
:10128000F1028093F2028093F302789487B988B9CF
:1012900080917301882389F022DE20917D0130E066
:1012A000C901837090709595879520FF02C068E012
:1012B00001C067E03BDB10927301A0EF6A2EA2E051
:1012C0007A2ECE0105966D969FAF8EAF6D97FE017B
:1012D000E95BFF4F6B96FFAFEEAF6B97B5ED4B2E13
:1012E000B2E05B2E1F015C0188249924CE0109968F
:1012F00069969FAF8EAF6997F3018081813009F0C5
:101300008EC01082F401E754FD4F008180E090E030
:10131000F201E80FF91F2181322F3154363018F0D5
:1013200020532A3040F421E0F501208301968330D8
:10133000910571F702C0F5011082F50180818130BD
:1013400009F06DC06401CC0CDD1CCC0CDD1C86EDFD
:1013500092E0C80ED91EDE011296BE01615F7F4F7A
:10136000EE24FF24F60181916F01282F30E0207FC9
:1013700030702033310511F48F7005C020343105F1
:10138000C9F48F70875F8C938D9190E0FB0132914F
:101390002291BF01829FA001839F500D929F500D0B
:1013A0001124E40EF51E69968EAD9FAD6997E8177E
:1013B000F907C1F610E0B70180E090E06CD220E0C0
:1013C00030E043E155E4D3D16B017C01000F111FE4
:1013D000E1E0F0E0EC0FFD1F0E0F1F1FF80160AD04
:1013E00071AD80E090E057D29B01AC01C701B6011E
:1013F00004D36B017C01F80162A573A5882777FDF2
:101400008095982F4AD29B01AC01C701B60147D104
:10141000DC01CB01F10180839183A283B383089423
:10142000811C911C0894611C711C0894A11CB11CA6
:1014300084E090E0280E391E480E591E94E089166B
:10144000910409F059CF50D86093840170938501BD
:10145000809386019093870163962CAD3DAD4EAD90
:101460005FAD63976796ECACFDAC0EAD1FAD6797B3
:10147000BCD687BD2091820130918301B90160956E
:10148000709540910403509105034617570748F49F
:101490008091020390910303821B930B4817590715
:1014A00070F06417750708F0D7C08091020390911F
:1014B0000303860F971F4817590708F0CDC0809186
:1014C000020390910303909383018093820188B17A
:1014D000809588B959EB652E52E0752EEE246AE0AE
:1014E000462E512CF301C1903F01DD2486010751A6
:1014F0001D4F8E2DF801608119DAFF2403C080E2B0
:1015000005DAF394F80160818F2D90E09201261B9B
:101510003109281739079CF78E2D08DAFF240FE0D0
:1015200010E00C0F1D1F0C0D1D1D03C080E2EED935
:10153000F394F8018081F816C8F36D96EEADFFAD17
:101540006D9781916D96FFAFEEAF6D97813021F56C
:10155000EDE1F0E0EC0FFD1FEC0DFD1D40816B9601
:10156000EEADFFAD6B976081718182819381E4E282
:10157000F0E0EC0FFD1FEC0DFD1D208130E0241B81
:101580003109E6E1F0E0EC0FFD1FEC0DFD1D0081DF
:1015900050E010E0EBD936C0882329F033C080E258
:1015A000B5D90F5F15C000E034E2A32EB12CAC0E0C
:1015B000BD1EAC0CBD1C4DE1842E912C8C0E9D1ECD
:1015C0008C0C9D1C86E190E08C0F9D1FC80ED91ECF
:1015D000F501F080202F30E081E090E0F4014081BF
:1015E000F41611F480E090E0F6014081840F911D23
:1015F00028173907A4F200E003C08AE287D90F5FF9
:101600000F15D9F7E3946B968EAD9FAD6B9704964B
:101610006B969FAF8EAF6B9794E0E91609F062CF9F
:1016200082E06DE083D98091840190918501EBE0A7
:10163000883B9E0710F492D80AC0F3E188389F07D0
:1016400010F49BD804C0A8D880E491E084D982E04B
:101650006CE06CD98FEF04C082E06CE067D980E267
:1016600055D980E06CE062D9609184017091850168
:1016700080E090E010D145E050E020E030E000E074
:1016800010E074D983E491E066D983E06CE04ED930
:10169000809184019091850128D5FACD5058BB27BF
:1016A000AA270ED070C161D130F066D120F031F49C
:1016B0009F3F11F41EF456C10EF4E095E7FB4CC1B8
:1016C000E92F72D180F3BA17620773078407950771
:1016D00018F071F49EF58AC10EF4E0950B2EBA2F26
:1016E000A02D0B01B90190010C01CA01A001112428
:1016F000FF27591B99F0593F50F4503E68F11A16D4
:10170000F040A22F232F342F4427585FF3CF469564
:1017100037952795A795F0405395C9F77EF41F1686
:10172000BA0B620B730B840BBAF09150A1F0FF0F50
:10173000BB1F661F771F881FC2F70EC0BA0F621F3C
:10174000731F841F48F4879577956795B795F7952C
:101750009E3F08F0B3CF9395880F08F09927EE0FBE
:10176000979587950895D4D008F481E008950CD01A
:101770000AC102D140F0F9D030F021F45F3F19F0F6
:10178000EBC0511134C1EEC00FD198F39923C9F3C6
:101790005523B1F3951B550BBB27AA276217730777
:1017A000840738F09F5F5F4F220F331F441FAA1F2B
:1017B000A9F333D00E2E3AF0E0E830D091505040EB
:1017C000E695001CCAF729D0FE2F27D0660F771F99
:1017D000881FBB1F261737074807AB07B0E809F07B
:1017E000BB0B802DBF01FF2793585F4F2AF09E3F10
:1017F000510568F0B1C0FBC05F3FECF3983EDCF3ED
:10180000869577956795B795F7959F5FC9F7880F88
:10181000911D9695879597F90895E1E0660F771FDA
:10182000881FBB1F621773078407BA0720F0621B6B
:10183000730B840BBA0BEE1F88F7E0950895BCD0AC
:1018400088F09F5790F0B92F9927B751A0F0D1F0A9
:10185000660F771F881F991F1AF0BA95C9F712C033
:10186000B13081F0C3D0B1E00895C0C0672F782FA8
:101870008827B85F39F0B93FCCF38695779567959F
:10188000B395D9F73EF490958095709561957F4F0B
:101890008F4F9F4F0895E89409C097FB3EF49095B1
:1018A0008095709561957F4F8F4F9F4F9923A9F039
:1018B000F92F96E9BB279395F695879577956795C8
:1018C000B795F111F8CFFAF4BB0F11F460FF1BC00C
:1018D0006F5F7F4F8F4F9F4F16C0882311F096E99F
:1018E00011C0772321F09EE8872F762F05C066234D
:1018F00071F096E8862F70E060E02AF09A95660F06
:10190000771F881FDAF7880F9695879597F90895BE
:10191000990F0008550FAA0BE0E8FEEF1616170600
:10192000E807F907C0F012161306E407F50798F068
:10193000621B730B840B950B39F40A2661F0232B81
:10194000242B252B21F408950A2609F4A140A695FD
:101950008FEF811D811D089597F99F6780E870E0E2
:1019600060E008959FEF80EC089500240A94161615
:10197000170618060906089500240A94121613067D
:10198000140605060895092E0394000C11F488230B
:1019900052F0BB0F40F4BF2B11F460FF04C06F5F27
:1019A0007F4F8F4F9F4F089557FD9058440F551FFD
:1019B00059F05F3F71F04795880F97FB991F61F0D1
:1019C0009F3F79F087950895121613061406551F48
:1019D000F2CF4695F1DF08C0161617061806991FB4
:1019E000F1CF86957105610508940895E894BB27A9
:1019F00066277727CB0197F908950BD0C4CFB5DFC1
:101A000028F0BADF18F0952309F0A6CFABCF112448
:101A1000EECFCADFA0F3959FD1F3950F50E0551F8D
:101A2000629FF001729FBB27F00DB11D639FAA2733
:101A3000F00DB11DAA1F649F6627B00DA11D661F82
:101A4000829F2227B00DA11D621F739FB00DA11DA3
:101A5000621F839FA00D611D221F749F3327A00D5D
:101A6000611D231F849F600D211D822F762F6A2FF9
:101A700011249F5750408AF0E1F088234AF0EE0F7E
:101A8000FF1FBB1F661F771F881F91505040A9F78B
:101A90009E3F510570F060CFAACF5F3FECF3983EB8
:101AA000DCF3869577956795B795F795E7959F5FF2
:101AB000C1F7FE2B880F911D9695879597F908958C
:101AC000629FD001739FF001829FE00DF11D649F22
:101AD000E00DF11D929FF00D839FF00D749FF00DAE
:101AE000659FF00D9927729FB00DE11DF91F639F4F
:101AF000B00DE11DF91FBD01CF0111240895A1E230
:101B00001A2EAA1BBB1BFD010DC0AA1FBB1FEE1F77
:101B1000FF1FA217B307E407F50720F0A21BB30BC2
:101B2000E40BF50B661F771F881F991F1A9469F73E
:101B300060957095809590959B01AC01BD01CF019A
:061B40000895F894FFCFA8
:101B460000007A44FF004241444953522045525214
:101B56004F5200424F4F535400544143484F004F99
:101B6600494C2E50004655454C2E50004558542E93
:101B760054004F494C2E540057415445522E5400A0
:101B860020200052504D00030028230A000600843E
:101B96000364006400FFFF000000000000C800327C
:101BA60000140003040303040303010402010403F5
:0E1BB600036300010102030405070FFFFF0493
:00000001FF
