:100000000C9487000C946D020C9412080C94A400BC
:100010000C94A4000C94A4000C94A4000C94E40789
:100020000C94A4000C94AE070C94A4000C94A400AF
:100030000C94A4000C94B3020C94A4000C94A4009F
:100040000C94A4000C94A4000C9456070C94A400E7
:100050000C94A4000C94A4000C94A4000C94A40090
:100060000C94A4000C94A400980083006E0020203F
:100070004669726D77617265205265762E20313047
:1000800020200020772F204675656C50756D7020FC
:1000900044726976657220004D756C74692D4675E1
:1000A0006E6374696F6E204D6574657200E200DCEA
:1000B00000D600CF00C900C300BB005741544552D1
:1000C0002E54004F494C2E54004558542E5400468F
:1000D00055454C2E50004F494C2E5000544143483A
:1000E0004F00424F4F535400030028230A000600DC
:1000F000840364006400FFFF000000000000C800EB
:1001000032001400434F4E4E20455252000011243D
:100110001FBECFEFD8E0DEBFCDBF11E0A0E0B1E061
:10012000E0E9FFE102C005900D92AC34B107D9F7C8
:1001300011E0ACE4B1E001C01D92AE3BB107E1F7C4
:100140000E94F1090C94C60F0C948D0680E28093F6
:100150007C0087EE80937A0010927B000895DF92F6
:10016000EF92FF920F931F93CF93DF9300E010E085
:100170008FE1E82EF12C20C0802F6C2F0E944C06BE
:100180009E01225030402430310510F48D2D09C0DD
:10019000C130D10519F0C630D10511F480E001C09D
:1001A00080E10E941C052196C830D10529F70F5F18
:1001B0001F4F0630110561F0C701002E02C0959552
:1001C00087950A94E2F7D82ED094C0E0D0E0D4CF3F
:1001D000DF91CF911F910F91FF90EF90DF900895E5
:1001E0009F92AF92BF92CF92DF92EF92FF920F93C6
:1001F0001F93CF93DF93BC018FE16134780710F038
:1002000060E47FE180E090E00E94650E0E94390E7C
:1002100080E090E00E94650E6B017C0120E030E000
:100220004AE754E40E94D10D0E94390E962E062F03
:1002300010E0C0E0D0E0580104C085E00E941C0539
:100240002196CA15DB05C8F388E0981621F1B8019C
:10025000882777FD8095982F0E94670E20E030E078
:100260004AE754E40E941B0F9B01AC01C701B60191
:100270000E94680D20E030E04AE754E40E94D10D6E
:1002800020E030E040EA50E40E941B0F0E94390E4B
:10029000862F0E941C05C0E0D0E003C080E00E94D1
:1002A0001C052196CE018A0D9B1D88309105B0F367
:1002B000DF91CF911F910F91FF90EF90DF90CF9042
:1002C000BF90AF909F90089583E08DBB5B9A8FE0C5
:1002D000809369001092680010926D0010926C007B
:1002E00010926B0008958F929F92AF92BF92CF921F
:1002F000DF92EF92FF920F931F93CF93DF934B0107
:100300005C01C801B70121E0C216D10409F448C05C
:100310002DEC3CEC4CEC5DEB0E94170F18160CF426
:100320003FC082EB88168CE0980680E0A80680E04B
:10033000B806B0F521E2821623E0920620E0A2067C
:1003400020E0B20638F0C501B4016052734080402D
:10035000904003C060E070E0CB01C0914C01D091AF
:100360004D01C656DF4F0E94650E20E030E249E1A4
:1003700055E40E94D10D20E030E04AEC52E40E94A6
:100380001B0F0E94390EAB01BC01C40FD51FAE017B
:1003900060E070E04F3F51056105710529F020F0E4
:1003A0004FEF50E060E070E0CA01DF91CF911F9104
:1003B0000F91FF90EF90DF90CF90BF90AF909F9004
:1003C0008F90089587E791E090935E0180935D019F
:1003D00008952091520130915301A90146505F4F79
:1003E0004817590728F02A5F30408217930720F4F6
:1003F00090935301809352012BE188359207F8F0D6
:1004000080E48093B3008091500190915101893133
:10041000910579F4109251011092500180910201DE
:100420009091030180959095909303018093020130
:100430000FC00196909351018093500109C08FEF36
:1004400090E0909303018093020188E08093B300D1
:1004500060915201709153018FE0603A780728F45F
:100460001092600110925F0128C02FE0603A72077D
:1004700019F481E090E01DC08BE16935780718F030
:1004800088E090E016C0605A7F4080E090E00E94D3
:10049000650E20E030E040E051E40E941B0F20E0B8
:1004A00030E84BE355E40E94D10D0E94390EDC0187
:1004B000CB019093600180935F018FEF90E00090FB
:1004C0005F0102C0880F991F0A94E2F7809590910E
:1004D000020189230E947B0608951F920F920FB696
:1004E0000F9211244F935F936F937F938F939F93FA
:1004F000EF93FF938091840090918500853691055C
:1005000028F18091540190915501409184005091BF
:100510008500FC01EE0FFF1FEE0FFF1FEB58FE4F93
:1005200060E070E04083518362837383009729F415
:10053000109255011092540105C0019690935501F7
:10054000809354011092850010928400FF91EF91E6
:100550009F918F917F916F915F914F910F900FBEFF
:100560000F901F9018951F920F920FB60F921124A3
:100570004F935F936F937F938F939F93EF93FF932B
:100580008091540190915501FC01EE0FFF1FEE0F79
:10059000FF1FEB58FE4F4FEF5FEFBA0140835183CF
:1005A00062837383009729F41092550110925401CD
:1005B00005C00196909355018093540110928500D7
:1005C00010928400FF91EF919F918F917F916F9195
:1005D0005F914F910F900FBE0F901F9018958091D3
:1005E000810190918201A0E0B0E08093810190931D
:1005F0008201A0938301B09384010895DC01CB01B3
:100600008093710190937201A0937301B093740170
:100610002093690130936A0140936B0150936C0100
:100620000895CF92DF92EF92FF92809175019091A1
:100630007601A0917701B091780180938101909328
:100640008201A0938301B0938401E0915401F09161
:100650005501EE0FFF1FEE0FFF1FEB58FE4FC0803E
:10066000D180E280F3808FEFC8168FEFD80680E04C
:10067000E80680E0F80620F080E090E0DC011EC093
:100680006091710170917201809173019091740178
:100690002091690130916A0140916B0150916C0188
:1006A0000E949D0FCA01B901A70196010E949D0FEA
:1006B000CA01B9010E94650EDC01CB018093610182
:1006C00090936201A0936301B0936401C0906101B3
:1006D000D0906201E0906301F0906401C701B6011F
:1006E00020916D0130916E0140916F015091700128
:1006F0000E94680D20E030E048E452E40E94CD0DF5
:1007000087FF08C0C0926D01D0926E01E0926F0128
:10071000F092700160916D0170916E0180916F0196
:100720009091700120E030E040E752E40E941B0FFE
:1007300020E030E040E05FE30E941B0F0E94390E92
:100740006093590170935A0180935B0190935C010F
:10075000FF90EF90DF90CF90089586E060E00E94D8
:100760004C0680E00E941C0586E061E00E944C0679
:1007700080E00E941C0586E062E00E944C0680E05A
:100780000E941C0586E063E00E944C0680E00E9407
:100790001C0586E064E00E944C0681E10E941C0575
:1007A00086E065E00E944C0685E10E941C0586E01B
:1007B00066E00E944C0685E10E941C0586E067E029
:1007C0000E944C068AE00E941C0587E060E00E94BF
:1007D0004C0680E00E941C0587E061E00E944C0608
:1007E00080E00E941C0587E062E00E944C068CE1DC
:1007F0000E941C0587E063E00E944C0684E10E9491
:100800001C0587E064E00E944C0684E10E941C0500
:1008100087E065E00E944C0682E10E941C0587E0AB
:1008200066E00E944C068FE10E941C0587E067E0AD
:100830000E944C0681E10E941C05089588E20E94F6
:100840001C0587E20E941C0585EA0E941C0586E0C3
:100850000E941C0585EA0E941C0580E60E941C057A
:1008600089E20E941C05089588E20E941C0580E62A
:100870000E941C0585EA0E941C0586E00E941C055A
:1008800085EA0E941C0587E20E941C0589E20E94FD
:100890001C05089588E20E941C058FED0E941C052E
:1008A00087E00E941C058FED0E941C0589E20E94D2
:1008B0001C05089584B1876084B9089527E030E06D
:1008C00090E02998289865B1AC01022E02C0559598
:1008D00047950A94E2F74170462B45B9299A215071
:1008E00030404FEF2F3F340761F708958295880F0E
:1008F000807E842B6295607F682B862F8F730E9489
:100900005E042A982A9A2A980895482F4F70409397
:100910008501109286018091870160E00E94760433
:1009200081E0809386018091870161E0409185019B
:100930000E947604109286018091870160E04091C8
:1009400085010E9476040895109286011092870115
:100950001092850180E060E040E00E9476048FEF15
:1009600099EFA0E081509040A040E1F700C0000066
:1009700083E00E948504AFE1BEE41197F1F700C067
:10098000000083E00E94850487EB91E00197F1F776
:1009900000C0000083E00E948504A7ECB0E011973E
:1009A000F1F700C0000082E00E94850487EC90E02F
:1009B0000197F1F700C0000082E00E94850488E002
:1009C0000E948504AFE9BFE01197F1F700C0000075
:1009D00080E00E9485048CE00E9485048FE99FE0FE
:1009E0000197F1F700C0000080E00E94850486E0D6
:1009F0000E948504AFE9BFE01197F1F700C0000045
:100A000080E00E94850481E00E9485048FE39FE1DD
:100A10000197F1F700C0000080E00E94850482E0A9
:100A20000E948504AFE3BFE11197F1F700C0000019
:100A300081E0809387010895CF93C82F82958F70AE
:100A40000E9485048C2F8F700E94850487EC90E0B3
:100A50000197F1F700C00000CF910895109287012F
:100A6000982F91709295990F990F907C9068869528
:100A700024E1829F802D1124860F892B0E941C0562
:100A800081E0809387010895CF93DF93EC0102C04A
:100A90000E941C0589918823D9F7DF91CF91089591
:100AA0002F923F924F925F926F927F928F929F927E
:100AB000AF92BF92CF92DF92EF92FF920F931F936C
:100AC000CF93DF93CDB7DEB728970FB6F894DEBF8C
:100AD0000FBECDBF6B017C011A01290180E090E0BF
:100AE0004C010FC0C701B60120E030E040E251E404
:100AF0000E941B0FC62ED72EE82EF92E0894811CBB
:100B0000911C8414950471F70130110581F4C7011B
:100B1000B60120E030E0A9010E94CD0D87FF1BC087
:100B20008DE20E941C05F7FAF094F7F8F09400E0CB
:100B300010E0662477249201220D331D3A83298325
:100B4000215030403C832B83C10101979E838D83CC
:100B500078866F826EC08BE20E941C05E8CF02157A
:100B6000130531F44114510419F08EE20E941C0562
:100B7000380181E0882E912CA12CB12CC501B40143
:100B800006C02AE030E040E050E00E947E0F08946A
:100B9000611C711CE981FA816E167F0690F34B018E
:100BA0005C010E94650E9B01AC01C701B6010E9469
:100BB000D10D0E94390EDC01CB013C012F8138851B
:100BC0002115310579F481E090E098878F836114D5
:100BD000710461F4ED81FE810E171F0739F018864C
:100BE0001F8204C021E030E038872F83B30180E00A
:100BF00090E0A50194010E947E0F0E94650E9B016A
:100C0000AC01C701B6010E94680D6B01E82EF92EF8
:100C1000EF81F885309729F42B813C810217130767
:100C200019F4862D805D01C080E20E941C050F5FD3
:100C30001F4F8B819C818017910708F090CF2896D9
:100C40000FB6F894DEBF0FBECDBFDF91CF911F91DD
:100C50000F91FF90EF90DF90CF90BF90AF909F905B
:100C60008F907F906F905F904F903F902F9008955E
:100C70001092870180E00E94850481E00E94850433
:100C800085E38A95F1F7000081E08093870180E099
:100C900060E00E942E050895109287016064880F1D
:100CA000880F880F862B0E941C0581E080938701A6
:100CB000089584B1886384B9089527E030E090E016
:100CC0002C982B9865B1AC01022E02C05595479522
:100CD0000A94E2F74170507073E0440F551F7A9503
:100CE000E1F7642B65B92C9A215030404FEF2F3F2C
:100CF000340731F708950E945D062D982D9A2D989E
:100D0000089586E08093880185E08093890183E0DF
:100D100080938A0110928B0108951F920F920FB653
:100D20000F921124F89480E060E00E942E0584E088
:100D300091E00E944405FFCF83E284BD8AE085BD37
:100D400010926E0016BC8FEF87BD88BD85B590E010
:100D50008770907083309105A1F0843091053CF448
:100D600081309105C9F082309105A1F407C084302B
:100D7000910551F08530910569F409C088E090E053
:100D80000BC080E490E008C080E091E005C080E006
:100D900094E002C081E090E090938D0180938C01FB
:100DA00008951092800083E0809381001092820069
:100DB00081E080936F0010928500109284008FEF85
:100DC0009FEF90938900809388008091810090E04C
:100DD0008770907083309105A1F0843091053CF4C8
:100DE00081309105C9F082309105A1F407C08430AB
:100DF000910551F08530910569F409C088E090E0D3
:100E00000BC080E490E008C080E091E005C080E085
:100E100094E002C081E090E09093900180938F0174
:100E200008951092B00087E08093B10083E0809332
:100E300070001092B20088E08093B3008091B100FE
:100E400090E08770907084309105E9F085309105CD
:100E500054F48230910589F0833091058CF481300F
:100E60009105E9F41EC08630910599F08630910510
:100E70006CF08730910599F40FC088E090E011C0C4
:100E800080E290E00EC080E490E00BC080E890E04B
:100E900008C080E091E005C080E094E002C081E0FD
:100EA00090E09093A4018093A30108951F920F9264
:100EB0000FB60F9211242F933F934F935F936F932D
:100EC0007F938F939F93AF93BF93EF93FF930E9472
:100ED000E609982F907F91F4A8E8B1E0ED91F0E059
:100EE000E35DFE4F2081821729F490938E011092CA
:100EF0002B0123C09F5F943089F71FC090912B0175
:100F00009430D8F420918E0130E0F901EE0FFF1FEC
:100F1000EE0FFF1FE90FF11DED56FE4F808393305A
:100F200049F424553E4F81E0F90180838FEF80938F
:100F30002B0103C09F5F90932B01FF91EF91BF9115
:100F4000AF919F918F917F916F915F914F913F9161
:100F50002F910F900FBE0F901F9018951F920F9218
:100F60000FB60F9211242F933F934F935F936F937C
:100F70007F938F939F93AF93BF93EF93FF93809152
:100F8000B0019091B10101969093B1018093B001AD
:100F9000EAE7F0E08081806480838091590190913C
:100FA0005A010E94E901FF91EF91BF91AF919F918A
:100FB0008F917F916F915F914F913F912F910F9002
:100FC0000FBE0F901F9018951F920F920FB60F92A1
:100FD00011242F933F934F935F936F937F938F933E
:100FE0009F93AF93BF93EF93FF9380E00E947B06A4
:100FF000FF91EF91BF91AF919F918F917F916F91F1
:101000005F914F913F912F910F900FBE0F901F90C6
:101010001895FC019E2F981B21912223D9F7892F27
:1010200090E008951F920F920FB60F9211248F93A4
:101030009F93AF93BF9380915601882321F481E061
:101040008093560102C0109256018FEF90E7A2E004
:1010500081509040A040E1F700C00000BF91AF91E7
:101060009F918F910F900FBE0F901F9018950F9327
:101070001F93CF93DF93CDB7DEB7A1970FB6F89448
:10108000DEBF0FBECDBF08E811E020E0822F60E098
:1010900029A30E942E05D801ED918D01F0E0EE0FFD
:1010A000FF1FE355FF4F6491CE01019670E00E944F
:1010B000BF0FCE0101960E94440529A12F5F243065
:1010C00029F7A1960FB6F894DEBF0FBECDBFDF9112
:1010D000CF911F910F910895CF92DF92EF92FF92DF
:1010E000CF93DF93EC0180E090E00E94650E6B01EE
:1010F0007C01BE0180E090E00E94650E9B01AC0186
:10110000C701B6010E94D10DDC01CB018093BA0169
:101110009093BB01A093BC01B093BD01DF91CF912F
:10112000FF90EF90DF90CF90089580918400909190
:101130008500A0E0B0E08093B2019093B301A0934A
:10114000B401B093B50108950F931F93809184006B
:1011500090918500A0E0B0E08093B6019093B70134
:10116000A093B801B093B9010091B2011091B301FD
:101170002091B4013091B501AC01BD01401B510B70
:10118000620B730B081719072A073B0720F440501E
:1011900050406F4F7F4FCB01BA010E94650E2091E6
:1011A000BA013091BB014091BC015091BD010E9438
:1011B0001B0F0E94390E1F910F9108959093C50047
:1011C0008093C40088E98093C10086E28093C200C6
:1011D0001092C00008959091C00095FFFCCF8093BD
:1011E000C6000895CF93DF93EC0102C00E94EB0884
:1011F00089918823D9F7DF91CF9108952F923F925B
:101200004F925F926F927F928F929F92AF92BF9216
:10121000CF92DF92EF92FF920F931F93CF93DF93C2
:10122000CDB7DEB728970FB6F894DEBF0FBECDBF9F
:101230006B017C011A01290180E090E04C010FC094
:10124000C701B60120E030E040E251E40E941B0FEC
:10125000C62ED72EE82EF92E0894811C911C8414DA
:10126000950471F70130110581F4C701B60120E042
:1012700030E0A9010E94CD0D87FF1BC08DE20E94C6
:10128000EB08F7FAF094F7F8F09400E010E0662429
:1012900077249201220D331D3A8329832150304057
:1012A0003C832B83C10101979E838D8378866F8257
:1012B0006EC08BE20E94EB08E8CF0215130531F4F3
:1012C0004114510419F08EE20E94EB08380181E0CC
:1012D000882E912CA12CB12CC501B40106C02AE0A6
:1012E00030E040E050E00E947E0F0894611C711CC9
:1012F000E981FA816E167F0690F34B015C010E9432
:10130000650E9B01AC01C701B6010E94D10D0E9480
:10131000390EDC01CB013C012F81388521153105C7
:1013200079F481E090E098878F836114710461F40F
:10133000ED81FE810E171F0739F018861F8204C049
:1013400021E030E038872F83B30180E090E0A501F1
:1013500094010E947E0F0E94650E9B01AC01C701A3
:10136000B6010E94680D6B01E82EF92EEF81F88519
:10137000309729F42B813C810217130719F4862D2D
:10138000805D01C080E20E94EB080F5F1F4F8B81E0
:101390009C818017910708F090CF28960FB6F8949B
:1013A000DEBF0FBECDBFDF91CF911F910F91FF9098
:1013B000EF90DF90CF90BF90AF909F908F907F90F5
:1013C0006F905F904F903F902F9008958091C00054
:1013D00087FFFCCF8091C0008091C0008091C60043
:1013E0000895CF93DF93CDB7DEB7C755D0400FB682
:1013F000F894DEBF0FBECDBF0E945A040E9459066A
:101400000E94A4040E949C060E94D1060E9411071B
:10141000559A83E390E00E94DE080E94A6000E9495
:10142000640120918F013091900140E050E060E034
:1014300074E284EF90E00E94FE020E94AF000E94DE
:101440008106B7E3AB2EB1E0BB2E1EE3812E11E087
:10145000912E00E010E08BE0F82E32C04F5F242F79
:1014600030E028173907D4F3F801EE0FFF1FE355DA
:10147000FF4F6491CE018E9670E00E94BF0FCE01A7
:101480008E960E940908F801EB55FE4F8083AFE06D
:10149000B0E0AC0FBD1FA00FB11F9F2D9E19981B70
:1014A000F801EB5BFE4F8081981B81E0EC1409F49E
:1014B00080E0981B9C930F5F1F4F0730110561F070
:1014C000D501ED905D01F401C1904F018E2D90E0AA
:1014D0008C19910940E0C3CF81E090E09A87898719
:1014E00080E190E09C878B8780E091E09E878D87EC
:1014F0006091A3017091A40180E090E00E94650ECC
:101500009B01AC0160E074E284E79BE40E94D10D92
:1015100020E030E04AE753E40E941B0F20E030E077
:1015200040E85BE30E941B0F20E030E04AE754E410
:101530000E94D10D0E94390EDC01CB0190939201E3
:101540008093910100E010E0E1E0EE2EF12CC70164
:10155000002E02C0880F991F0A94E2F70E947B06B2
:101560008FEF9DEEA2E081509040A040E1F700C0D7
:1015700000000F5F1F4F0930110549F78FEF90E70B
:10158000A2E081509040A040E1F700C0000000E0E0
:1015900010E0802F8F5F60E00E942E05F801EE0FB3
:1015A000FF1FE859FF4F6491CE018E9670E00E94B4
:1015B000BF0F9EE2E92EF12CEC0EFD1E24E1C22E9F
:1015C000D7018D917D010E941C058FEF99EFA0E05E
:1015D00081509040A040E1F700C00000CA9481F71C
:1015E0000F5F1F4F03301105A1F600E0802F60E070
:1015F0000E942E0514E180E20E941C05AFE3BCE9C5
:101600001197F1F700C000001150A9F70F5F0430E7
:1016100069F781E08093AC011F8A1E8A8093AD0137
:10162000198E188E8093AE011B8E1A8E8093AF0197
:101630001D8E1C8E789410925601FE01399660968C
:10164000FFAFEEAF609780912C01882399F00E9444
:1016500037082091360130E0C9018370907095956C
:10166000879520FF02C068E001C067E00E942E0558
:1016700010922C019E01225E3F4F64963FAF2EAF29
:101680006497CE01059666969FAF8EAF6697A6E1EA
:101690006A2E712C6C0E7D1EB3E92B2EB1E03B2E11
:1016A0005C0162963FAF2EAF629788249924F401C3
:1016B000E455FE4F8081813009F0A4C01082F3010F
:1016C00011821082F401E857FE4FF08080E090E034
:1016D000F101E80FF91F2181322F3154363018F013
:1016E00020532A3040F4E1E0D501EC930196833099
:1016F000910571F702C0D5011C92F50180818130FE
:1017000009F0A4C06401CC0CDD1CCC0CDD1C24E968
:1017100031E0C20ED31EDE011296BE01615F7F4F23
:1017200000E010E0F60181916F01282F30E0207F6A
:1017300030702033310511F48F7005C0203431052D
:10174000C9F48F70875F8C938D9190E0FB0132918B
:101750002291BF01829FA001839F500D929F500D47
:101760001124040F151F60962EAD3FAD6097E21750
:10177000F307C1F68F2D90E0880F991FFC01E85107
:10178000FF4F45905490FC01EA50FF4F8591949192
:1017900068969FAF8EAF6897B80180E090E00E9496
:1017A000650E20E030E043E155E40E94D10D6B016D
:1017B0007C01B20180E090E00E94650E9B01AC01CB
:1017C000C701B6010E941B0F6B017C016896AEAD8C
:1017D000BFAD6897BD01882777FD8095982F0E943F
:1017E000670E9B01AC01C701B6010E94690DDC01C7
:1017F000CB016296EEADFFAD629780839183A283A9
:10180000B38324C0D3018D919C911197B1E08C32A8
:101810009B07B9F4F501108283E06CE00E942E056D
:10182000CE018E9664E071E00E94BF0FCE018E96CD
:101830000E94440587EC90E00197F1F700C000009A
:1018400005C00196D30111969C938E930894811C38
:10185000911C6296EEADFFAD629734966296FFAF33
:10186000EEAF62970894A11CB11C22E030E0620E3A
:10187000731E84E090E0280E391E94E089169104CE
:1018800009F015CF0E9411036093590170935A011A
:1018900080935B0190935C01409079002EA13FA161
:1018A00048A559A5EAA4FBA40CA51DA5C090560106
:1018B000DD240E94730188BD8091B0019091B10137
:1018C00020919101309192012817390708F0BCC08E
:1018D0001092B1011092B00168E8862E61E0962E58
:1018E000FF247AE0672E712CD401CD904D01DD24C8
:1018F00086010B551E4F8F2DF80160810E942E0529
:10190000EE2404C080E20E941C05E394D8016C918F
:101910008E2D90E09301261B31092817390794F783
:101920008F2D0E942E05EE240FE010E00C0F1D1FDE
:101930000C0D1D1D04C080E20E941C05E394F801FB
:101940008081E816C0F36696AEADBFAD66978D9107
:101950006696BFAFAEAF66978130E1F4F601E25C08
:10196000FE4F40816496EEADFFAD6497608171815A
:1019700082819381F601E95CFE4F208130E0241BD7
:101980003109F601EB5BFE4F008150E010E00E9450
:1019900050052BC0882331F028C080E20E941C052E
:1019A0000F5F0EC000E0F601E95CFE4FE080F6013B
:1019B000E25CFE4FA080F601EB5BFE4FC080DD24B1
:1019C000202F30E081E090E0EA1411F480E090E014
:1019D0008C0D9D1D2817390704F300E004C08AE22E
:1019E0000E941C050F5F0E15D1F7F39464962EAD7F
:1019F0003FAD64972C5F3F4F64963FAF2EAF649727
:101A000034E0F31609F070CF82E06CE00E942E05FE
:101A100081E191E00E944405642D70E080E090E057
:101A20000E94650E21EF30EF40E75DE30E941B0F3F
:101A300042E050E021E030E000E010E00E9450057C
:101A400085E191E00E94440580E06CE00E942E0553
:101A50006091590170915A0180E090E00E94650EFA
:101A600045E050E020E030E000E010E00E9450054A
:101A700087E191E00E94440581E06CE00E942E0520
:101A8000809156018823F9F48BE191E00E9444058E
:101A900068B570E080E090E00E94670E20E030E0E2
:101AA0004FE753E40E94D10D20E030E048EC52E4CF
:101AB0000E941B0F43E050E020E030E00E94500500
:101AC00080E291E002C082E291E00E944405BBCD39
:101AD0005058BB27AA270ED070C161D130F066D113
:101AE00020F031F49F3F11F41EF456C10EF4E0953E
:101AF000E7FB4CC1E92F72D180F3BA176207730775
:101B00008407950718F071F49EF58AC10EF4E095EC
:101B10000B2EBA2FA02D0B01B90190010C01CA01A7
:101B2000A0011124FF27591B99F0593F50F4503E52
:101B300068F11A16F040A22F232F342F4427585F44
:101B4000F3CF469537952795A795F0405395C9F75C
:101B50007EF41F16BA0B620B730B840BBAF0915014
:101B6000A1F0FF0FBB1F661F771F881FC2F70EC0B3
:101B7000BA0F621F731F841F48F487957795679586
:101B8000B795F7959E3F08F0B3CF9395880F08F06F
:101B90009927EE0F979587950895D4D008F481E0A2
:101BA00008950CD00AC102D140F0F9D030F021F4F0
:101BB0005F3F19F0EBC0511134C1EEC00FD198F363
:101BC0009923C9F35523B1F3951B550BBB27AA27BE
:101BD00062177307840738F09F5F5F4F220F331F30
:101BE000441FAA1FA9F333D00E2E3AF0E0E830D0FC
:101BF00091505040E695001CCAF729D0FE2F27D0FF
:101C0000660F771F881FBB1F261737074807AB07CC
:101C1000B0E809F0BB0B802DBF01FF2793585F4F41
:101C20002AF09E3F510568F0B1C0FBC05F3FECF366
:101C3000983EDCF3869577956795B795F7959F5F06
:101C4000C9F7880F911D9695879597F90895E1E05A
:101C5000660F771F881FBB1F621773078407BA07B9
:101C600020F0621B730B840BBA0BEE1F88F7E09514
:101C70000895BCD088F09F5790F0B92F9927B7519D
:101C8000A0F0D1F0660F771F881F991F1AF0BA9540
:101C9000C9F712C0B13081F0C3D0B1E00895C0C01F
:101CA000672F782F8827B85F39F0B93FCCF3869536
:101CB00077956795B395D9F73EF490958095709593
:101CC00061957F4F8F4F9F4F0895E89409C097FB10
:101CD0003EF490958095709561957F4F8F4F9F4F03
:101CE0009923A9F0F92F96E9BB279395F695879547
:101CF00077956795B795F111F8CFFAF4BB0F11F40A
:101D000060FF1BC06F5F7F4F8F4F9F4F16C08823B0
:101D100011F096E911C0772321F09EE8872F762FE6
:101D200005C0662371F096E8862F70E060E02AF027
:101D30009A95660F771F881FDAF7880F9695879513
:101D400097F90895990F0008550FAA0BE0E8FEEFE8
:101D500016161706E807F907C0F012161306E4076F
:101D6000F50798F0621B730B840B950B39F40A2668
:101D700061F0232B242B252B21F408950A2609F446
:101D8000A140A6958FEF811D811D089597F99F674A
:101D900080E870E060E008959FEF80EC08950024F3
:101DA0000A941616170618060906089500240A94C0
:101DB00012161306140605060895092E0394000C46
:101DC00011F4882352F0BB0F40F4BF2B11F460FFD5
:101DD00004C06F5F7F4F8F4F9F4F089557FD9058FE
:101DE000440F551F59F05F3F71F04795880F97FBDF
:101DF000991F61F09F3F79F0879508951216130699
:101E00001406551FF2CF4695F1DF08C016161706C7
:101E10001806991FF1CF86957105610508940895FC
:101E2000E894BB2766277727CB0197F908958ADFC7
:101E300008F48FEF08950BD0C0CFB1DF28F0B6DFE4
:101E400018F0952309F0A2CFA7CF1124EACFC6DF5F
:101E5000A0F3959FD1F3950F50E0551F629FF001BD
:101E6000729FBB27F00DB11D639FAA27F00DB11D16
:101E7000AA1F649F6627B00DA11D661F829F22279F
:101E8000B00DA11D621F739FB00DA11D621F839F26
:101E9000A00D611D221F749F3327A00D611D231FFC
:101EA000849F600D211D822F762F6A2F11249F574A
:101EB00050408AF0E1F088234AF0EE0FFF1FBB1F6D
:101EC000661F771F881F91505040A9F79E3F51050C
:101ED00070F05CCFA6CF5F3FECF3983EDCF38695C5
:101EE00077956795B795F795E7959F5FC1F7FE2BB7
:101EF000880F911D9695879597F90895629FD00157
:101F0000739FF001829FE00DF11D649FE00DF11DB4
:101F1000929FF00D839FF00D749FF00D659FF00D63
:101F20009927729FB00DE11DF91F639FB00DE11D50
:101F3000F91FBD01CF0111240895A1E21A2EAA1B99
:101F4000BB1BFD010DC0AA1FBB1FEE1FFF1FA21769
:101F5000B307E407F50720F0A21BB30BE40BF50B66
:101F6000661F771F881F991F1A9469F760957095EF
:101F7000809590959B01AC01BD01CF010895FB01B7
:101F8000DC0105900D920020E1F70895F894FFCF51
:101F90000800FF00424144495352204552524F52DB
:101FA0000046502000560072706D00445554590090
:101FB00025003D4650204D41583D00FF01010203E0
:101FC0000405070FFFFF04030403030403030104D4
:0C1FD000020104030301000000000000F7
:00000001FF
